{
	"contracts/Medical-Record.sol": {
		"MedicalChain": {
			"abi": [
				{
					"inputs": [],
					"payable": false,
					"stateMutability": "nonpayable",
					"type": "constructor"
				},
				{
					"anonymous": false,
					"inputs": [
						{
							"indexed": false,
							"internalType": "address",
							"name": "admin",
							"type": "address"
						},
						{
							"indexed": false,
							"internalType": "address",
							"name": "doctor",
							"type": "address"
						}
					],
					"name": "DrDetailsAdded",
					"type": "event"
				},
				{
					"anonymous": false,
					"inputs": [
						{
							"indexed": false,
							"internalType": "address",
							"name": "dr",
							"type": "address"
						},
						{
							"indexed": false,
							"internalType": "address",
							"name": "patient",
							"type": "address"
						}
					],
					"name": "GrantAccessToDr",
					"type": "event"
				},
				{
					"anonymous": false,
					"inputs": [
						{
							"indexed": false,
							"internalType": "address",
							"name": "dr",
							"type": "address"
						},
						{
							"indexed": false,
							"internalType": "address",
							"name": "patient",
							"type": "address"
						}
					],
					"name": "HealthRecordsAdded",
					"type": "event"
				},
				{
					"constant": true,
					"inputs": [
						{
							"internalType": "address",
							"name": "_Id",
							"type": "address"
						}
					],
					"name": "getDoctorDetails",
					"outputs": [
						{
							"internalType": "bool",
							"name": "_state",
							"type": "bool"
						},
						{
							"internalType": "address",
							"name": "_drId",
							"type": "address"
						},
						{
							"internalType": "string",
							"name": "_name",
							"type": "string"
						}
					],
					"payable": false,
					"stateMutability": "view",
					"type": "function"
				},
				{
					"constant": true,
					"inputs": [
						{
							"internalType": "address",
							"name": "_dr",
							"type": "address"
						}
					],
					"name": "getHealthRecords",
					"outputs": [
						{
							"internalType": "string",
							"name": "_drName",
							"type": "string"
						},
						{
							"internalType": "address",
							"name": "_drId",
							"type": "address"
						},
						{
							"internalType": "string",
							"name": "_paName",
							"type": "string"
						},
						{
							"internalType": "address",
							"name": "_paId",
							"type": "address"
						},
						{
							"internalType": "string",
							"name": "_prescription",
							"type": "string"
						},
						{
							"internalType": "string[]",
							"name": "_rec",
							"type": "string[]"
						}
					],
					"payable": false,
					"stateMutability": "view",
					"type": "function"
				},
				{
					"constant": true,
					"inputs": [
						{
							"internalType": "address",
							"name": "_paId",
							"type": "address"
						}
					],
					"name": "getHealthRecordsForDoctor",
					"outputs": [
						{
							"internalType": "string",
							"name": "_drName",
							"type": "string"
						},
						{
							"internalType": "address",
							"name": "_drId",
							"type": "address"
						},
						{
							"internalType": "string",
							"name": "_paName",
							"type": "string"
						},
						{
							"internalType": "address",
							"name": "_pId",
							"type": "address"
						},
						{
							"internalType": "string",
							"name": "_prescription",
							"type": "string"
						},
						{
							"internalType": "string[]",
							"name": "_rec",
							"type": "string[]"
						}
					],
					"payable": false,
					"stateMutability": "view",
					"type": "function"
				},
				{
					"constant": true,
					"inputs": [
						{
							"internalType": "address",
							"name": "_Id",
							"type": "address"
						}
					],
					"name": "getPatientDetails",
					"outputs": [
						{
							"internalType": "bool",
							"name": "_state",
							"type": "bool"
						},
						{
							"internalType": "address",
							"name": "_paId",
							"type": "address"
						},
						{
							"internalType": "string",
							"name": "_paName",
							"type": "string"
						},
						{
							"internalType": "string[]",
							"name": "_paRecords",
							"type": "string[]"
						}
					],
					"payable": false,
					"stateMutability": "view",
					"type": "function"
				},
				{
					"constant": false,
					"inputs": [
						{
							"internalType": "address",
							"name": "doctor_id",
							"type": "address"
						},
						{
							"internalType": "uint256",
							"name": "access",
							"type": "uint256"
						}
					],
					"name": "grantAccessToDoctor",
					"outputs": [],
					"payable": false,
					"stateMutability": "nonpayable",
					"type": "function"
				},
				{
					"constant": false,
					"inputs": [
						{
							"internalType": "bool",
							"name": "_state",
							"type": "bool"
						},
						{
							"internalType": "address",
							"name": "_drId",
							"type": "address"
						},
						{
							"internalType": "string",
							"name": "_name",
							"type": "string"
						}
					],
					"name": "setDoctorDetails",
					"outputs": [],
					"payable": false,
					"stateMutability": "nonpayable",
					"type": "function"
				},
				{
					"constant": false,
					"inputs": [
						{
							"internalType": "string",
							"name": "_paName",
							"type": "string"
						},
						{
							"internalType": "address",
							"name": "_paId",
							"type": "address"
						},
						{
							"internalType": "string",
							"name": "_prescription",
							"type": "string"
						}
					],
					"name": "setHealthRecordsDetails",
					"outputs": [],
					"payable": false,
					"stateMutability": "nonpayable",
					"type": "function"
				},
				{
					"constant": false,
					"inputs": [
						{
							"internalType": "bool",
							"name": "_state",
							"type": "bool"
						},
						{
							"internalType": "address",
							"name": "_paId",
							"type": "address"
						},
						{
							"internalType": "string",
							"name": "_paName",
							"type": "string"
						},
						{
							"internalType": "string[]",
							"name": "_paRecords",
							"type": "string[]"
						}
					],
					"name": "setPatientDetails",
					"outputs": [],
					"payable": false,
					"stateMutability": "nonpayable",
					"type": "function"
				}
			],
			"devdoc": {
				"methods": {}
			},
			"evm": {
				"assembly": "    /* \"contracts/Medical-Record.sol\":59:5803  contract MedicalChain{... */\n  mstore(0x40, 0x80)\n    /* \"contracts/Medical-Record.sol\":889:944  constructor() public{... */\n  callvalue\n    /* \"--CODEGEN--\":8:17   */\n  dup1\n    /* \"--CODEGEN--\":5:7   */\n  iszero\n  tag_1\n  jumpi\n    /* \"--CODEGEN--\":30:31   */\n  0x00\n    /* \"--CODEGEN--\":27:28   */\n  dup1\n    /* \"--CODEGEN--\":20:32   */\n  revert\n    /* \"--CODEGEN--\":5:7   */\ntag_1:\n    /* \"contracts/Medical-Record.sol\":889:944  constructor() public{... */\n  pop\n    /* \"contracts/Medical-Record.sol\":927:937  msg.sender */\n  caller\n    /* \"contracts/Medical-Record.sol\":919:924  owner */\n  0x04\n  0x00\n    /* \"contracts/Medical-Record.sol\":919:937  owner = msg.sender */\n  0x0100\n  exp\n  dup2\n  sload\n  dup2\n  0xffffffffffffffffffffffffffffffffffffffff\n  mul\n  not\n  and\n  swap1\n  dup4\n  0xffffffffffffffffffffffffffffffffffffffff\n  and\n  mul\n  or\n  swap1\n  sstore\n  pop\n    /* \"contracts/Medical-Record.sol\":59:5803  contract MedicalChain{... */\n  dataSize(sub_0)\n  dup1\n  dataOffset(sub_0)\n  0x00\n  codecopy\n  0x00\n  return\nstop\n\nsub_0: assembly {\n        /* \"contracts/Medical-Record.sol\":59:5803  contract MedicalChain{... */\n      mstore(0x40, 0x80)\n      callvalue\n        /* \"--CODEGEN--\":8:17   */\n      dup1\n        /* \"--CODEGEN--\":5:7   */\n      iszero\n      tag_1\n      jumpi\n        /* \"--CODEGEN--\":30:31   */\n      0x00\n        /* \"--CODEGEN--\":27:28   */\n      dup1\n        /* \"--CODEGEN--\":20:32   */\n      revert\n        /* \"--CODEGEN--\":5:7   */\n    tag_1:\n        /* \"contracts/Medical-Record.sol\":59:5803  contract MedicalChain{... */\n      pop\n      jumpi(tag_2, lt(calldatasize, 0x04))\n      shr(0xe0, calldataload(0x00))\n      dup1\n      0xbab90dbd\n      gt\n      tag_11\n      jumpi\n      dup1\n      0xbab90dbd\n      eq\n      tag_7\n      jumpi\n      dup1\n      0xc88f22a9\n      eq\n      tag_8\n      jumpi\n      dup1\n      0xefe2ccc1\n      eq\n      tag_9\n      jumpi\n      dup1\n      0xf83009ba\n      eq\n      tag_10\n      jumpi\n      jump(tag_2)\n    tag_11:\n      dup1\n      0x506f1773\n      eq\n      tag_3\n      jumpi\n      dup1\n      0x71f61bfa\n      eq\n      tag_4\n      jumpi\n      dup1\n      0x7827c01a\n      eq\n      tag_5\n      jumpi\n      dup1\n      0x80cfed0e\n      eq\n      tag_6\n      jumpi\n    tag_2:\n      0x00\n      dup1\n      revert\n        /* \"contracts/Medical-Record.sol\":4892:5087  function grantAccessToDoctor(address doctor_id,uint access) public Only_Patients{... */\n    tag_3:\n      tag_12\n      0x04\n      dup1\n      calldatasize\n      sub\n      tag_13\n      swap2\n      swap1\n      dup2\n      add\n      swap1\n      jump(tag_14)\n    tag_13:\n      tag_15\n      jump\t// in\n    tag_12:\n      stop\n        /* \"contracts/Medical-Record.sol\":3404:3604  function setPatientDetails(bool _state,address _paId,string memory _paName,string[] memory _paRecords) public Only_Doctors{... */\n    tag_4:\n      tag_16\n      0x04\n      dup1\n      calldatasize\n      sub\n      tag_17\n      swap2\n      swap1\n      dup2\n      add\n      swap1\n      jump(tag_18)\n    tag_17:\n      tag_19\n      jump\t// in\n    tag_16:\n      stop\n        /* \"contracts/Medical-Record.sol\":4213:4759  function getHealthRecords(address _dr) Only_Patients public view returns(string memory _drName, address _drId, string memory _paName, address _paId,string memory _prescription,string[] memory _rec) {... */\n    tag_5:\n      tag_20\n      0x04\n      dup1\n      calldatasize\n      sub\n      tag_21\n      swap2\n      swap1\n      dup2\n      add\n      swap1\n      jump(tag_22)\n    tag_21:\n      tag_23\n      jump\t// in\n    tag_20:\n      mload(0x40)\n      tag_24\n      swap7\n      swap6\n      swap5\n      swap4\n      swap3\n      swap2\n      swap1\n      jump(tag_25)\n    tag_24:\n      mload(0x40)\n      dup1\n      swap2\n      sub\n      swap1\n      return\n        /* \"contracts/Medical-Record.sol\":1814:2015  function setDoctorDetails(bool _state,address _drId,string memory _name) public OnlyOwner {... */\n    tag_6:\n      tag_26\n      0x04\n      dup1\n      calldatasize\n      sub\n      tag_27\n      swap2\n      swap1\n      dup2\n      add\n      swap1\n      jump(tag_28)\n    tag_27:\n      tag_29\n      jump\t// in\n    tag_26:\n      stop\n        /* \"contracts/Medical-Record.sol\":2083:2324  function getDoctorDetails(address _Id) public OnlyOwner view returns(bool _state,address _drId,string memory _name){... */\n    tag_7:\n      tag_30\n      0x04\n      dup1\n      calldatasize\n      sub\n      tag_31\n      swap2\n      swap1\n      dup2\n      add\n      swap1\n      jump(tag_22)\n    tag_31:\n      tag_32\n      jump\t// in\n    tag_30:\n      mload(0x40)\n      tag_33\n      swap4\n      swap3\n      swap2\n      swap1\n      jump(tag_34)\n    tag_33:\n      mload(0x40)\n      dup1\n      swap2\n      sub\n      swap1\n      return\n        /* \"contracts/Medical-Record.sol\":2426:3312  function setHealthRecordsDetails(string memory _paName, address _paId, string memory _prescription) public Only_Doctors{... */\n    tag_8:\n      tag_35\n      0x04\n      dup1\n      calldatasize\n      sub\n      tag_36\n      swap2\n      swap1\n      dup2\n      add\n      swap1\n      jump(tag_37)\n    tag_36:\n      tag_38\n      jump\t// in\n    tag_35:\n      stop\n        /* \"contracts/Medical-Record.sol\":3663:4127  function getPatientDetails(address _Id) public view returns(bool _state,address _paId,string memory _paName,string[] memory _paRecords){... */\n    tag_9:\n      tag_39\n      0x04\n      dup1\n      calldatasize\n      sub\n      tag_40\n      swap2\n      swap1\n      dup2\n      add\n      swap1\n      jump(tag_22)\n    tag_40:\n      tag_41\n      jump\t// in\n    tag_39:\n      mload(0x40)\n      tag_42\n      swap5\n      swap4\n      swap3\n      swap2\n      swap1\n      jump(tag_43)\n    tag_42:\n      mload(0x40)\n      dup1\n      swap2\n      sub\n      swap1\n      return\n        /* \"contracts/Medical-Record.sol\":5167:5800  function getHealthRecordsForDoctor(address _paId) public Only_Doctors view returns(string memory _drName, address _drId, string memory _paName, address _pId,string memory _prescription,string[] memory _rec){... */\n    tag_10:\n      tag_44\n      0x04\n      dup1\n      calldatasize\n      sub\n      tag_45\n      swap2\n      swap1\n      dup2\n      add\n      swap1\n      jump(tag_22)\n    tag_45:\n      tag_46\n      jump\t// in\n    tag_44:\n      mload(0x40)\n      tag_47\n      swap7\n      swap6\n      swap5\n      swap4\n      swap3\n      swap2\n      swap1\n      jump(tag_25)\n    tag_47:\n      mload(0x40)\n      dup1\n      swap2\n      sub\n      swap1\n      return\n        /* \"contracts/Medical-Record.sol\":4892:5087  function grantAccessToDoctor(address doctor_id,uint access) public Only_Patients{... */\n    tag_15:\n        /* \"contracts/Medical-Record.sol\":805:809  true */\n      0x01\n        /* \"contracts/Medical-Record.sol\":772:809  PatientInfo[msg.sender].state == true */\n      iszero\n      iszero\n        /* \"contracts/Medical-Record.sol\":772:783  PatientInfo */\n      0x01\n        /* \"contracts/Medical-Record.sol\":772:795  PatientInfo[msg.sender] */\n      0x00\n        /* \"contracts/Medical-Record.sol\":784:794  msg.sender */\n      caller\n        /* \"contracts/Medical-Record.sol\":772:795  PatientInfo[msg.sender] */\n      0xffffffffffffffffffffffffffffffffffffffff\n      and\n      0xffffffffffffffffffffffffffffffffffffffff\n      and\n      dup2\n      mstore\n      0x20\n      add\n      swap1\n      dup2\n      mstore\n      0x20\n      add\n      0x00\n      keccak256\n        /* \"contracts/Medical-Record.sol\":772:801  PatientInfo[msg.sender].state */\n      0x00\n      add\n      0x00\n      swap1\n      sload\n      swap1\n      0x0100\n      exp\n      swap1\n      div\n      0xff\n      and\n        /* \"contracts/Medical-Record.sol\":772:809  PatientInfo[msg.sender].state == true */\n      iszero\n      iszero\n      eq\n        /* \"contracts/Medical-Record.sol\":764:837  require(PatientInfo[msg.sender].state == true,\"REGISTERED PATIENTS ONLY\") */\n      tag_49\n      jumpi\n      mload(0x40)\n      0x08c379a000000000000000000000000000000000000000000000000000000000\n      dup2\n      mstore\n      0x04\n      add\n      tag_50\n      swap1\n      jump(tag_51)\n    tag_50:\n      mload(0x40)\n      dup1\n      swap2\n      sub\n      swap1\n      revert\n    tag_49:\n        /* \"contracts/Medical-Record.sol\":5020:5026  access */\n      dup1\n        /* \"contracts/Medical-Record.sol\":4979:4994  patientToDoctor */\n      0x03\n        /* \"contracts/Medical-Record.sol\":4979:5006  patientToDoctor[msg.sender] */\n      0x00\n        /* \"contracts/Medical-Record.sol\":4995:5005  msg.sender */\n      caller\n        /* \"contracts/Medical-Record.sol\":4979:5006  patientToDoctor[msg.sender] */\n      0xffffffffffffffffffffffffffffffffffffffff\n      and\n      0xffffffffffffffffffffffffffffffffffffffff\n      and\n      dup2\n      mstore\n      0x20\n      add\n      swap1\n      dup2\n      mstore\n      0x20\n      add\n      0x00\n      keccak256\n        /* \"contracts/Medical-Record.sol\":4979:5017  patientToDoctor[msg.sender][doctor_id] */\n      0x00\n        /* \"contracts/Medical-Record.sol\":5007:5016  doctor_id */\n      dup5\n        /* \"contracts/Medical-Record.sol\":4979:5017  patientToDoctor[msg.sender][doctor_id] */\n      0xffffffffffffffffffffffffffffffffffffffff\n      and\n      0xffffffffffffffffffffffffffffffffffffffff\n      and\n      dup2\n      mstore\n      0x20\n      add\n      swap1\n      dup2\n      mstore\n      0x20\n      add\n      0x00\n      keccak256\n        /* \"contracts/Medical-Record.sol\":4979:5026  patientToDoctor[msg.sender][doctor_id] = access */\n      dup2\n      swap1\n      sstore\n      pop\n        /* \"contracts/Medical-Record.sol\":5041:5078  GrantAccessToDr(doctor_id,msg.sender) */\n      0x19dd02d0615ff9058c55159271b51d3d8ead87b40cc392e6dbeca6483cff3333\n        /* \"contracts/Medical-Record.sol\":5057:5066  doctor_id */\n      dup3\n        /* \"contracts/Medical-Record.sol\":5067:5077  msg.sender */\n      caller\n        /* \"contracts/Medical-Record.sol\":5041:5078  GrantAccessToDr(doctor_id,msg.sender) */\n      mload(0x40)\n      tag_53\n      swap3\n      swap2\n      swap1\n      jump(tag_54)\n    tag_53:\n      mload(0x40)\n      dup1\n      swap2\n      sub\n      swap1\n      log1\n        /* \"contracts/Medical-Record.sol\":4892:5087  function grantAccessToDoctor(address doctor_id,uint access) public Only_Patients{... */\n      pop\n      pop\n      jump\t// out\n        /* \"contracts/Medical-Record.sol\":3404:3604  function setPatientDetails(bool _state,address _paId,string memory _paName,string[] memory _paRecords) public Only_Doctors{... */\n    tag_19:\n        /* \"contracts/Medical-Record.sol\":673:677  true */\n      0x01\n        /* \"contracts/Medical-Record.sol\":641:677  DoctorInfo[msg.sender].state == true */\n      iszero\n      iszero\n        /* \"contracts/Medical-Record.sol\":641:651  DoctorInfo */\n      0x00\n        /* \"contracts/Medical-Record.sol\":641:663  DoctorInfo[msg.sender] */\n      dup1\n        /* \"contracts/Medical-Record.sol\":652:662  msg.sender */\n      caller\n        /* \"contracts/Medical-Record.sol\":641:663  DoctorInfo[msg.sender] */\n      0xffffffffffffffffffffffffffffffffffffffff\n      and\n      0xffffffffffffffffffffffffffffffffffffffff\n      and\n      dup2\n      mstore\n      0x20\n      add\n      swap1\n      dup2\n      mstore\n      0x20\n      add\n      0x00\n      keccak256\n        /* \"contracts/Medical-Record.sol\":641:669  DoctorInfo[msg.sender].state */\n      0x00\n      add\n      0x00\n      swap1\n      sload\n      swap1\n      0x0100\n      exp\n      swap1\n      div\n      0xff\n      and\n        /* \"contracts/Medical-Record.sol\":641:677  DoctorInfo[msg.sender].state == true */\n      iszero\n      iszero\n      eq\n        /* \"contracts/Medical-Record.sol\":633:704  require(DoctorInfo[msg.sender].state == true,\"REGISTERED DOCTORS ONLY\") */\n      tag_56\n      jumpi\n      mload(0x40)\n      0x08c379a000000000000000000000000000000000000000000000000000000000\n      dup2\n      mstore\n      0x04\n      add\n      tag_57\n      swap1\n      jump(tag_58)\n    tag_57:\n      mload(0x40)\n      dup1\n      swap2\n      sub\n      swap1\n      revert\n    tag_56:\n        /* \"contracts/Medical-Record.sol\":3557:3597  Patient(_state,_paId,_paName,_paRecords) */\n      mload(0x40)\n      dup1\n      0x80\n      add\n      0x40\n      mstore\n      dup1\n        /* \"contracts/Medical-Record.sol\":3565:3571  _state */\n      dup6\n        /* \"contracts/Medical-Record.sol\":3557:3597  Patient(_state,_paId,_paName,_paRecords) */\n      iszero\n      iszero\n      dup2\n      mstore\n      0x20\n      add\n        /* \"contracts/Medical-Record.sol\":3572:3577  _paId */\n      dup5\n        /* \"contracts/Medical-Record.sol\":3557:3597  Patient(_state,_paId,_paName,_paRecords) */\n      0xffffffffffffffffffffffffffffffffffffffff\n      and\n      dup2\n      mstore\n      0x20\n      add\n        /* \"contracts/Medical-Record.sol\":3578:3585  _paName */\n      dup4\n        /* \"contracts/Medical-Record.sol\":3557:3597  Patient(_state,_paId,_paName,_paRecords) */\n      dup2\n      mstore\n      0x20\n      add\n        /* \"contracts/Medical-Record.sol\":3586:3596  _paRecords */\n      dup3\n        /* \"contracts/Medical-Record.sol\":3557:3597  Patient(_state,_paId,_paName,_paRecords) */\n      dup2\n      mstore\n      pop\n        /* \"contracts/Medical-Record.sol\":3536:3547  PatientInfo */\n      0x01\n        /* \"contracts/Medical-Record.sol\":3536:3554  PatientInfo[_paId] */\n      0x00\n        /* \"contracts/Medical-Record.sol\":3548:3553  _paId */\n      dup6\n        /* \"contracts/Medical-Record.sol\":3536:3554  PatientInfo[_paId] */\n      0xffffffffffffffffffffffffffffffffffffffff\n      and\n      0xffffffffffffffffffffffffffffffffffffffff\n      and\n      dup2\n      mstore\n      0x20\n      add\n      swap1\n      dup2\n      mstore\n      0x20\n      add\n      0x00\n      keccak256\n        /* \"contracts/Medical-Record.sol\":3536:3597  PatientInfo[_paId] = Patient(_state,_paId,_paName,_paRecords) */\n      0x00\n      dup3\n      add\n      mload\n      dup2\n      0x00\n      add\n      exp(0x0100, 0x00)\n      dup2\n      sload\n      dup2\n      0xff\n      mul\n      not\n      and\n      swap1\n      dup4\n      iszero\n      iszero\n      mul\n      or\n      swap1\n      sstore\n      pop\n      0x20\n      dup3\n      add\n      mload\n      dup2\n      0x00\n      add\n      exp(0x0100, 0x01)\n      dup2\n      sload\n      dup2\n      0xffffffffffffffffffffffffffffffffffffffff\n      mul\n      not\n      and\n      swap1\n      dup4\n      0xffffffffffffffffffffffffffffffffffffffff\n      and\n      mul\n      or\n      swap1\n      sstore\n      pop\n      0x40\n      dup3\n      add\n      mload\n      dup2\n      0x01\n      add\n      swap1\n      dup1\n      mload\n      swap1\n      0x20\n      add\n      swap1\n      tag_60\n      swap3\n      swap2\n      swap1\n      tag_61\n      jump\t// in\n    tag_60:\n      pop\n      0x60\n      dup3\n      add\n      mload\n      dup2\n      0x02\n      add\n      swap1\n      dup1\n      mload\n      swap1\n      0x20\n      add\n      swap1\n      tag_62\n      swap3\n      swap2\n      swap1\n      tag_63\n      jump\t// in\n    tag_62:\n      pop\n      swap1\n      pop\n      pop\n        /* \"contracts/Medical-Record.sol\":3404:3604  function setPatientDetails(bool _state,address _paId,string memory _paName,string[] memory _paRecords) public Only_Doctors{... */\n      pop\n      pop\n      pop\n      pop\n      jump\t// out\n        /* \"contracts/Medical-Record.sol\":4213:4759  function getHealthRecords(address _dr) Only_Patients public view returns(string memory _drName, address _drId, string memory _paName, address _paId,string memory _prescription,string[] memory _rec) {... */\n    tag_23:\n        /* \"contracts/Medical-Record.sol\":4286:4307  string memory _drName */\n      0x60\n        /* \"contracts/Medical-Record.sol\":4309:4322  address _drId */\n      0x00\n        /* \"contracts/Medical-Record.sol\":4324:4345  string memory _paName */\n      0x60\n        /* \"contracts/Medical-Record.sol\":4347:4360  address _paId */\n      0x00\n        /* \"contracts/Medical-Record.sol\":4361:4388  string memory _prescription */\n      0x60\n        /* \"contracts/Medical-Record.sol\":4389:4409  string[] memory _rec */\n      dup1\n        /* \"contracts/Medical-Record.sol\":805:809  true */\n      0x01\n        /* \"contracts/Medical-Record.sol\":772:809  PatientInfo[msg.sender].state == true */\n      iszero\n      iszero\n        /* \"contracts/Medical-Record.sol\":772:783  PatientInfo */\n      0x01\n        /* \"contracts/Medical-Record.sol\":772:795  PatientInfo[msg.sender] */\n      0x00\n        /* \"contracts/Medical-Record.sol\":784:794  msg.sender */\n      caller\n        /* \"contracts/Medical-Record.sol\":772:795  PatientInfo[msg.sender] */\n      0xffffffffffffffffffffffffffffffffffffffff\n      and\n      0xffffffffffffffffffffffffffffffffffffffff\n      and\n      dup2\n      mstore\n      0x20\n      add\n      swap1\n      dup2\n      mstore\n      0x20\n      add\n      0x00\n      keccak256\n        /* \"contracts/Medical-Record.sol\":772:801  PatientInfo[msg.sender].state */\n      0x00\n      add\n      0x00\n      swap1\n      sload\n      swap1\n      0x0100\n      exp\n      swap1\n      div\n      0xff\n      and\n        /* \"contracts/Medical-Record.sol\":772:809  PatientInfo[msg.sender].state == true */\n      iszero\n      iszero\n      eq\n        /* \"contracts/Medical-Record.sol\":764:837  require(PatientInfo[msg.sender].state == true,\"REGISTERED PATIENTS ONLY\") */\n      tag_65\n      jumpi\n      mload(0x40)\n      0x08c379a000000000000000000000000000000000000000000000000000000000\n      dup2\n      mstore\n      0x04\n      add\n      tag_66\n      swap1\n      jump(tag_51)\n    tag_66:\n      mload(0x40)\n      dup1\n      swap2\n      sub\n      swap1\n      revert\n    tag_65:\n        /* \"contracts/Medical-Record.sol\":4431:4441  HealthInfo */\n      0x02\n        /* \"contracts/Medical-Record.sol\":4431:4446  HealthInfo[_dr] */\n      0x00\n        /* \"contracts/Medical-Record.sol\":4442:4445  _dr */\n      dup9\n        /* \"contracts/Medical-Record.sol\":4431:4446  HealthInfo[_dr] */\n      0xffffffffffffffffffffffffffffffffffffffff\n      and\n      0xffffffffffffffffffffffffffffffffffffffff\n      and\n      dup2\n      mstore\n      0x20\n      add\n      swap1\n      dup2\n      mstore\n      0x20\n      add\n      0x00\n      keccak256\n        /* \"contracts/Medical-Record.sol\":4431:4458  HealthInfo[_dr][msg.sender] */\n      0x00\n        /* \"contracts/Medical-Record.sol\":4447:4457  msg.sender */\n      caller\n        /* \"contracts/Medical-Record.sol\":4431:4458  HealthInfo[_dr][msg.sender] */\n      0xffffffffffffffffffffffffffffffffffffffff\n      and\n      0xffffffffffffffffffffffffffffffffffffffff\n      and\n      dup2\n      mstore\n      0x20\n      add\n      swap1\n      dup2\n      mstore\n      0x20\n      add\n      0x00\n      keccak256\n        /* \"contracts/Medical-Record.sol\":4431:4460  HealthInfo[_dr][msg.sender].d */\n      0x00\n      add\n        /* \"contracts/Medical-Record.sol\":4431:4467  HealthInfo[_dr][msg.sender].d.d_Name */\n      0x01\n      add\n        /* \"contracts/Medical-Record.sol\":4421:4467  _drName = HealthInfo[_dr][msg.sender].d.d_Name */\n      dup1\n      sload\n      0x01\n      dup2\n      0x01\n      and\n      iszero\n      0x0100\n      mul\n      sub\n      and\n      0x02\n      swap1\n      div\n      dup1\n      0x1f\n      add\n      0x20\n      dup1\n      swap2\n      div\n      mul\n      0x20\n      add\n      mload(0x40)\n      swap1\n      dup2\n      add\n      0x40\n      mstore\n      dup1\n      swap3\n      swap2\n      swap1\n      dup2\n      dup2\n      mstore\n      0x20\n      add\n      dup3\n      dup1\n      sload\n      0x01\n      dup2\n      0x01\n      and\n      iszero\n      0x0100\n      mul\n      sub\n      and\n      0x02\n      swap1\n      div\n      dup1\n      iszero\n      tag_68\n      jumpi\n      dup1\n      0x1f\n      lt\n      tag_69\n      jumpi\n      0x0100\n      dup1\n      dup4\n      sload\n      div\n      mul\n      dup4\n      mstore\n      swap2\n      0x20\n      add\n      swap2\n      jump(tag_68)\n    tag_69:\n      dup3\n      add\n      swap2\n      swap1\n      0x00\n      mstore\n      keccak256(0x00, 0x20)\n      swap1\n    tag_70:\n      dup2\n      sload\n      dup2\n      mstore\n      swap1\n      0x01\n      add\n      swap1\n      0x20\n      add\n      dup1\n      dup4\n      gt\n      tag_70\n      jumpi\n      dup3\n      swap1\n      sub\n      0x1f\n      and\n      dup3\n      add\n      swap2\n    tag_68:\n      pop\n      pop\n      pop\n      pop\n      pop\n      swap6\n      pop\n        /* \"contracts/Medical-Record.sol\":4485:4495  HealthInfo */\n      0x02\n        /* \"contracts/Medical-Record.sol\":4485:4500  HealthInfo[_dr] */\n      0x00\n        /* \"contracts/Medical-Record.sol\":4496:4499  _dr */\n      dup9\n        /* \"contracts/Medical-Record.sol\":4485:4500  HealthInfo[_dr] */\n      0xffffffffffffffffffffffffffffffffffffffff\n      and\n      0xffffffffffffffffffffffffffffffffffffffff\n      and\n      dup2\n      mstore\n      0x20\n      add\n      swap1\n      dup2\n      mstore\n      0x20\n      add\n      0x00\n      keccak256\n        /* \"contracts/Medical-Record.sol\":4485:4512  HealthInfo[_dr][msg.sender] */\n      0x00\n        /* \"contracts/Medical-Record.sol\":4501:4511  msg.sender */\n      caller\n        /* \"contracts/Medical-Record.sol\":4485:4512  HealthInfo[_dr][msg.sender] */\n      0xffffffffffffffffffffffffffffffffffffffff\n      and\n      0xffffffffffffffffffffffffffffffffffffffff\n      and\n      dup2\n      mstore\n      0x20\n      add\n      swap1\n      dup2\n      mstore\n      0x20\n      add\n      0x00\n      keccak256\n        /* \"contracts/Medical-Record.sol\":4485:4514  HealthInfo[_dr][msg.sender].d */\n      0x00\n      add\n        /* \"contracts/Medical-Record.sol\":4485:4520  HealthInfo[_dr][msg.sender].d.dr_Id */\n      0x00\n      add\n      0x01\n      swap1\n      sload\n      swap1\n      0x0100\n      exp\n      swap1\n      div\n      0xffffffffffffffffffffffffffffffffffffffff\n      and\n        /* \"contracts/Medical-Record.sol\":4477:4520  _drId = HealthInfo[_dr][msg.sender].d.dr_Id */\n      swap5\n      pop\n        /* \"contracts/Medical-Record.sol\":4540:4550  HealthInfo */\n      0x02\n        /* \"contracts/Medical-Record.sol\":4540:4555  HealthInfo[_dr] */\n      0x00\n        /* \"contracts/Medical-Record.sol\":4551:4554  _dr */\n      dup9\n        /* \"contracts/Medical-Record.sol\":4540:4555  HealthInfo[_dr] */\n      0xffffffffffffffffffffffffffffffffffffffff\n      and\n      0xffffffffffffffffffffffffffffffffffffffff\n      and\n      dup2\n      mstore\n      0x20\n      add\n      swap1\n      dup2\n      mstore\n      0x20\n      add\n      0x00\n      keccak256\n        /* \"contracts/Medical-Record.sol\":4540:4567  HealthInfo[_dr][msg.sender] */\n      0x00\n        /* \"contracts/Medical-Record.sol\":4556:4566  msg.sender */\n      caller\n        /* \"contracts/Medical-Record.sol\":4540:4567  HealthInfo[_dr][msg.sender] */\n      0xffffffffffffffffffffffffffffffffffffffff\n      and\n      0xffffffffffffffffffffffffffffffffffffffff\n      and\n      dup2\n      mstore\n      0x20\n      add\n      swap1\n      dup2\n      mstore\n      0x20\n      add\n      0x00\n      keccak256\n        /* \"contracts/Medical-Record.sol\":4540:4569  HealthInfo[_dr][msg.sender].p */\n      0x02\n      add\n        /* \"contracts/Medical-Record.sol\":4540:4577  HealthInfo[_dr][msg.sender].p.pa_Name */\n      0x01\n      add\n        /* \"contracts/Medical-Record.sol\":4530:4577  _paName = HealthInfo[_dr][msg.sender].p.pa_Name */\n      dup1\n      sload\n      0x01\n      dup2\n      0x01\n      and\n      iszero\n      0x0100\n      mul\n      sub\n      and\n      0x02\n      swap1\n      div\n      dup1\n      0x1f\n      add\n      0x20\n      dup1\n      swap2\n      div\n      mul\n      0x20\n      add\n      mload(0x40)\n      swap1\n      dup2\n      add\n      0x40\n      mstore\n      dup1\n      swap3\n      swap2\n      swap1\n      dup2\n      dup2\n      mstore\n      0x20\n      add\n      dup3\n      dup1\n      sload\n      0x01\n      dup2\n      0x01\n      and\n      iszero\n      0x0100\n      mul\n      sub\n      and\n      0x02\n      swap1\n      div\n      dup1\n      iszero\n      tag_71\n      jumpi\n      dup1\n      0x1f\n      lt\n      tag_72\n      jumpi\n      0x0100\n      dup1\n      dup4\n      sload\n      div\n      mul\n      dup4\n      mstore\n      swap2\n      0x20\n      add\n      swap2\n      jump(tag_71)\n    tag_72:\n      dup3\n      add\n      swap2\n      swap1\n      0x00\n      mstore\n      keccak256(0x00, 0x20)\n      swap1\n    tag_73:\n      dup2\n      sload\n      dup2\n      mstore\n      swap1\n      0x01\n      add\n      swap1\n      0x20\n      add\n      dup1\n      dup4\n      gt\n      tag_73\n      jumpi\n      dup3\n      swap1\n      sub\n      0x1f\n      and\n      dup3\n      add\n      swap2\n    tag_71:\n      pop\n      pop\n      pop\n      pop\n      pop\n      swap4\n      pop\n        /* \"contracts/Medical-Record.sol\":4595:4605  HealthInfo */\n      0x02\n        /* \"contracts/Medical-Record.sol\":4595:4610  HealthInfo[_dr] */\n      0x00\n        /* \"contracts/Medical-Record.sol\":4606:4609  _dr */\n      dup9\n        /* \"contracts/Medical-Record.sol\":4595:4610  HealthInfo[_dr] */\n      0xffffffffffffffffffffffffffffffffffffffff\n      and\n      0xffffffffffffffffffffffffffffffffffffffff\n      and\n      dup2\n      mstore\n      0x20\n      add\n      swap1\n      dup2\n      mstore\n      0x20\n      add\n      0x00\n      keccak256\n        /* \"contracts/Medical-Record.sol\":4595:4622  HealthInfo[_dr][msg.sender] */\n      0x00\n        /* \"contracts/Medical-Record.sol\":4611:4621  msg.sender */\n      caller\n        /* \"contracts/Medical-Record.sol\":4595:4622  HealthInfo[_dr][msg.sender] */\n      0xffffffffffffffffffffffffffffffffffffffff\n      and\n      0xffffffffffffffffffffffffffffffffffffffff\n      and\n      dup2\n      mstore\n      0x20\n      add\n      swap1\n      dup2\n      mstore\n      0x20\n      add\n      0x00\n      keccak256\n        /* \"contracts/Medical-Record.sol\":4595:4624  HealthInfo[_dr][msg.sender].p */\n      0x02\n      add\n        /* \"contracts/Medical-Record.sol\":4595:4630  HealthInfo[_dr][msg.sender].p.pa_Id */\n      0x00\n      add\n      0x01\n      swap1\n      sload\n      swap1\n      0x0100\n      exp\n      swap1\n      div\n      0xffffffffffffffffffffffffffffffffffffffff\n      and\n        /* \"contracts/Medical-Record.sol\":4587:4630  _paId = HealthInfo[_dr][msg.sender].p.pa_Id */\n      swap3\n      pop\n        /* \"contracts/Medical-Record.sol\":4656:4666  HealthInfo */\n      0x02\n        /* \"contracts/Medical-Record.sol\":4656:4671  HealthInfo[_dr] */\n      0x00\n        /* \"contracts/Medical-Record.sol\":4667:4670  _dr */\n      dup9\n        /* \"contracts/Medical-Record.sol\":4656:4671  HealthInfo[_dr] */\n      0xffffffffffffffffffffffffffffffffffffffff\n      and\n      0xffffffffffffffffffffffffffffffffffffffff\n      and\n      dup2\n      mstore\n      0x20\n      add\n      swap1\n      dup2\n      mstore\n      0x20\n      add\n      0x00\n      keccak256\n        /* \"contracts/Medical-Record.sol\":4656:4683  HealthInfo[_dr][msg.sender] */\n      0x00\n        /* \"contracts/Medical-Record.sol\":4672:4682  msg.sender */\n      caller\n        /* \"contracts/Medical-Record.sol\":4656:4683  HealthInfo[_dr][msg.sender] */\n      0xffffffffffffffffffffffffffffffffffffffff\n      and\n      0xffffffffffffffffffffffffffffffffffffffff\n      and\n      dup2\n      mstore\n      0x20\n      add\n      swap1\n      dup2\n      mstore\n      0x20\n      add\n      0x00\n      keccak256\n        /* \"contracts/Medical-Record.sol\":4656:4687  HealthInfo[_dr][msg.sender].pre */\n      0x05\n      add\n        /* \"contracts/Medical-Record.sol\":4656:4700  HealthInfo[_dr][msg.sender].pre.prescription */\n      0x00\n      add\n        /* \"contracts/Medical-Record.sol\":4640:4700  _prescription = HealthInfo[_dr][msg.sender].pre.prescription */\n      dup1\n      sload\n      0x01\n      dup2\n      0x01\n      and\n      iszero\n      0x0100\n      mul\n      sub\n      and\n      0x02\n      swap1\n      div\n      dup1\n      0x1f\n      add\n      0x20\n      dup1\n      swap2\n      div\n      mul\n      0x20\n      add\n      mload(0x40)\n      swap1\n      dup2\n      add\n      0x40\n      mstore\n      dup1\n      swap3\n      swap2\n      swap1\n      dup2\n      dup2\n      mstore\n      0x20\n      add\n      dup3\n      dup1\n      sload\n      0x01\n      dup2\n      0x01\n      and\n      iszero\n      0x0100\n      mul\n      sub\n      and\n      0x02\n      swap1\n      div\n      dup1\n      iszero\n      tag_74\n      jumpi\n      dup1\n      0x1f\n      lt\n      tag_75\n      jumpi\n      0x0100\n      dup1\n      dup4\n      sload\n      div\n      mul\n      dup4\n      mstore\n      swap2\n      0x20\n      add\n      swap2\n      jump(tag_74)\n    tag_75:\n      dup3\n      add\n      swap2\n      swap1\n      0x00\n      mstore\n      keccak256(0x00, 0x20)\n      swap1\n    tag_76:\n      dup2\n      sload\n      dup2\n      mstore\n      swap1\n      0x01\n      add\n      swap1\n      0x20\n      add\n      dup1\n      dup4\n      gt\n      tag_76\n      jumpi\n      dup3\n      swap1\n      sub\n      0x1f\n      and\n      dup3\n      add\n      swap2\n    tag_74:\n      pop\n      pop\n      pop\n      pop\n      pop\n      swap2\n      pop\n        /* \"contracts/Medical-Record.sol\":4717:4727  HealthInfo */\n      0x02\n        /* \"contracts/Medical-Record.sol\":4717:4732  HealthInfo[_dr] */\n      0x00\n        /* \"contracts/Medical-Record.sol\":4728:4731  _dr */\n      dup9\n        /* \"contracts/Medical-Record.sol\":4717:4732  HealthInfo[_dr] */\n      0xffffffffffffffffffffffffffffffffffffffff\n      and\n      0xffffffffffffffffffffffffffffffffffffffff\n      and\n      dup2\n      mstore\n      0x20\n      add\n      swap1\n      dup2\n      mstore\n      0x20\n      add\n      0x00\n      keccak256\n        /* \"contracts/Medical-Record.sol\":4717:4744  HealthInfo[_dr][msg.sender] */\n      0x00\n        /* \"contracts/Medical-Record.sol\":4733:4743  msg.sender */\n      caller\n        /* \"contracts/Medical-Record.sol\":4717:4744  HealthInfo[_dr][msg.sender] */\n      0xffffffffffffffffffffffffffffffffffffffff\n      and\n      0xffffffffffffffffffffffffffffffffffffffff\n      and\n      dup2\n      mstore\n      0x20\n      add\n      swap1\n      dup2\n      mstore\n      0x20\n      add\n      0x00\n      keccak256\n        /* \"contracts/Medical-Record.sol\":4717:4752  HealthInfo[_dr][msg.sender].records */\n      0x06\n      add\n        /* \"contracts/Medical-Record.sol\":4710:4752  _rec = HealthInfo[_dr][msg.sender].records */\n      dup1\n      sload\n      dup1\n      0x20\n      mul\n      0x20\n      add\n      mload(0x40)\n      swap1\n      dup2\n      add\n      0x40\n      mstore\n      dup1\n      swap3\n      swap2\n      swap1\n      dup2\n      dup2\n      mstore\n      0x20\n      add\n      0x00\n      swap1\n    tag_77:\n      dup3\n      dup3\n      lt\n      iszero\n      tag_78\n      jumpi\n      dup4\n      dup3\n      swap1\n      0x00\n      mstore\n      keccak256(0x00, 0x20)\n      add\n      dup1\n      sload\n      0x01\n      dup2\n      0x01\n      and\n      iszero\n      0x0100\n      mul\n      sub\n      and\n      0x02\n      swap1\n      div\n      dup1\n      0x1f\n      add\n      0x20\n      dup1\n      swap2\n      div\n      mul\n      0x20\n      add\n      mload(0x40)\n      swap1\n      dup2\n      add\n      0x40\n      mstore\n      dup1\n      swap3\n      swap2\n      swap1\n      dup2\n      dup2\n      mstore\n      0x20\n      add\n      dup3\n      dup1\n      sload\n      0x01\n      dup2\n      0x01\n      and\n      iszero\n      0x0100\n      mul\n      sub\n      and\n      0x02\n      swap1\n      div\n      dup1\n      iszero\n      tag_80\n      jumpi\n      dup1\n      0x1f\n      lt\n      tag_81\n      jumpi\n      0x0100\n      dup1\n      dup4\n      sload\n      div\n      mul\n      dup4\n      mstore\n      swap2\n      0x20\n      add\n      swap2\n      jump(tag_80)\n    tag_81:\n      dup3\n      add\n      swap2\n      swap1\n      0x00\n      mstore\n      keccak256(0x00, 0x20)\n      swap1\n    tag_82:\n      dup2\n      sload\n      dup2\n      mstore\n      swap1\n      0x01\n      add\n      swap1\n      0x20\n      add\n      dup1\n      dup4\n      gt\n      tag_82\n      jumpi\n      dup3\n      swap1\n      sub\n      0x1f\n      and\n      dup3\n      add\n      swap2\n    tag_80:\n      pop\n      pop\n      pop\n      pop\n      pop\n      dup2\n      mstore\n      0x20\n      add\n      swap1\n      0x01\n      add\n      swap1\n      jump(tag_77)\n    tag_78:\n      pop\n      pop\n      pop\n      pop\n      swap1\n      pop\n        /* \"contracts/Medical-Record.sol\":4213:4759  function getHealthRecords(address _dr) Only_Patients public view returns(string memory _drName, address _drId, string memory _paName, address _paId,string memory _prescription,string[] memory _rec) {... */\n      swap2\n      swap4\n      swap6\n      pop\n      swap2\n      swap4\n      swap6\n      jump\t// out\n        /* \"contracts/Medical-Record.sol\":1814:2015  function setDoctorDetails(bool _state,address _drId,string memory _name) public OnlyOwner {... */\n    tag_29:\n        /* \"contracts/Medical-Record.sol\":544:549  owner */\n      0x04\n      0x00\n      swap1\n      sload\n      swap1\n      0x0100\n      exp\n      swap1\n      div\n      0xffffffffffffffffffffffffffffffffffffffff\n      and\n        /* \"contracts/Medical-Record.sol\":530:549  msg.sender == owner */\n      0xffffffffffffffffffffffffffffffffffffffff\n      and\n        /* \"contracts/Medical-Record.sol\":530:540  msg.sender */\n      caller\n        /* \"contracts/Medical-Record.sol\":530:549  msg.sender == owner */\n      0xffffffffffffffffffffffffffffffffffffffff\n      and\n      eq\n        /* \"contracts/Medical-Record.sol\":522:574  require(msg.sender == owner,\"ONLY ADMIN IS ALLOWED\") */\n      tag_84\n      jumpi\n      mload(0x40)\n      0x08c379a000000000000000000000000000000000000000000000000000000000\n      dup2\n      mstore\n      0x04\n      add\n      tag_85\n      swap1\n      jump(tag_86)\n    tag_85:\n      mload(0x40)\n      dup1\n      swap2\n      sub\n      swap1\n      revert\n    tag_84:\n        /* \"contracts/Medical-Record.sol\":1934:1960  Doctor(_state,_drId,_name) */\n      mload(0x40)\n      dup1\n      0x60\n      add\n      0x40\n      mstore\n      dup1\n        /* \"contracts/Medical-Record.sol\":1941:1947  _state */\n      dup5\n        /* \"contracts/Medical-Record.sol\":1934:1960  Doctor(_state,_drId,_name) */\n      iszero\n      iszero\n      dup2\n      mstore\n      0x20\n      add\n        /* \"contracts/Medical-Record.sol\":1948:1953  _drId */\n      dup4\n        /* \"contracts/Medical-Record.sol\":1934:1960  Doctor(_state,_drId,_name) */\n      0xffffffffffffffffffffffffffffffffffffffff\n      and\n      dup2\n      mstore\n      0x20\n      add\n        /* \"contracts/Medical-Record.sol\":1954:1959  _name */\n      dup3\n        /* \"contracts/Medical-Record.sol\":1934:1960  Doctor(_state,_drId,_name) */\n      dup2\n      mstore\n      pop\n        /* \"contracts/Medical-Record.sol\":1914:1924  DoctorInfo */\n      0x00\n        /* \"contracts/Medical-Record.sol\":1914:1931  DoctorInfo[_drId] */\n      dup1\n        /* \"contracts/Medical-Record.sol\":1925:1930  _drId */\n      dup5\n        /* \"contracts/Medical-Record.sol\":1914:1931  DoctorInfo[_drId] */\n      0xffffffffffffffffffffffffffffffffffffffff\n      and\n      0xffffffffffffffffffffffffffffffffffffffff\n      and\n      dup2\n      mstore\n      0x20\n      add\n      swap1\n      dup2\n      mstore\n      0x20\n      add\n      0x00\n      keccak256\n        /* \"contracts/Medical-Record.sol\":1914:1960  DoctorInfo[_drId] = Doctor(_state,_drId,_name) */\n      0x00\n      dup3\n      add\n      mload\n      dup2\n      0x00\n      add\n      exp(0x0100, 0x00)\n      dup2\n      sload\n      dup2\n      0xff\n      mul\n      not\n      and\n      swap1\n      dup4\n      iszero\n      iszero\n      mul\n      or\n      swap1\n      sstore\n      pop\n      0x20\n      dup3\n      add\n      mload\n      dup2\n      0x00\n      add\n      exp(0x0100, 0x01)\n      dup2\n      sload\n      dup2\n      0xffffffffffffffffffffffffffffffffffffffff\n      mul\n      not\n      and\n      swap1\n      dup4\n      0xffffffffffffffffffffffffffffffffffffffff\n      and\n      mul\n      or\n      swap1\n      sstore\n      pop\n      0x40\n      dup3\n      add\n      mload\n      dup2\n      0x01\n      add\n      swap1\n      dup1\n      mload\n      swap1\n      0x20\n      add\n      swap1\n      tag_88\n      swap3\n      swap2\n      swap1\n      tag_61\n      jump\t// in\n    tag_88:\n      pop\n      swap1\n      pop\n      pop\n        /* \"contracts/Medical-Record.sol\":1975:2008  DrDetailsAdded(msg.sender, _drId) */\n      0x83c041d3aeb1dcb1f28cb15e20bdfee5ed1ca3740e487f9cab72e13eeb859505\n        /* \"contracts/Medical-Record.sol\":1990:2000  msg.sender */\n      caller\n        /* \"contracts/Medical-Record.sol\":2002:2007  _drId */\n      dup4\n        /* \"contracts/Medical-Record.sol\":1975:2008  DrDetailsAdded(msg.sender, _drId) */\n      mload(0x40)\n      tag_89\n      swap3\n      swap2\n      swap1\n      jump(tag_90)\n    tag_89:\n      mload(0x40)\n      dup1\n      swap2\n      sub\n      swap1\n      log1\n        /* \"contracts/Medical-Record.sol\":1814:2015  function setDoctorDetails(bool _state,address _drId,string memory _name) public OnlyOwner {... */\n      pop\n      pop\n      pop\n      jump\t// out\n        /* \"contracts/Medical-Record.sol\":2083:2324  function getDoctorDetails(address _Id) public OnlyOwner view returns(bool _state,address _drId,string memory _name){... */\n    tag_32:\n        /* \"contracts/Medical-Record.sol\":2152:2163  bool _state */\n      0x00\n        /* \"contracts/Medical-Record.sol\":2164:2177  address _drId */\n      dup1\n        /* \"contracts/Medical-Record.sol\":2178:2197  string memory _name */\n      0x60\n        /* \"contracts/Medical-Record.sol\":544:549  owner */\n      0x04\n      0x00\n      swap1\n      sload\n      swap1\n      0x0100\n      exp\n      swap1\n      div\n      0xffffffffffffffffffffffffffffffffffffffff\n      and\n        /* \"contracts/Medical-Record.sol\":530:549  msg.sender == owner */\n      0xffffffffffffffffffffffffffffffffffffffff\n      and\n        /* \"contracts/Medical-Record.sol\":530:540  msg.sender */\n      caller\n        /* \"contracts/Medical-Record.sol\":530:549  msg.sender == owner */\n      0xffffffffffffffffffffffffffffffffffffffff\n      and\n      eq\n        /* \"contracts/Medical-Record.sol\":522:574  require(msg.sender == owner,\"ONLY ADMIN IS ALLOWED\") */\n      tag_92\n      jumpi\n      mload(0x40)\n      0x08c379a000000000000000000000000000000000000000000000000000000000\n      dup2\n      mstore\n      0x04\n      add\n      tag_93\n      swap1\n      jump(tag_86)\n    tag_93:\n      mload(0x40)\n      dup1\n      swap2\n      sub\n      swap1\n      revert\n    tag_92:\n        /* \"contracts/Medical-Record.sol\":2217:2227  DoctorInfo */\n      0x00\n        /* \"contracts/Medical-Record.sol\":2217:2232  DoctorInfo[_Id] */\n      dup1\n        /* \"contracts/Medical-Record.sol\":2228:2231  _Id */\n      dup6\n        /* \"contracts/Medical-Record.sol\":2217:2232  DoctorInfo[_Id] */\n      0xffffffffffffffffffffffffffffffffffffffff\n      and\n      0xffffffffffffffffffffffffffffffffffffffff\n      and\n      dup2\n      mstore\n      0x20\n      add\n      swap1\n      dup2\n      mstore\n      0x20\n      add\n      0x00\n      keccak256\n        /* \"contracts/Medical-Record.sol\":2217:2238  DoctorInfo[_Id].state */\n      0x00\n      add\n      0x00\n      swap1\n      sload\n      swap1\n      0x0100\n      exp\n      swap1\n      div\n      0xff\n      and\n        /* \"contracts/Medical-Record.sol\":2208:2238  _state = DoctorInfo[_Id].state */\n      swap3\n      pop\n        /* \"contracts/Medical-Record.sol\":2256:2266  DoctorInfo */\n      0x00\n        /* \"contracts/Medical-Record.sol\":2256:2271  DoctorInfo[_Id] */\n      dup1\n        /* \"contracts/Medical-Record.sol\":2267:2270  _Id */\n      dup6\n        /* \"contracts/Medical-Record.sol\":2256:2271  DoctorInfo[_Id] */\n      0xffffffffffffffffffffffffffffffffffffffff\n      and\n      0xffffffffffffffffffffffffffffffffffffffff\n      and\n      dup2\n      mstore\n      0x20\n      add\n      swap1\n      dup2\n      mstore\n      0x20\n      add\n      0x00\n      keccak256\n        /* \"contracts/Medical-Record.sol\":2256:2277  DoctorInfo[_Id].dr_Id */\n      0x00\n      add\n      0x01\n      swap1\n      sload\n      swap1\n      0x0100\n      exp\n      swap1\n      div\n      0xffffffffffffffffffffffffffffffffffffffff\n      and\n        /* \"contracts/Medical-Record.sol\":2248:2277  _drId = DoctorInfo[_Id].dr_Id */\n      swap2\n      pop\n        /* \"contracts/Medical-Record.sol\":2295:2305  DoctorInfo */\n      0x00\n        /* \"contracts/Medical-Record.sol\":2295:2310  DoctorInfo[_Id] */\n      dup1\n        /* \"contracts/Medical-Record.sol\":2306:2309  _Id */\n      dup6\n        /* \"contracts/Medical-Record.sol\":2295:2310  DoctorInfo[_Id] */\n      0xffffffffffffffffffffffffffffffffffffffff\n      and\n      0xffffffffffffffffffffffffffffffffffffffff\n      and\n      dup2\n      mstore\n      0x20\n      add\n      swap1\n      dup2\n      mstore\n      0x20\n      add\n      0x00\n      keccak256\n        /* \"contracts/Medical-Record.sol\":2295:2317  DoctorInfo[_Id].d_Name */\n      0x01\n      add\n        /* \"contracts/Medical-Record.sol\":2287:2317  _name = DoctorInfo[_Id].d_Name */\n      dup1\n      sload\n      0x01\n      dup2\n      0x01\n      and\n      iszero\n      0x0100\n      mul\n      sub\n      and\n      0x02\n      swap1\n      div\n      dup1\n      0x1f\n      add\n      0x20\n      dup1\n      swap2\n      div\n      mul\n      0x20\n      add\n      mload(0x40)\n      swap1\n      dup2\n      add\n      0x40\n      mstore\n      dup1\n      swap3\n      swap2\n      swap1\n      dup2\n      dup2\n      mstore\n      0x20\n      add\n      dup3\n      dup1\n      sload\n      0x01\n      dup2\n      0x01\n      and\n      iszero\n      0x0100\n      mul\n      sub\n      and\n      0x02\n      swap1\n      div\n      dup1\n      iszero\n      tag_95\n      jumpi\n      dup1\n      0x1f\n      lt\n      tag_96\n      jumpi\n      0x0100\n      dup1\n      dup4\n      sload\n      div\n      mul\n      dup4\n      mstore\n      swap2\n      0x20\n      add\n      swap2\n      jump(tag_95)\n    tag_96:\n      dup3\n      add\n      swap2\n      swap1\n      0x00\n      mstore\n      keccak256(0x00, 0x20)\n      swap1\n    tag_97:\n      dup2\n      sload\n      dup2\n      mstore\n      swap1\n      0x01\n      add\n      swap1\n      0x20\n      add\n      dup1\n      dup4\n      gt\n      tag_97\n      jumpi\n      dup3\n      swap1\n      sub\n      0x1f\n      and\n      dup3\n      add\n      swap2\n    tag_95:\n      pop\n      pop\n      pop\n      pop\n      pop\n      swap1\n      pop\n        /* \"contracts/Medical-Record.sol\":2083:2324  function getDoctorDetails(address _Id) public OnlyOwner view returns(bool _state,address _drId,string memory _name){... */\n      swap2\n      swap4\n      swap1\n      swap3\n      pop\n      jump\t// out\n        /* \"contracts/Medical-Record.sol\":2426:3312  function setHealthRecordsDetails(string memory _paName, address _paId, string memory _prescription) public Only_Doctors{... */\n    tag_38:\n        /* \"contracts/Medical-Record.sol\":673:677  true */\n      0x01\n        /* \"contracts/Medical-Record.sol\":641:677  DoctorInfo[msg.sender].state == true */\n      iszero\n      iszero\n        /* \"contracts/Medical-Record.sol\":641:651  DoctorInfo */\n      0x00\n        /* \"contracts/Medical-Record.sol\":641:663  DoctorInfo[msg.sender] */\n      dup1\n        /* \"contracts/Medical-Record.sol\":652:662  msg.sender */\n      caller\n        /* \"contracts/Medical-Record.sol\":641:663  DoctorInfo[msg.sender] */\n      0xffffffffffffffffffffffffffffffffffffffff\n      and\n      0xffffffffffffffffffffffffffffffffffffffff\n      and\n      dup2\n      mstore\n      0x20\n      add\n      swap1\n      dup2\n      mstore\n      0x20\n      add\n      0x00\n      keccak256\n        /* \"contracts/Medical-Record.sol\":641:669  DoctorInfo[msg.sender].state */\n      0x00\n      add\n      0x00\n      swap1\n      sload\n      swap1\n      0x0100\n      exp\n      swap1\n      div\n      0xff\n      and\n        /* \"contracts/Medical-Record.sol\":641:677  DoctorInfo[msg.sender].state == true */\n      iszero\n      iszero\n      eq\n        /* \"contracts/Medical-Record.sol\":633:704  require(DoctorInfo[msg.sender].state == true,\"REGISTERED DOCTORS ONLY\") */\n      tag_99\n      jumpi\n      mload(0x40)\n      0x08c379a000000000000000000000000000000000000000000000000000000000\n      dup2\n      mstore\n      0x04\n      add\n      tag_100\n      swap1\n      jump(tag_58)\n    tag_100:\n      mload(0x40)\n      dup1\n      swap2\n      sub\n      swap1\n      revert\n    tag_99:\n        /* \"contracts/Medical-Record.sol\":2605:2615  DoctorInfo */\n      0x00\n        /* \"contracts/Medical-Record.sol\":2605:2627  DoctorInfo[msg.sender] */\n      dup1\n        /* \"contracts/Medical-Record.sol\":2616:2626  msg.sender */\n      caller\n        /* \"contracts/Medical-Record.sol\":2605:2627  DoctorInfo[msg.sender] */\n      0xffffffffffffffffffffffffffffffffffffffff\n      and\n      0xffffffffffffffffffffffffffffffffffffffff\n      and\n      dup2\n      mstore\n      0x20\n      add\n      swap1\n      dup2\n      mstore\n      0x20\n      add\n      0x00\n      keccak256\n        /* \"contracts/Medical-Record.sol\":2605:2634  DoctorInfo[msg.sender].d_Name */\n      0x01\n      add\n        /* \"contracts/Medical-Record.sol\":2564:2574  HealthInfo */\n      0x02\n        /* \"contracts/Medical-Record.sol\":2564:2586  HealthInfo[msg.sender] */\n      0x00\n        /* \"contracts/Medical-Record.sol\":2575:2585  msg.sender */\n      caller\n        /* \"contracts/Medical-Record.sol\":2564:2586  HealthInfo[msg.sender] */\n      0xffffffffffffffffffffffffffffffffffffffff\n      and\n      0xffffffffffffffffffffffffffffffffffffffff\n      and\n      dup2\n      mstore\n      0x20\n      add\n      swap1\n      dup2\n      mstore\n      0x20\n      add\n      0x00\n      keccak256\n        /* \"contracts/Medical-Record.sol\":2564:2593  HealthInfo[msg.sender][_paId] */\n      0x00\n        /* \"contracts/Medical-Record.sol\":2587:2592  _paId */\n      dup5\n        /* \"contracts/Medical-Record.sol\":2564:2593  HealthInfo[msg.sender][_paId] */\n      0xffffffffffffffffffffffffffffffffffffffff\n      and\n      0xffffffffffffffffffffffffffffffffffffffff\n      and\n      dup2\n      mstore\n      0x20\n      add\n      swap1\n      dup2\n      mstore\n      0x20\n      add\n      0x00\n      keccak256\n        /* \"contracts/Medical-Record.sol\":2564:2595  HealthInfo[msg.sender][_paId].d */\n      0x00\n      add\n        /* \"contracts/Medical-Record.sol\":2564:2602  HealthInfo[msg.sender][_paId].d.d_Name */\n      0x01\n      add\n        /* \"contracts/Medical-Record.sol\":2564:2634  HealthInfo[msg.sender][_paId].d.d_Name = DoctorInfo[msg.sender].d_Name */\n      swap1\n      dup1\n      sload\n      0x01\n      dup2\n      0x01\n      and\n      iszero\n      0x0100\n      mul\n      sub\n      and\n      0x02\n      swap1\n      div\n      tag_102\n      swap3\n      swap2\n      swap1\n      tag_103\n      jump\t// in\n    tag_102:\n      pop\n        /* \"contracts/Medical-Record.sol\":2685:2695  DoctorInfo */\n      0x00\n        /* \"contracts/Medical-Record.sol\":2685:2707  DoctorInfo[msg.sender] */\n      dup1\n        /* \"contracts/Medical-Record.sol\":2696:2706  msg.sender */\n      caller\n        /* \"contracts/Medical-Record.sol\":2685:2707  DoctorInfo[msg.sender] */\n      0xffffffffffffffffffffffffffffffffffffffff\n      and\n      0xffffffffffffffffffffffffffffffffffffffff\n      and\n      dup2\n      mstore\n      0x20\n      add\n      swap1\n      dup2\n      mstore\n      0x20\n      add\n      0x00\n      keccak256\n        /* \"contracts/Medical-Record.sol\":2685:2713  DoctorInfo[msg.sender].dr_Id */\n      0x00\n      add\n      0x01\n      swap1\n      sload\n      swap1\n      0x0100\n      exp\n      swap1\n      div\n      0xffffffffffffffffffffffffffffffffffffffff\n      and\n        /* \"contracts/Medical-Record.sol\":2645:2655  HealthInfo */\n      0x02\n        /* \"contracts/Medical-Record.sol\":2645:2667  HealthInfo[msg.sender] */\n      0x00\n        /* \"contracts/Medical-Record.sol\":2656:2666  msg.sender */\n      caller\n        /* \"contracts/Medical-Record.sol\":2645:2667  HealthInfo[msg.sender] */\n      0xffffffffffffffffffffffffffffffffffffffff\n      and\n      0xffffffffffffffffffffffffffffffffffffffff\n      and\n      dup2\n      mstore\n      0x20\n      add\n      swap1\n      dup2\n      mstore\n      0x20\n      add\n      0x00\n      keccak256\n        /* \"contracts/Medical-Record.sol\":2645:2674  HealthInfo[msg.sender][_paId] */\n      0x00\n        /* \"contracts/Medical-Record.sol\":2668:2673  _paId */\n      dup5\n        /* \"contracts/Medical-Record.sol\":2645:2674  HealthInfo[msg.sender][_paId] */\n      0xffffffffffffffffffffffffffffffffffffffff\n      and\n      0xffffffffffffffffffffffffffffffffffffffff\n      and\n      dup2\n      mstore\n      0x20\n      add\n      swap1\n      dup2\n      mstore\n      0x20\n      add\n      0x00\n      keccak256\n        /* \"contracts/Medical-Record.sol\":2645:2676  HealthInfo[msg.sender][_paId].d */\n      0x00\n      add\n        /* \"contracts/Medical-Record.sol\":2645:2682  HealthInfo[msg.sender][_paId].d.dr_Id */\n      0x00\n      add\n      0x01\n        /* \"contracts/Medical-Record.sol\":2645:2713  HealthInfo[msg.sender][_paId].d.dr_Id = DoctorInfo[msg.sender].dr_Id */\n      0x0100\n      exp\n      dup2\n      sload\n      dup2\n      0xffffffffffffffffffffffffffffffffffffffff\n      mul\n      not\n      and\n      swap1\n      dup4\n      0xffffffffffffffffffffffffffffffffffffffff\n      and\n      mul\n      or\n      swap1\n      sstore\n      pop\n        /* \"contracts/Medical-Record.sol\":2763:2767  true */\n      0x01\n        /* \"contracts/Medical-Record.sol\":2723:2733  HealthInfo */\n      0x02\n        /* \"contracts/Medical-Record.sol\":2723:2745  HealthInfo[msg.sender] */\n      0x00\n        /* \"contracts/Medical-Record.sol\":2734:2744  msg.sender */\n      caller\n        /* \"contracts/Medical-Record.sol\":2723:2745  HealthInfo[msg.sender] */\n      0xffffffffffffffffffffffffffffffffffffffff\n      and\n      0xffffffffffffffffffffffffffffffffffffffff\n      and\n      dup2\n      mstore\n      0x20\n      add\n      swap1\n      dup2\n      mstore\n      0x20\n      add\n      0x00\n      keccak256\n        /* \"contracts/Medical-Record.sol\":2723:2752  HealthInfo[msg.sender][_paId] */\n      0x00\n        /* \"contracts/Medical-Record.sol\":2746:2751  _paId */\n      dup5\n        /* \"contracts/Medical-Record.sol\":2723:2752  HealthInfo[msg.sender][_paId] */\n      0xffffffffffffffffffffffffffffffffffffffff\n      and\n      0xffffffffffffffffffffffffffffffffffffffff\n      and\n      dup2\n      mstore\n      0x20\n      add\n      swap1\n      dup2\n      mstore\n      0x20\n      add\n      0x00\n      keccak256\n        /* \"contracts/Medical-Record.sol\":2723:2754  HealthInfo[msg.sender][_paId].p */\n      0x02\n      add\n        /* \"contracts/Medical-Record.sol\":2723:2760  HealthInfo[msg.sender][_paId].p.state */\n      0x00\n      add\n      0x00\n        /* \"contracts/Medical-Record.sol\":2723:2767  HealthInfo[msg.sender][_paId].p.state = true */\n      0x0100\n      exp\n      dup2\n      sload\n      dup2\n      0xff\n      mul\n      not\n      and\n      swap1\n      dup4\n      iszero\n      iszero\n      mul\n      or\n      swap1\n      sstore\n      pop\n        /* \"contracts/Medical-Record.sol\":2817:2822  _paId */\n      dup2\n        /* \"contracts/Medical-Record.sol\":2777:2787  HealthInfo */\n      0x02\n        /* \"contracts/Medical-Record.sol\":2777:2799  HealthInfo[msg.sender] */\n      0x00\n        /* \"contracts/Medical-Record.sol\":2788:2798  msg.sender */\n      caller\n        /* \"contracts/Medical-Record.sol\":2777:2799  HealthInfo[msg.sender] */\n      0xffffffffffffffffffffffffffffffffffffffff\n      and\n      0xffffffffffffffffffffffffffffffffffffffff\n      and\n      dup2\n      mstore\n      0x20\n      add\n      swap1\n      dup2\n      mstore\n      0x20\n      add\n      0x00\n      keccak256\n        /* \"contracts/Medical-Record.sol\":2777:2806  HealthInfo[msg.sender][_paId] */\n      0x00\n        /* \"contracts/Medical-Record.sol\":2800:2805  _paId */\n      dup5\n        /* \"contracts/Medical-Record.sol\":2777:2806  HealthInfo[msg.sender][_paId] */\n      0xffffffffffffffffffffffffffffffffffffffff\n      and\n      0xffffffffffffffffffffffffffffffffffffffff\n      and\n      dup2\n      mstore\n      0x20\n      add\n      swap1\n      dup2\n      mstore\n      0x20\n      add\n      0x00\n      keccak256\n        /* \"contracts/Medical-Record.sol\":2777:2808  HealthInfo[msg.sender][_paId].p */\n      0x02\n      add\n        /* \"contracts/Medical-Record.sol\":2777:2814  HealthInfo[msg.sender][_paId].p.pa_Id */\n      0x00\n      add\n      0x01\n        /* \"contracts/Medical-Record.sol\":2777:2822  HealthInfo[msg.sender][_paId].p.pa_Id = _paId */\n      0x0100\n      exp\n      dup2\n      sload\n      dup2\n      0xffffffffffffffffffffffffffffffffffffffff\n      mul\n      not\n      and\n      swap1\n      dup4\n      0xffffffffffffffffffffffffffffffffffffffff\n      and\n      mul\n      or\n      swap1\n      sstore\n      pop\n        /* \"contracts/Medical-Record.sol\":2874:2881  _paName */\n      dup3\n        /* \"contracts/Medical-Record.sol\":2832:2842  HealthInfo */\n      0x02\n        /* \"contracts/Medical-Record.sol\":2832:2854  HealthInfo[msg.sender] */\n      0x00\n        /* \"contracts/Medical-Record.sol\":2843:2853  msg.sender */\n      caller\n        /* \"contracts/Medical-Record.sol\":2832:2854  HealthInfo[msg.sender] */\n      0xffffffffffffffffffffffffffffffffffffffff\n      and\n      0xffffffffffffffffffffffffffffffffffffffff\n      and\n      dup2\n      mstore\n      0x20\n      add\n      swap1\n      dup2\n      mstore\n      0x20\n      add\n      0x00\n      keccak256\n        /* \"contracts/Medical-Record.sol\":2832:2861  HealthInfo[msg.sender][_paId] */\n      0x00\n        /* \"contracts/Medical-Record.sol\":2855:2860  _paId */\n      dup5\n        /* \"contracts/Medical-Record.sol\":2832:2861  HealthInfo[msg.sender][_paId] */\n      0xffffffffffffffffffffffffffffffffffffffff\n      and\n      0xffffffffffffffffffffffffffffffffffffffff\n      and\n      dup2\n      mstore\n      0x20\n      add\n      swap1\n      dup2\n      mstore\n      0x20\n      add\n      0x00\n      keccak256\n        /* \"contracts/Medical-Record.sol\":2832:2863  HealthInfo[msg.sender][_paId].p */\n      0x02\n      add\n        /* \"contracts/Medical-Record.sol\":2832:2871  HealthInfo[msg.sender][_paId].p.pa_Name */\n      0x01\n      add\n        /* \"contracts/Medical-Record.sol\":2832:2881  HealthInfo[msg.sender][_paId].p.pa_Name = _paName */\n      swap1\n      dup1\n      mload\n      swap1\n      0x20\n      add\n      swap1\n      tag_104\n      swap3\n      swap2\n      swap1\n      tag_105\n      jump\t// in\n    tag_104:\n      pop\n        /* \"contracts/Medical-Record.sol\":2940:2953  _prescription */\n      dup1\n        /* \"contracts/Medical-Record.sol\":2891:2901  HealthInfo */\n      0x02\n        /* \"contracts/Medical-Record.sol\":2891:2913  HealthInfo[msg.sender] */\n      0x00\n        /* \"contracts/Medical-Record.sol\":2902:2912  msg.sender */\n      caller\n        /* \"contracts/Medical-Record.sol\":2891:2913  HealthInfo[msg.sender] */\n      0xffffffffffffffffffffffffffffffffffffffff\n      and\n      0xffffffffffffffffffffffffffffffffffffffff\n      and\n      dup2\n      mstore\n      0x20\n      add\n      swap1\n      dup2\n      mstore\n      0x20\n      add\n      0x00\n      keccak256\n        /* \"contracts/Medical-Record.sol\":2891:2920  HealthInfo[msg.sender][_paId] */\n      0x00\n        /* \"contracts/Medical-Record.sol\":2914:2919  _paId */\n      dup5\n        /* \"contracts/Medical-Record.sol\":2891:2920  HealthInfo[msg.sender][_paId] */\n      0xffffffffffffffffffffffffffffffffffffffff\n      and\n      0xffffffffffffffffffffffffffffffffffffffff\n      and\n      dup2\n      mstore\n      0x20\n      add\n      swap1\n      dup2\n      mstore\n      0x20\n      add\n      0x00\n      keccak256\n        /* \"contracts/Medical-Record.sol\":2891:2924  HealthInfo[msg.sender][_paId].pre */\n      0x05\n      add\n        /* \"contracts/Medical-Record.sol\":2891:2937  HealthInfo[msg.sender][_paId].pre.prescription */\n      0x00\n      add\n        /* \"contracts/Medical-Record.sol\":2891:2953  HealthInfo[msg.sender][_paId].pre.prescription = _prescription */\n      swap1\n      dup1\n      mload\n      swap1\n      0x20\n      add\n      swap1\n      tag_106\n      swap3\n      swap2\n      swap1\n      tag_105\n      jump\t// in\n    tag_106:\n      pop\n        /* \"contracts/Medical-Record.sol\":2963:2973  HealthInfo */\n      0x02\n        /* \"contracts/Medical-Record.sol\":2963:2985  HealthInfo[msg.sender] */\n      0x00\n        /* \"contracts/Medical-Record.sol\":2974:2984  msg.sender */\n      caller\n        /* \"contracts/Medical-Record.sol\":2963:2985  HealthInfo[msg.sender] */\n      0xffffffffffffffffffffffffffffffffffffffff\n      and\n      0xffffffffffffffffffffffffffffffffffffffff\n      and\n      dup2\n      mstore\n      0x20\n      add\n      swap1\n      dup2\n      mstore\n      0x20\n      add\n      0x00\n      keccak256\n        /* \"contracts/Medical-Record.sol\":2963:2992  HealthInfo[msg.sender][_paId] */\n      0x00\n        /* \"contracts/Medical-Record.sol\":2986:2991  _paId */\n      dup4\n        /* \"contracts/Medical-Record.sol\":2963:2992  HealthInfo[msg.sender][_paId] */\n      0xffffffffffffffffffffffffffffffffffffffff\n      and\n      0xffffffffffffffffffffffffffffffffffffffff\n      and\n      dup2\n      mstore\n      0x20\n      add\n      swap1\n      dup2\n      mstore\n      0x20\n      add\n      0x00\n      keccak256\n        /* \"contracts/Medical-Record.sol\":2963:3000  HealthInfo[msg.sender][_paId].records */\n      0x06\n      add\n        /* \"contracts/Medical-Record.sol\":3006:3019  _prescription */\n      dup2\n        /* \"contracts/Medical-Record.sol\":2963:3020  HealthInfo[msg.sender][_paId].records.push(_prescription) */\n      swap1\n      dup1\n        /* \"--CODEGEN--\":39:40   */\n      0x01\n        /* \"--CODEGEN--\":33:36   */\n      dup2\n        /* \"--CODEGEN--\":27:37   */\n      sload\n        /* \"--CODEGEN--\":23:41   */\n      add\n        /* \"--CODEGEN--\":57:67   */\n      dup1\n        /* \"--CODEGEN--\":52:55   */\n      dup3\n        /* \"--CODEGEN--\":45:68   */\n      sstore\n        /* \"--CODEGEN--\":79:89   */\n      dup1\n        /* \"--CODEGEN--\":72:89   */\n      swap2\n      pop\n        /* \"--CODEGEN--\":0:93   */\n      pop\n        /* \"contracts/Medical-Record.sol\":2963:3020  HealthInfo[msg.sender][_paId].records.push(_prescription) */\n      swap1\n      0x01\n      dup3\n      sub\n      swap1\n      0x00\n      mstore\n      keccak256(0x00, 0x20)\n      add\n      0x00\n      swap1\n      swap2\n      swap3\n      swap1\n      swap2\n      swap1\n      swap2\n      pop\n      swap1\n      dup1\n      mload\n      swap1\n      0x20\n      add\n      swap1\n      tag_108\n      swap3\n      swap2\n      swap1\n      tag_105\n      jump\t// in\n    tag_108:\n      pop\n      pop\n        /* \"contracts/Medical-Record.sol\":3030:3041  PatientInfo */\n      0x01\n        /* \"contracts/Medical-Record.sol\":3030:3048  PatientInfo[_paId] */\n      0x00\n        /* \"contracts/Medical-Record.sol\":3042:3047  _paId */\n      dup4\n        /* \"contracts/Medical-Record.sol\":3030:3048  PatientInfo[_paId] */\n      0xffffffffffffffffffffffffffffffffffffffff\n      and\n      0xffffffffffffffffffffffffffffffffffffffff\n      and\n      dup2\n      mstore\n      0x20\n      add\n      swap1\n      dup2\n      mstore\n      0x20\n      add\n      0x00\n      keccak256\n        /* \"contracts/Medical-Record.sol\":3030:3059  PatientInfo[_paId].pa_Records */\n      0x02\n      add\n        /* \"contracts/Medical-Record.sol\":3065:3078  _prescription */\n      dup2\n        /* \"contracts/Medical-Record.sol\":3030:3079  PatientInfo[_paId].pa_Records.push(_prescription) */\n      swap1\n      dup1\n        /* \"--CODEGEN--\":39:40   */\n      0x01\n        /* \"--CODEGEN--\":33:36   */\n      dup2\n        /* \"--CODEGEN--\":27:37   */\n      sload\n        /* \"--CODEGEN--\":23:41   */\n      add\n        /* \"--CODEGEN--\":57:67   */\n      dup1\n        /* \"--CODEGEN--\":52:55   */\n      dup3\n        /* \"--CODEGEN--\":45:68   */\n      sstore\n        /* \"--CODEGEN--\":79:89   */\n      dup1\n        /* \"--CODEGEN--\":72:89   */\n      swap2\n      pop\n        /* \"--CODEGEN--\":0:93   */\n      pop\n        /* \"contracts/Medical-Record.sol\":3030:3079  PatientInfo[_paId].pa_Records.push(_prescription) */\n      swap1\n      0x01\n      dup3\n      sub\n      swap1\n      0x00\n      mstore\n      keccak256(0x00, 0x20)\n      add\n      0x00\n      swap1\n      swap2\n      swap3\n      swap1\n      swap2\n      swap1\n      swap2\n      pop\n      swap1\n      dup1\n      mload\n      swap1\n      0x20\n      add\n      swap1\n      tag_110\n      swap3\n      swap2\n      swap1\n      tag_105\n      jump\t// in\n    tag_110:\n      pop\n      pop\n        /* \"contracts/Medical-Record.sol\":3089:3253  setPatientDetails(HealthInfo[msg.sender][_paId].p.state,HealthInfo[msg.sender][_paId].p.pa_Id,HealthInfo[msg.sender][_paId].p.pa_Name,PatientInfo[_paId].pa_Records) */\n      tag_111\n        /* \"contracts/Medical-Record.sol\":3107:3117  HealthInfo */\n      0x02\n        /* \"contracts/Medical-Record.sol\":3107:3129  HealthInfo[msg.sender] */\n      0x00\n        /* \"contracts/Medical-Record.sol\":3118:3128  msg.sender */\n      caller\n        /* \"contracts/Medical-Record.sol\":3107:3129  HealthInfo[msg.sender] */\n      0xffffffffffffffffffffffffffffffffffffffff\n      and\n      0xffffffffffffffffffffffffffffffffffffffff\n      and\n      dup2\n      mstore\n      0x20\n      add\n      swap1\n      dup2\n      mstore\n      0x20\n      add\n      0x00\n      keccak256\n        /* \"contracts/Medical-Record.sol\":3107:3136  HealthInfo[msg.sender][_paId] */\n      0x00\n        /* \"contracts/Medical-Record.sol\":3130:3135  _paId */\n      dup5\n        /* \"contracts/Medical-Record.sol\":3107:3136  HealthInfo[msg.sender][_paId] */\n      0xffffffffffffffffffffffffffffffffffffffff\n      and\n      0xffffffffffffffffffffffffffffffffffffffff\n      and\n      dup2\n      mstore\n      0x20\n      add\n      swap1\n      dup2\n      mstore\n      0x20\n      add\n      0x00\n      keccak256\n        /* \"contracts/Medical-Record.sol\":3107:3138  HealthInfo[msg.sender][_paId].p */\n      0x02\n      add\n        /* \"contracts/Medical-Record.sol\":3107:3144  HealthInfo[msg.sender][_paId].p.state */\n      0x00\n      add\n      0x00\n      swap1\n      sload\n      swap1\n      0x0100\n      exp\n      swap1\n      div\n      0xff\n      and\n        /* \"contracts/Medical-Record.sol\":3145:3155  HealthInfo */\n      0x02\n        /* \"contracts/Medical-Record.sol\":3145:3167  HealthInfo[msg.sender] */\n      0x00\n        /* \"contracts/Medical-Record.sol\":3156:3166  msg.sender */\n      caller\n        /* \"contracts/Medical-Record.sol\":3145:3167  HealthInfo[msg.sender] */\n      0xffffffffffffffffffffffffffffffffffffffff\n      and\n      0xffffffffffffffffffffffffffffffffffffffff\n      and\n      dup2\n      mstore\n      0x20\n      add\n      swap1\n      dup2\n      mstore\n      0x20\n      add\n      0x00\n      keccak256\n        /* \"contracts/Medical-Record.sol\":3145:3174  HealthInfo[msg.sender][_paId] */\n      0x00\n        /* \"contracts/Medical-Record.sol\":3168:3173  _paId */\n      dup6\n        /* \"contracts/Medical-Record.sol\":3145:3174  HealthInfo[msg.sender][_paId] */\n      0xffffffffffffffffffffffffffffffffffffffff\n      and\n      0xffffffffffffffffffffffffffffffffffffffff\n      and\n      dup2\n      mstore\n      0x20\n      add\n      swap1\n      dup2\n      mstore\n      0x20\n      add\n      0x00\n      keccak256\n        /* \"contracts/Medical-Record.sol\":3145:3176  HealthInfo[msg.sender][_paId].p */\n      0x02\n      add\n        /* \"contracts/Medical-Record.sol\":3145:3182  HealthInfo[msg.sender][_paId].p.pa_Id */\n      0x00\n      add\n      0x01\n      swap1\n      sload\n      swap1\n      0x0100\n      exp\n      swap1\n      div\n      0xffffffffffffffffffffffffffffffffffffffff\n      and\n        /* \"contracts/Medical-Record.sol\":3183:3193  HealthInfo */\n      0x02\n        /* \"contracts/Medical-Record.sol\":3183:3205  HealthInfo[msg.sender] */\n      0x00\n        /* \"contracts/Medical-Record.sol\":3194:3204  msg.sender */\n      caller\n        /* \"contracts/Medical-Record.sol\":3183:3205  HealthInfo[msg.sender] */\n      0xffffffffffffffffffffffffffffffffffffffff\n      and\n      0xffffffffffffffffffffffffffffffffffffffff\n      and\n      dup2\n      mstore\n      0x20\n      add\n      swap1\n      dup2\n      mstore\n      0x20\n      add\n      0x00\n      keccak256\n        /* \"contracts/Medical-Record.sol\":3183:3212  HealthInfo[msg.sender][_paId] */\n      0x00\n        /* \"contracts/Medical-Record.sol\":3206:3211  _paId */\n      dup7\n        /* \"contracts/Medical-Record.sol\":3183:3212  HealthInfo[msg.sender][_paId] */\n      0xffffffffffffffffffffffffffffffffffffffff\n      and\n      0xffffffffffffffffffffffffffffffffffffffff\n      and\n      dup2\n      mstore\n      0x20\n      add\n      swap1\n      dup2\n      mstore\n      0x20\n      add\n      0x00\n      keccak256\n        /* \"contracts/Medical-Record.sol\":3183:3214  HealthInfo[msg.sender][_paId].p */\n      0x02\n      add\n        /* \"contracts/Medical-Record.sol\":3183:3222  HealthInfo[msg.sender][_paId].p.pa_Name */\n      0x01\n      add\n        /* \"contracts/Medical-Record.sol\":3089:3253  setPatientDetails(HealthInfo[msg.sender][_paId].p.state,HealthInfo[msg.sender][_paId].p.pa_Id,HealthInfo[msg.sender][_paId].p.pa_Name,PatientInfo[_paId].pa_Records) */\n      dup1\n      sload\n      0x01\n      dup2\n      0x01\n      and\n      iszero\n      0x0100\n      mul\n      sub\n      and\n      0x02\n      swap1\n      div\n      dup1\n      0x1f\n      add\n      0x20\n      dup1\n      swap2\n      div\n      mul\n      0x20\n      add\n      mload(0x40)\n      swap1\n      dup2\n      add\n      0x40\n      mstore\n      dup1\n      swap3\n      swap2\n      swap1\n      dup2\n      dup2\n      mstore\n      0x20\n      add\n      dup3\n      dup1\n      sload\n      0x01\n      dup2\n      0x01\n      and\n      iszero\n      0x0100\n      mul\n      sub\n      and\n      0x02\n      swap1\n      div\n      dup1\n      iszero\n      tag_112\n      jumpi\n      dup1\n      0x1f\n      lt\n      tag_113\n      jumpi\n      0x0100\n      dup1\n      dup4\n      sload\n      div\n      mul\n      dup4\n      mstore\n      swap2\n      0x20\n      add\n      swap2\n      jump(tag_112)\n    tag_113:\n      dup3\n      add\n      swap2\n      swap1\n      0x00\n      mstore\n      keccak256(0x00, 0x20)\n      swap1\n    tag_114:\n      dup2\n      sload\n      dup2\n      mstore\n      swap1\n      0x01\n      add\n      swap1\n      0x20\n      add\n      dup1\n      dup4\n      gt\n      tag_114\n      jumpi\n      dup3\n      swap1\n      sub\n      0x1f\n      and\n      dup3\n      add\n      swap2\n    tag_112:\n      pop\n      pop\n      pop\n      pop\n      pop\n        /* \"contracts/Medical-Record.sol\":3223:3234  PatientInfo */\n      0x01\n        /* \"contracts/Medical-Record.sol\":3223:3241  PatientInfo[_paId] */\n      0x00\n        /* \"contracts/Medical-Record.sol\":3235:3240  _paId */\n      dup8\n        /* \"contracts/Medical-Record.sol\":3223:3241  PatientInfo[_paId] */\n      0xffffffffffffffffffffffffffffffffffffffff\n      and\n      0xffffffffffffffffffffffffffffffffffffffff\n      and\n      dup2\n      mstore\n      0x20\n      add\n      swap1\n      dup2\n      mstore\n      0x20\n      add\n      0x00\n      keccak256\n        /* \"contracts/Medical-Record.sol\":3223:3252  PatientInfo[_paId].pa_Records */\n      0x02\n      add\n        /* \"contracts/Medical-Record.sol\":3089:3253  setPatientDetails(HealthInfo[msg.sender][_paId].p.state,HealthInfo[msg.sender][_paId].p.pa_Id,HealthInfo[msg.sender][_paId].p.pa_Name,PatientInfo[_paId].pa_Records) */\n      dup1\n      sload\n      dup1\n      0x20\n      mul\n      0x20\n      add\n      mload(0x40)\n      swap1\n      dup2\n      add\n      0x40\n      mstore\n      dup1\n      swap3\n      swap2\n      swap1\n      dup2\n      dup2\n      mstore\n      0x20\n      add\n      0x00\n      swap1\n    tag_115:\n      dup3\n      dup3\n      lt\n      iszero\n      tag_116\n      jumpi\n      dup4\n      dup3\n      swap1\n      0x00\n      mstore\n      keccak256(0x00, 0x20)\n      add\n      dup1\n      sload\n      0x01\n      dup2\n      0x01\n      and\n      iszero\n      0x0100\n      mul\n      sub\n      and\n      0x02\n      swap1\n      div\n      dup1\n      0x1f\n      add\n      0x20\n      dup1\n      swap2\n      div\n      mul\n      0x20\n      add\n      mload(0x40)\n      swap1\n      dup2\n      add\n      0x40\n      mstore\n      dup1\n      swap3\n      swap2\n      swap1\n      dup2\n      dup2\n      mstore\n      0x20\n      add\n      dup3\n      dup1\n      sload\n      0x01\n      dup2\n      0x01\n      and\n      iszero\n      0x0100\n      mul\n      sub\n      and\n      0x02\n      swap1\n      div\n      dup1\n      iszero\n      tag_118\n      jumpi\n      dup1\n      0x1f\n      lt\n      tag_119\n      jumpi\n      0x0100\n      dup1\n      dup4\n      sload\n      div\n      mul\n      dup4\n      mstore\n      swap2\n      0x20\n      add\n      swap2\n      jump(tag_118)\n    tag_119:\n      dup3\n      add\n      swap2\n      swap1\n      0x00\n      mstore\n      keccak256(0x00, 0x20)\n      swap1\n    tag_120:\n      dup2\n      sload\n      dup2\n      mstore\n      swap1\n      0x01\n      add\n      swap1\n      0x20\n      add\n      dup1\n      dup4\n      gt\n      tag_120\n      jumpi\n      dup3\n      swap1\n      sub\n      0x1f\n      and\n      dup3\n      add\n      swap2\n    tag_118:\n      pop\n      pop\n      pop\n      pop\n      pop\n      dup2\n      mstore\n      0x20\n      add\n      swap1\n      0x01\n      add\n      swap1\n      jump(tag_115)\n    tag_116:\n      pop\n      pop\n      pop\n      pop\n        /* \"contracts/Medical-Record.sol\":3089:3106  setPatientDetails */\n      tag_19\n        /* \"contracts/Medical-Record.sol\":3089:3253  setPatientDetails(HealthInfo[msg.sender][_paId].p.state,HealthInfo[msg.sender][_paId].p.pa_Id,HealthInfo[msg.sender][_paId].p.pa_Name,PatientInfo[_paId].pa_Records) */\n      jump\t// in\n    tag_111:\n        /* \"contracts/Medical-Record.sol\":3268:3305  HealthRecordsAdded(msg.sender, _paId) */\n      0xfd09d3da0077a9ed9d4af05531b2f844c840c94c1e6535e3d2a09a6ae1aa9a52\n        /* \"contracts/Medical-Record.sol\":3287:3297  msg.sender */\n      caller\n        /* \"contracts/Medical-Record.sol\":3299:3304  _paId */\n      dup4\n        /* \"contracts/Medical-Record.sol\":3268:3305  HealthRecordsAdded(msg.sender, _paId) */\n      mload(0x40)\n      tag_121\n      swap3\n      swap2\n      swap1\n      jump(tag_90)\n    tag_121:\n      mload(0x40)\n      dup1\n      swap2\n      sub\n      swap1\n      log1\n        /* \"contracts/Medical-Record.sol\":2426:3312  function setHealthRecordsDetails(string memory _paName, address _paId, string memory _prescription) public Only_Doctors{... */\n      pop\n      pop\n      pop\n      jump\t// out\n        /* \"contracts/Medical-Record.sol\":3663:4127  function getPatientDetails(address _Id) public view returns(bool _state,address _paId,string memory _paName,string[] memory _paRecords){... */\n    tag_41:\n        /* \"contracts/Medical-Record.sol\":3723:3734  bool _state */\n      0x00\n        /* \"contracts/Medical-Record.sol\":3735:3748  address _paId */\n      dup1\n        /* \"contracts/Medical-Record.sol\":3749:3770  string memory _paName */\n      0x60\n        /* \"contracts/Medical-Record.sol\":3771:3797  string[] memory _paRecords */\n      dup1\n        /* \"contracts/Medical-Record.sol\":3848:3852  true */\n      0x01\n        /* \"contracts/Medical-Record.sol\":3815:3852  PatientInfo[msg.sender].state == true */\n      iszero\n      iszero\n        /* \"contracts/Medical-Record.sol\":3815:3826  PatientInfo */\n      0x01\n        /* \"contracts/Medical-Record.sol\":3815:3838  PatientInfo[msg.sender] */\n      0x00\n        /* \"contracts/Medical-Record.sol\":3827:3837  msg.sender */\n      caller\n        /* \"contracts/Medical-Record.sol\":3815:3838  PatientInfo[msg.sender] */\n      0xffffffffffffffffffffffffffffffffffffffff\n      and\n      0xffffffffffffffffffffffffffffffffffffffff\n      and\n      dup2\n      mstore\n      0x20\n      add\n      swap1\n      dup2\n      mstore\n      0x20\n      add\n      0x00\n      keccak256\n        /* \"contracts/Medical-Record.sol\":3815:3844  PatientInfo[msg.sender].state */\n      0x00\n      add\n      0x00\n      swap1\n      sload\n      swap1\n      0x0100\n      exp\n      swap1\n      div\n      0xff\n      and\n        /* \"contracts/Medical-Record.sol\":3815:3852  PatientInfo[msg.sender].state == true */\n      iszero\n      iszero\n      eq\n        /* \"contracts/Medical-Record.sol\":3815:3893  PatientInfo[msg.sender].state == true || patientToDoctor[_Id][msg.sender] == 1 */\n      dup1\n      tag_123\n      jumpi\n      pop\n        /* \"contracts/Medical-Record.sol\":3892:3893  1 */\n      0x01\n        /* \"contracts/Medical-Record.sol\":3856:3871  patientToDoctor */\n      0x03\n        /* \"contracts/Medical-Record.sol\":3856:3876  patientToDoctor[_Id] */\n      0x00\n        /* \"contracts/Medical-Record.sol\":3872:3875  _Id */\n      dup8\n        /* \"contracts/Medical-Record.sol\":3856:3876  patientToDoctor[_Id] */\n      0xffffffffffffffffffffffffffffffffffffffff\n      and\n      0xffffffffffffffffffffffffffffffffffffffff\n      and\n      dup2\n      mstore\n      0x20\n      add\n      swap1\n      dup2\n      mstore\n      0x20\n      add\n      0x00\n      keccak256\n        /* \"contracts/Medical-Record.sol\":3856:3888  patientToDoctor[_Id][msg.sender] */\n      0x00\n        /* \"contracts/Medical-Record.sol\":3877:3887  msg.sender */\n      caller\n        /* \"contracts/Medical-Record.sol\":3856:3888  patientToDoctor[_Id][msg.sender] */\n      0xffffffffffffffffffffffffffffffffffffffff\n      and\n      0xffffffffffffffffffffffffffffffffffffffff\n      and\n      dup2\n      mstore\n      0x20\n      add\n      swap1\n      dup2\n      mstore\n      0x20\n      add\n      0x00\n      keccak256\n      sload\n        /* \"contracts/Medical-Record.sol\":3856:3893  patientToDoctor[_Id][msg.sender] == 1 */\n      eq\n        /* \"contracts/Medical-Record.sol\":3815:3893  PatientInfo[msg.sender].state == true || patientToDoctor[_Id][msg.sender] == 1 */\n    tag_123:\n        /* \"contracts/Medical-Record.sol\":3807:3936  require(PatientInfo[msg.sender].state == true || patientToDoctor[_Id][msg.sender] == 1,\"PATIENTS OR ACCESS_GRANTED_DOCTORS ONLY\") */\n      tag_124\n      jumpi\n      mload(0x40)\n      0x08c379a000000000000000000000000000000000000000000000000000000000\n      dup2\n      mstore\n      0x04\n      add\n      tag_125\n      swap1\n      jump(tag_126)\n    tag_125:\n      mload(0x40)\n      dup1\n      swap2\n      sub\n      swap1\n      revert\n    tag_124:\n        /* \"contracts/Medical-Record.sol\":3955:3966  PatientInfo */\n      0x01\n        /* \"contracts/Medical-Record.sol\":3955:3971  PatientInfo[_Id] */\n      0x00\n        /* \"contracts/Medical-Record.sol\":3967:3970  _Id */\n      dup7\n        /* \"contracts/Medical-Record.sol\":3955:3971  PatientInfo[_Id] */\n      0xffffffffffffffffffffffffffffffffffffffff\n      and\n      0xffffffffffffffffffffffffffffffffffffffff\n      and\n      dup2\n      mstore\n      0x20\n      add\n      swap1\n      dup2\n      mstore\n      0x20\n      add\n      0x00\n      keccak256\n        /* \"contracts/Medical-Record.sol\":3955:3977  PatientInfo[_Id].state */\n      0x00\n      add\n      0x00\n      swap1\n      sload\n      swap1\n      0x0100\n      exp\n      swap1\n      div\n      0xff\n      and\n        /* \"contracts/Medical-Record.sol\":3946:3977  _state = PatientInfo[_Id].state */\n      swap4\n      pop\n        /* \"contracts/Medical-Record.sol\":3995:4006  PatientInfo */\n      0x01\n        /* \"contracts/Medical-Record.sol\":3995:4011  PatientInfo[_Id] */\n      0x00\n        /* \"contracts/Medical-Record.sol\":4007:4010  _Id */\n      dup7\n        /* \"contracts/Medical-Record.sol\":3995:4011  PatientInfo[_Id] */\n      0xffffffffffffffffffffffffffffffffffffffff\n      and\n      0xffffffffffffffffffffffffffffffffffffffff\n      and\n      dup2\n      mstore\n      0x20\n      add\n      swap1\n      dup2\n      mstore\n      0x20\n      add\n      0x00\n      keccak256\n        /* \"contracts/Medical-Record.sol\":3995:4017  PatientInfo[_Id].pa_Id */\n      0x00\n      add\n      0x01\n      swap1\n      sload\n      swap1\n      0x0100\n      exp\n      swap1\n      div\n      0xffffffffffffffffffffffffffffffffffffffff\n      and\n        /* \"contracts/Medical-Record.sol\":3987:4017  _paId = PatientInfo[_Id].pa_Id */\n      swap3\n      pop\n        /* \"contracts/Medical-Record.sol\":4037:4048  PatientInfo */\n      0x01\n        /* \"contracts/Medical-Record.sol\":4037:4053  PatientInfo[_Id] */\n      0x00\n        /* \"contracts/Medical-Record.sol\":4049:4052  _Id */\n      dup7\n        /* \"contracts/Medical-Record.sol\":4037:4053  PatientInfo[_Id] */\n      0xffffffffffffffffffffffffffffffffffffffff\n      and\n      0xffffffffffffffffffffffffffffffffffffffff\n      and\n      dup2\n      mstore\n      0x20\n      add\n      swap1\n      dup2\n      mstore\n      0x20\n      add\n      0x00\n      keccak256\n        /* \"contracts/Medical-Record.sol\":4037:4061  PatientInfo[_Id].pa_Name */\n      0x01\n      add\n        /* \"contracts/Medical-Record.sol\":4027:4061  _paName = PatientInfo[_Id].pa_Name */\n      dup1\n      sload\n      0x01\n      dup2\n      0x01\n      and\n      iszero\n      0x0100\n      mul\n      sub\n      and\n      0x02\n      swap1\n      div\n      dup1\n      0x1f\n      add\n      0x20\n      dup1\n      swap2\n      div\n      mul\n      0x20\n      add\n      mload(0x40)\n      swap1\n      dup2\n      add\n      0x40\n      mstore\n      dup1\n      swap3\n      swap2\n      swap1\n      dup2\n      dup2\n      mstore\n      0x20\n      add\n      dup3\n      dup1\n      sload\n      0x01\n      dup2\n      0x01\n      and\n      iszero\n      0x0100\n      mul\n      sub\n      and\n      0x02\n      swap1\n      div\n      dup1\n      iszero\n      tag_127\n      jumpi\n      dup1\n      0x1f\n      lt\n      tag_128\n      jumpi\n      0x0100\n      dup1\n      dup4\n      sload\n      div\n      mul\n      dup4\n      mstore\n      swap2\n      0x20\n      add\n      swap2\n      jump(tag_127)\n    tag_128:\n      dup3\n      add\n      swap2\n      swap1\n      0x00\n      mstore\n      keccak256(0x00, 0x20)\n      swap1\n    tag_129:\n      dup2\n      sload\n      dup2\n      mstore\n      swap1\n      0x01\n      add\n      swap1\n      0x20\n      add\n      dup1\n      dup4\n      gt\n      tag_129\n      jumpi\n      dup3\n      swap1\n      sub\n      0x1f\n      and\n      dup3\n      add\n      swap2\n    tag_127:\n      pop\n      pop\n      pop\n      pop\n      pop\n      swap2\n      pop\n        /* \"contracts/Medical-Record.sol\":4084:4095  PatientInfo */\n      0x01\n        /* \"contracts/Medical-Record.sol\":4084:4100  PatientInfo[_Id] */\n      0x00\n        /* \"contracts/Medical-Record.sol\":4096:4099  _Id */\n      dup7\n        /* \"contracts/Medical-Record.sol\":4084:4100  PatientInfo[_Id] */\n      0xffffffffffffffffffffffffffffffffffffffff\n      and\n      0xffffffffffffffffffffffffffffffffffffffff\n      and\n      dup2\n      mstore\n      0x20\n      add\n      swap1\n      dup2\n      mstore\n      0x20\n      add\n      0x00\n      keccak256\n        /* \"contracts/Medical-Record.sol\":4084:4111  PatientInfo[_Id].pa_Records */\n      0x02\n      add\n        /* \"contracts/Medical-Record.sol\":4071:4111  _paRecords = PatientInfo[_Id].pa_Records */\n      dup1\n      sload\n      dup1\n      0x20\n      mul\n      0x20\n      add\n      mload(0x40)\n      swap1\n      dup2\n      add\n      0x40\n      mstore\n      dup1\n      swap3\n      swap2\n      swap1\n      dup2\n      dup2\n      mstore\n      0x20\n      add\n      0x00\n      swap1\n    tag_130:\n      dup3\n      dup3\n      lt\n      iszero\n      tag_131\n      jumpi\n      dup4\n      dup3\n      swap1\n      0x00\n      mstore\n      keccak256(0x00, 0x20)\n      add\n      dup1\n      sload\n      0x01\n      dup2\n      0x01\n      and\n      iszero\n      0x0100\n      mul\n      sub\n      and\n      0x02\n      swap1\n      div\n      dup1\n      0x1f\n      add\n      0x20\n      dup1\n      swap2\n      div\n      mul\n      0x20\n      add\n      mload(0x40)\n      swap1\n      dup2\n      add\n      0x40\n      mstore\n      dup1\n      swap3\n      swap2\n      swap1\n      dup2\n      dup2\n      mstore\n      0x20\n      add\n      dup3\n      dup1\n      sload\n      0x01\n      dup2\n      0x01\n      and\n      iszero\n      0x0100\n      mul\n      sub\n      and\n      0x02\n      swap1\n      div\n      dup1\n      iszero\n      tag_133\n      jumpi\n      dup1\n      0x1f\n      lt\n      tag_134\n      jumpi\n      0x0100\n      dup1\n      dup4\n      sload\n      div\n      mul\n      dup4\n      mstore\n      swap2\n      0x20\n      add\n      swap2\n      jump(tag_133)\n    tag_134:\n      dup3\n      add\n      swap2\n      swap1\n      0x00\n      mstore\n      keccak256(0x00, 0x20)\n      swap1\n    tag_135:\n      dup2\n      sload\n      dup2\n      mstore\n      swap1\n      0x01\n      add\n      swap1\n      0x20\n      add\n      dup1\n      dup4\n      gt\n      tag_135\n      jumpi\n      dup3\n      swap1\n      sub\n      0x1f\n      and\n      dup3\n      add\n      swap2\n    tag_133:\n      pop\n      pop\n      pop\n      pop\n      pop\n      dup2\n      mstore\n      0x20\n      add\n      swap1\n      0x01\n      add\n      swap1\n      jump(tag_130)\n    tag_131:\n      pop\n      pop\n      pop\n      pop\n      swap1\n      pop\n        /* \"contracts/Medical-Record.sol\":3663:4127  function getPatientDetails(address _Id) public view returns(bool _state,address _paId,string memory _paName,string[] memory _paRecords){... */\n      swap2\n      swap4\n      pop\n      swap2\n      swap4\n      jump\t// out\n        /* \"contracts/Medical-Record.sol\":5167:5800  function getHealthRecordsForDoctor(address _paId) public Only_Doctors view returns(string memory _drName, address _drId, string memory _paName, address _pId,string memory _prescription,string[] memory _rec){... */\n    tag_46:\n        /* \"contracts/Medical-Record.sol\":5250:5271  string memory _drName */\n      0x60\n        /* \"contracts/Medical-Record.sol\":5273:5286  address _drId */\n      0x00\n        /* \"contracts/Medical-Record.sol\":5288:5309  string memory _paName */\n      0x60\n        /* \"contracts/Medical-Record.sol\":5311:5323  address _pId */\n      0x00\n        /* \"contracts/Medical-Record.sol\":5324:5351  string memory _prescription */\n      0x60\n        /* \"contracts/Medical-Record.sol\":5352:5372  string[] memory _rec */\n      dup1\n        /* \"contracts/Medical-Record.sol\":673:677  true */\n      0x01\n        /* \"contracts/Medical-Record.sol\":641:677  DoctorInfo[msg.sender].state == true */\n      iszero\n      iszero\n        /* \"contracts/Medical-Record.sol\":641:651  DoctorInfo */\n      0x00\n        /* \"contracts/Medical-Record.sol\":641:663  DoctorInfo[msg.sender] */\n      dup1\n        /* \"contracts/Medical-Record.sol\":652:662  msg.sender */\n      caller\n        /* \"contracts/Medical-Record.sol\":641:663  DoctorInfo[msg.sender] */\n      0xffffffffffffffffffffffffffffffffffffffff\n      and\n      0xffffffffffffffffffffffffffffffffffffffff\n      and\n      dup2\n      mstore\n      0x20\n      add\n      swap1\n      dup2\n      mstore\n      0x20\n      add\n      0x00\n      keccak256\n        /* \"contracts/Medical-Record.sol\":641:669  DoctorInfo[msg.sender].state */\n      0x00\n      add\n      0x00\n      swap1\n      sload\n      swap1\n      0x0100\n      exp\n      swap1\n      div\n      0xff\n      and\n        /* \"contracts/Medical-Record.sol\":641:677  DoctorInfo[msg.sender].state == true */\n      iszero\n      iszero\n      eq\n        /* \"contracts/Medical-Record.sol\":633:704  require(DoctorInfo[msg.sender].state == true,\"REGISTERED DOCTORS ONLY\") */\n      tag_137\n      jumpi\n      mload(0x40)\n      0x08c379a000000000000000000000000000000000000000000000000000000000\n      dup2\n      mstore\n      0x04\n      add\n      tag_138\n      swap1\n      jump(tag_58)\n    tag_138:\n      mload(0x40)\n      dup1\n      swap2\n      sub\n      swap1\n      revert\n    tag_137:\n        /* \"contracts/Medical-Record.sol\":5423:5424  1 */\n      0x01\n        /* \"contracts/Medical-Record.sol\":5385:5400  patientToDoctor */\n      0x03\n        /* \"contracts/Medical-Record.sol\":5385:5407  patientToDoctor[_paId] */\n      0x00\n        /* \"contracts/Medical-Record.sol\":5401:5406  _paId */\n      dup10\n        /* \"contracts/Medical-Record.sol\":5385:5407  patientToDoctor[_paId] */\n      0xffffffffffffffffffffffffffffffffffffffff\n      and\n      0xffffffffffffffffffffffffffffffffffffffff\n      and\n      dup2\n      mstore\n      0x20\n      add\n      swap1\n      dup2\n      mstore\n      0x20\n      add\n      0x00\n      keccak256\n        /* \"contracts/Medical-Record.sol\":5385:5419  patientToDoctor[_paId][msg.sender] */\n      0x00\n        /* \"contracts/Medical-Record.sol\":5408:5418  msg.sender */\n      caller\n        /* \"contracts/Medical-Record.sol\":5385:5419  patientToDoctor[_paId][msg.sender] */\n      0xffffffffffffffffffffffffffffffffffffffff\n      and\n      0xffffffffffffffffffffffffffffffffffffffff\n      and\n      dup2\n      mstore\n      0x20\n      add\n      swap1\n      dup2\n      mstore\n      0x20\n      add\n      0x00\n      keccak256\n      sload\n        /* \"contracts/Medical-Record.sol\":5385:5424  patientToDoctor[_paId][msg.sender] == 1 */\n      eq\n        /* \"contracts/Medical-Record.sol\":5377:5449  require(patientToDoctor[_paId][msg.sender] == 1,\"DR ACCESS NOT GRANTED\") */\n      tag_140\n      jumpi\n      mload(0x40)\n      0x08c379a000000000000000000000000000000000000000000000000000000000\n      dup2\n      mstore\n      0x04\n      add\n      tag_141\n      swap1\n      jump(tag_142)\n    tag_141:\n      mload(0x40)\n      dup1\n      swap2\n      sub\n      swap1\n      revert\n    tag_140:\n        /* \"contracts/Medical-Record.sol\":5463:5473  HealthInfo */\n      0x02\n        /* \"contracts/Medical-Record.sol\":5463:5485  HealthInfo[msg.sender] */\n      0x00\n        /* \"contracts/Medical-Record.sol\":5474:5484  msg.sender */\n      caller\n        /* \"contracts/Medical-Record.sol\":5463:5485  HealthInfo[msg.sender] */\n      0xffffffffffffffffffffffffffffffffffffffff\n      and\n      0xffffffffffffffffffffffffffffffffffffffff\n      and\n      dup2\n      mstore\n      0x20\n      add\n      swap1\n      dup2\n      mstore\n      0x20\n      add\n      0x00\n      keccak256\n        /* \"contracts/Medical-Record.sol\":5463:5492  HealthInfo[msg.sender][_paId] */\n      0x00\n        /* \"contracts/Medical-Record.sol\":5486:5491  _paId */\n      dup9\n        /* \"contracts/Medical-Record.sol\":5463:5492  HealthInfo[msg.sender][_paId] */\n      0xffffffffffffffffffffffffffffffffffffffff\n      and\n      0xffffffffffffffffffffffffffffffffffffffff\n      and\n      dup2\n      mstore\n      0x20\n      add\n      swap1\n      dup2\n      mstore\n      0x20\n      add\n      0x00\n      keccak256\n        /* \"contracts/Medical-Record.sol\":5463:5494  HealthInfo[msg.sender][_paId].d */\n      0x00\n      add\n        /* \"contracts/Medical-Record.sol\":5463:5501  HealthInfo[msg.sender][_paId].d.d_Name */\n      0x01\n      add\n        /* \"contracts/Medical-Record.sol\":5453:5501  _drName = HealthInfo[msg.sender][_paId].d.d_Name */\n      dup1\n      sload\n      0x01\n      dup2\n      0x01\n      and\n      iszero\n      0x0100\n      mul\n      sub\n      and\n      0x02\n      swap1\n      div\n      dup1\n      0x1f\n      add\n      0x20\n      dup1\n      swap2\n      div\n      mul\n      0x20\n      add\n      mload(0x40)\n      swap1\n      dup2\n      add\n      0x40\n      mstore\n      dup1\n      swap3\n      swap2\n      swap1\n      dup2\n      dup2\n      mstore\n      0x20\n      add\n      dup3\n      dup1\n      sload\n      0x01\n      dup2\n      0x01\n      and\n      iszero\n      0x0100\n      mul\n      sub\n      and\n      0x02\n      swap1\n      div\n      dup1\n      iszero\n      tag_143\n      jumpi\n      dup1\n      0x1f\n      lt\n      tag_144\n      jumpi\n      0x0100\n      dup1\n      dup4\n      sload\n      div\n      mul\n      dup4\n      mstore\n      swap2\n      0x20\n      add\n      swap2\n      jump(tag_143)\n    tag_144:\n      dup3\n      add\n      swap2\n      swap1\n      0x00\n      mstore\n      keccak256(0x00, 0x20)\n      swap1\n    tag_145:\n      dup2\n      sload\n      dup2\n      mstore\n      swap1\n      0x01\n      add\n      swap1\n      0x20\n      add\n      dup1\n      dup4\n      gt\n      tag_145\n      jumpi\n      dup3\n      swap1\n      sub\n      0x1f\n      and\n      dup3\n      add\n      swap2\n    tag_143:\n      pop\n      pop\n      pop\n      pop\n      pop\n      swap6\n      pop\n        /* \"contracts/Medical-Record.sol\":5519:5529  HealthInfo */\n      0x02\n        /* \"contracts/Medical-Record.sol\":5519:5541  HealthInfo[msg.sender] */\n      0x00\n        /* \"contracts/Medical-Record.sol\":5530:5540  msg.sender */\n      caller\n        /* \"contracts/Medical-Record.sol\":5519:5541  HealthInfo[msg.sender] */\n      0xffffffffffffffffffffffffffffffffffffffff\n      and\n      0xffffffffffffffffffffffffffffffffffffffff\n      and\n      dup2\n      mstore\n      0x20\n      add\n      swap1\n      dup2\n      mstore\n      0x20\n      add\n      0x00\n      keccak256\n        /* \"contracts/Medical-Record.sol\":5519:5548  HealthInfo[msg.sender][_paId] */\n      0x00\n        /* \"contracts/Medical-Record.sol\":5542:5547  _paId */\n      dup9\n        /* \"contracts/Medical-Record.sol\":5519:5548  HealthInfo[msg.sender][_paId] */\n      0xffffffffffffffffffffffffffffffffffffffff\n      and\n      0xffffffffffffffffffffffffffffffffffffffff\n      and\n      dup2\n      mstore\n      0x20\n      add\n      swap1\n      dup2\n      mstore\n      0x20\n      add\n      0x00\n      keccak256\n        /* \"contracts/Medical-Record.sol\":5519:5550  HealthInfo[msg.sender][_paId].d */\n      0x00\n      add\n        /* \"contracts/Medical-Record.sol\":5519:5556  HealthInfo[msg.sender][_paId].d.dr_Id */\n      0x00\n      add\n      0x01\n      swap1\n      sload\n      swap1\n      0x0100\n      exp\n      swap1\n      div\n      0xffffffffffffffffffffffffffffffffffffffff\n      and\n        /* \"contracts/Medical-Record.sol\":5511:5556  _drId = HealthInfo[msg.sender][_paId].d.dr_Id */\n      swap5\n      pop\n        /* \"contracts/Medical-Record.sol\":5576:5586  HealthInfo */\n      0x02\n        /* \"contracts/Medical-Record.sol\":5576:5598  HealthInfo[msg.sender] */\n      0x00\n        /* \"contracts/Medical-Record.sol\":5587:5597  msg.sender */\n      caller\n        /* \"contracts/Medical-Record.sol\":5576:5598  HealthInfo[msg.sender] */\n      0xffffffffffffffffffffffffffffffffffffffff\n      and\n      0xffffffffffffffffffffffffffffffffffffffff\n      and\n      dup2\n      mstore\n      0x20\n      add\n      swap1\n      dup2\n      mstore\n      0x20\n      add\n      0x00\n      keccak256\n        /* \"contracts/Medical-Record.sol\":5576:5605  HealthInfo[msg.sender][_paId] */\n      0x00\n        /* \"contracts/Medical-Record.sol\":5599:5604  _paId */\n      dup9\n        /* \"contracts/Medical-Record.sol\":5576:5605  HealthInfo[msg.sender][_paId] */\n      0xffffffffffffffffffffffffffffffffffffffff\n      and\n      0xffffffffffffffffffffffffffffffffffffffff\n      and\n      dup2\n      mstore\n      0x20\n      add\n      swap1\n      dup2\n      mstore\n      0x20\n      add\n      0x00\n      keccak256\n        /* \"contracts/Medical-Record.sol\":5576:5607  HealthInfo[msg.sender][_paId].p */\n      0x02\n      add\n        /* \"contracts/Medical-Record.sol\":5576:5615  HealthInfo[msg.sender][_paId].p.pa_Name */\n      0x01\n      add\n        /* \"contracts/Medical-Record.sol\":5566:5615  _paName = HealthInfo[msg.sender][_paId].p.pa_Name */\n      dup1\n      sload\n      0x01\n      dup2\n      0x01\n      and\n      iszero\n      0x0100\n      mul\n      sub\n      and\n      0x02\n      swap1\n      div\n      dup1\n      0x1f\n      add\n      0x20\n      dup1\n      swap2\n      div\n      mul\n      0x20\n      add\n      mload(0x40)\n      swap1\n      dup2\n      add\n      0x40\n      mstore\n      dup1\n      swap3\n      swap2\n      swap1\n      dup2\n      dup2\n      mstore\n      0x20\n      add\n      dup3\n      dup1\n      sload\n      0x01\n      dup2\n      0x01\n      and\n      iszero\n      0x0100\n      mul\n      sub\n      and\n      0x02\n      swap1\n      div\n      dup1\n      iszero\n      tag_146\n      jumpi\n      dup1\n      0x1f\n      lt\n      tag_147\n      jumpi\n      0x0100\n      dup1\n      dup4\n      sload\n      div\n      mul\n      dup4\n      mstore\n      swap2\n      0x20\n      add\n      swap2\n      jump(tag_146)\n    tag_147:\n      dup3\n      add\n      swap2\n      swap1\n      0x00\n      mstore\n      keccak256(0x00, 0x20)\n      swap1\n    tag_148:\n      dup2\n      sload\n      dup2\n      mstore\n      swap1\n      0x01\n      add\n      swap1\n      0x20\n      add\n      dup1\n      dup4\n      gt\n      tag_148\n      jumpi\n      dup3\n      swap1\n      sub\n      0x1f\n      and\n      dup3\n      add\n      swap2\n    tag_146:\n      pop\n      pop\n      pop\n      pop\n      pop\n      swap4\n      pop\n        /* \"contracts/Medical-Record.sol\":5632:5642  HealthInfo */\n      0x02\n        /* \"contracts/Medical-Record.sol\":5632:5654  HealthInfo[msg.sender] */\n      0x00\n        /* \"contracts/Medical-Record.sol\":5643:5653  msg.sender */\n      caller\n        /* \"contracts/Medical-Record.sol\":5632:5654  HealthInfo[msg.sender] */\n      0xffffffffffffffffffffffffffffffffffffffff\n      and\n      0xffffffffffffffffffffffffffffffffffffffff\n      and\n      dup2\n      mstore\n      0x20\n      add\n      swap1\n      dup2\n      mstore\n      0x20\n      add\n      0x00\n      keccak256\n        /* \"contracts/Medical-Record.sol\":5632:5661  HealthInfo[msg.sender][_paId] */\n      0x00\n        /* \"contracts/Medical-Record.sol\":5655:5660  _paId */\n      dup9\n        /* \"contracts/Medical-Record.sol\":5632:5661  HealthInfo[msg.sender][_paId] */\n      0xffffffffffffffffffffffffffffffffffffffff\n      and\n      0xffffffffffffffffffffffffffffffffffffffff\n      and\n      dup2\n      mstore\n      0x20\n      add\n      swap1\n      dup2\n      mstore\n      0x20\n      add\n      0x00\n      keccak256\n        /* \"contracts/Medical-Record.sol\":5632:5663  HealthInfo[msg.sender][_paId].p */\n      0x02\n      add\n        /* \"contracts/Medical-Record.sol\":5632:5669  HealthInfo[msg.sender][_paId].p.pa_Id */\n      0x00\n      add\n      0x01\n      swap1\n      sload\n      swap1\n      0x0100\n      exp\n      swap1\n      div\n      0xffffffffffffffffffffffffffffffffffffffff\n      and\n        /* \"contracts/Medical-Record.sol\":5625:5669  _pId = HealthInfo[msg.sender][_paId].p.pa_Id */\n      swap3\n      pop\n        /* \"contracts/Medical-Record.sol\":5696:5706  HealthInfo */\n      0x02\n        /* \"contracts/Medical-Record.sol\":5696:5718  HealthInfo[msg.sender] */\n      0x00\n        /* \"contracts/Medical-Record.sol\":5707:5717  msg.sender */\n      caller\n        /* \"contracts/Medical-Record.sol\":5696:5718  HealthInfo[msg.sender] */\n      0xffffffffffffffffffffffffffffffffffffffff\n      and\n      0xffffffffffffffffffffffffffffffffffffffff\n      and\n      dup2\n      mstore\n      0x20\n      add\n      swap1\n      dup2\n      mstore\n      0x20\n      add\n      0x00\n      keccak256\n        /* \"contracts/Medical-Record.sol\":5696:5725  HealthInfo[msg.sender][_paId] */\n      0x00\n        /* \"contracts/Medical-Record.sol\":5719:5724  _paId */\n      dup9\n        /* \"contracts/Medical-Record.sol\":5696:5725  HealthInfo[msg.sender][_paId] */\n      0xffffffffffffffffffffffffffffffffffffffff\n      and\n      0xffffffffffffffffffffffffffffffffffffffff\n      and\n      dup2\n      mstore\n      0x20\n      add\n      swap1\n      dup2\n      mstore\n      0x20\n      add\n      0x00\n      keccak256\n        /* \"contracts/Medical-Record.sol\":5696:5729  HealthInfo[msg.sender][_paId].pre */\n      0x05\n      add\n        /* \"contracts/Medical-Record.sol\":5696:5742  HealthInfo[msg.sender][_paId].pre.prescription */\n      0x00\n      add\n        /* \"contracts/Medical-Record.sol\":5680:5742  _prescription = HealthInfo[msg.sender][_paId].pre.prescription */\n      dup1\n      sload\n      0x01\n      dup2\n      0x01\n      and\n      iszero\n      0x0100\n      mul\n      sub\n      and\n      0x02\n      swap1\n      div\n      dup1\n      0x1f\n      add\n      0x20\n      dup1\n      swap2\n      div\n      mul\n      0x20\n      add\n      mload(0x40)\n      swap1\n      dup2\n      add\n      0x40\n      mstore\n      dup1\n      swap3\n      swap2\n      swap1\n      dup2\n      dup2\n      mstore\n      0x20\n      add\n      dup3\n      dup1\n      sload\n      0x01\n      dup2\n      0x01\n      and\n      iszero\n      0x0100\n      mul\n      sub\n      and\n      0x02\n      swap1\n      div\n      dup1\n      iszero\n      tag_149\n      jumpi\n      dup1\n      0x1f\n      lt\n      tag_150\n      jumpi\n      0x0100\n      dup1\n      dup4\n      sload\n      div\n      mul\n      dup4\n      mstore\n      swap2\n      0x20\n      add\n      swap2\n      jump(tag_149)\n    tag_150:\n      dup3\n      add\n      swap2\n      swap1\n      0x00\n      mstore\n      keccak256(0x00, 0x20)\n      swap1\n    tag_151:\n      dup2\n      sload\n      dup2\n      mstore\n      swap1\n      0x01\n      add\n      swap1\n      0x20\n      add\n      dup1\n      dup4\n      gt\n      tag_151\n      jumpi\n      dup3\n      swap1\n      sub\n      0x1f\n      and\n      dup3\n      add\n      swap2\n    tag_149:\n      pop\n      pop\n      pop\n      pop\n      pop\n      swap2\n      pop\n        /* \"contracts/Medical-Record.sol\":5759:5769  HealthInfo */\n      0x02\n        /* \"contracts/Medical-Record.sol\":5759:5781  HealthInfo[msg.sender] */\n      0x00\n        /* \"contracts/Medical-Record.sol\":5770:5780  msg.sender */\n      caller\n        /* \"contracts/Medical-Record.sol\":5759:5781  HealthInfo[msg.sender] */\n      0xffffffffffffffffffffffffffffffffffffffff\n      and\n      0xffffffffffffffffffffffffffffffffffffffff\n      and\n      dup2\n      mstore\n      0x20\n      add\n      swap1\n      dup2\n      mstore\n      0x20\n      add\n      0x00\n      keccak256\n        /* \"contracts/Medical-Record.sol\":5759:5788  HealthInfo[msg.sender][_paId] */\n      0x00\n        /* \"contracts/Medical-Record.sol\":5782:5787  _paId */\n      dup9\n        /* \"contracts/Medical-Record.sol\":5759:5788  HealthInfo[msg.sender][_paId] */\n      0xffffffffffffffffffffffffffffffffffffffff\n      and\n      0xffffffffffffffffffffffffffffffffffffffff\n      and\n      dup2\n      mstore\n      0x20\n      add\n      swap1\n      dup2\n      mstore\n      0x20\n      add\n      0x00\n      keccak256\n        /* \"contracts/Medical-Record.sol\":5759:5796  HealthInfo[msg.sender][_paId].records */\n      0x06\n      add\n        /* \"contracts/Medical-Record.sol\":5752:5796  _rec = HealthInfo[msg.sender][_paId].records */\n      dup1\n      sload\n      dup1\n      0x20\n      mul\n      0x20\n      add\n      mload(0x40)\n      swap1\n      dup2\n      add\n      0x40\n      mstore\n      dup1\n      swap3\n      swap2\n      swap1\n      dup2\n      dup2\n      mstore\n      0x20\n      add\n      0x00\n      swap1\n    tag_152:\n      dup3\n      dup3\n      lt\n      iszero\n      tag_153\n      jumpi\n      dup4\n      dup3\n      swap1\n      0x00\n      mstore\n      keccak256(0x00, 0x20)\n      add\n      dup1\n      sload\n      0x01\n      dup2\n      0x01\n      and\n      iszero\n      0x0100\n      mul\n      sub\n      and\n      0x02\n      swap1\n      div\n      dup1\n      0x1f\n      add\n      0x20\n      dup1\n      swap2\n      div\n      mul\n      0x20\n      add\n      mload(0x40)\n      swap1\n      dup2\n      add\n      0x40\n      mstore\n      dup1\n      swap3\n      swap2\n      swap1\n      dup2\n      dup2\n      mstore\n      0x20\n      add\n      dup3\n      dup1\n      sload\n      0x01\n      dup2\n      0x01\n      and\n      iszero\n      0x0100\n      mul\n      sub\n      and\n      0x02\n      swap1\n      div\n      dup1\n      iszero\n      tag_155\n      jumpi\n      dup1\n      0x1f\n      lt\n      tag_156\n      jumpi\n      0x0100\n      dup1\n      dup4\n      sload\n      div\n      mul\n      dup4\n      mstore\n      swap2\n      0x20\n      add\n      swap2\n      jump(tag_155)\n    tag_156:\n      dup3\n      add\n      swap2\n      swap1\n      0x00\n      mstore\n      keccak256(0x00, 0x20)\n      swap1\n    tag_157:\n      dup2\n      sload\n      dup2\n      mstore\n      swap1\n      0x01\n      add\n      swap1\n      0x20\n      add\n      dup1\n      dup4\n      gt\n      tag_157\n      jumpi\n      dup3\n      swap1\n      sub\n      0x1f\n      and\n      dup3\n      add\n      swap2\n    tag_155:\n      pop\n      pop\n      pop\n      pop\n      pop\n      dup2\n      mstore\n      0x20\n      add\n      swap1\n      0x01\n      add\n      swap1\n      jump(tag_152)\n    tag_153:\n      pop\n      pop\n      pop\n      pop\n      swap1\n      pop\n        /* \"contracts/Medical-Record.sol\":5167:5800  function getHealthRecordsForDoctor(address _paId) public Only_Doctors view returns(string memory _drName, address _drId, string memory _paName, address _pId,string memory _prescription,string[] memory _rec){... */\n      swap2\n      swap4\n      swap6\n      pop\n      swap2\n      swap4\n      swap6\n      jump\t// out\n        /* \"contracts/Medical-Record.sol\":59:5803  contract MedicalChain{... */\n    tag_61:\n      dup3\n      dup1\n      sload\n      0x01\n      dup2\n      0x01\n      and\n      iszero\n      0x0100\n      mul\n      sub\n      and\n      0x02\n      swap1\n      div\n      swap1\n      0x00\n      mstore\n      keccak256(0x00, 0x20)\n      swap1\n      0x1f\n      add\n      0x20\n      swap1\n      div\n      dup2\n      add\n      swap3\n      dup3\n      0x1f\n      lt\n      tag_159\n      jumpi\n      dup1\n      mload\n      not(0xff)\n      and\n      dup4\n      dup1\n      add\n      or\n      dup6\n      sstore\n      jump(tag_158)\n    tag_159:\n      dup3\n      dup1\n      add\n      0x01\n      add\n      dup6\n      sstore\n      dup3\n      iszero\n      tag_158\n      jumpi\n      swap2\n      dup3\n      add\n    tag_160:\n      dup3\n      dup2\n      gt\n      iszero\n      tag_161\n      jumpi\n      dup3\n      mload\n      dup3\n      sstore\n      swap2\n      0x20\n      add\n      swap2\n      swap1\n      0x01\n      add\n      swap1\n      jump(tag_160)\n    tag_161:\n    tag_158:\n      pop\n      swap1\n      pop\n      tag_162\n      swap2\n      swap1\n      tag_163\n      jump\t// in\n    tag_162:\n      pop\n      swap1\n      jump\t// out\n    tag_63:\n      dup3\n      dup1\n      sload\n      dup3\n      dup3\n      sstore\n      swap1\n      0x00\n      mstore\n      keccak256(0x00, 0x20)\n      swap1\n      dup2\n      add\n      swap3\n      dup3\n      iszero\n      tag_164\n      jumpi\n      swap2\n      0x20\n      mul\n      dup3\n      add\n    tag_165:\n      dup3\n      dup2\n      gt\n      iszero\n      tag_166\n      jumpi\n      dup3\n      mload\n      dup3\n      swap1\n      dup1\n      mload\n      swap1\n      0x20\n      add\n      swap1\n      tag_167\n      swap3\n      swap2\n      swap1\n      tag_61\n      jump\t// in\n    tag_167:\n      pop\n      swap2\n      0x20\n      add\n      swap2\n      swap1\n      0x01\n      add\n      swap1\n      jump(tag_165)\n    tag_166:\n    tag_164:\n      pop\n      swap1\n      pop\n      tag_168\n      swap2\n      swap1\n      tag_169\n      jump\t// in\n    tag_168:\n      pop\n      swap1\n      jump\t// out\n    tag_103:\n      dup3\n      dup1\n      sload\n      0x01\n      dup2\n      0x01\n      and\n      iszero\n      0x0100\n      mul\n      sub\n      and\n      0x02\n      swap1\n      div\n      swap1\n      0x00\n      mstore\n      keccak256(0x00, 0x20)\n      swap1\n      0x1f\n      add\n      0x20\n      swap1\n      div\n      dup2\n      add\n      swap3\n      dup3\n      0x1f\n      lt\n      tag_171\n      jumpi\n      dup1\n      sload\n      dup6\n      sstore\n      jump(tag_170)\n    tag_171:\n      dup3\n      dup1\n      add\n      0x01\n      add\n      dup6\n      sstore\n      dup3\n      iszero\n      tag_170\n      jumpi\n      0x00\n      mstore\n      keccak256(0x00, 0x20)\n      swap2\n      0x1f\n      add\n      0x20\n      swap1\n      div\n      dup3\n      add\n    tag_172:\n      dup3\n      dup2\n      gt\n      iszero\n      tag_173\n      jumpi\n      dup3\n      sload\n      dup3\n      sstore\n      swap2\n      0x01\n      add\n      swap2\n      swap1\n      0x01\n      add\n      swap1\n      jump(tag_172)\n    tag_173:\n    tag_170:\n      pop\n      swap1\n      pop\n      tag_174\n      swap2\n      swap1\n      tag_163\n      jump\t// in\n    tag_174:\n      pop\n      swap1\n      jump\t// out\n    tag_105:\n      dup3\n      dup1\n      sload\n      0x01\n      dup2\n      0x01\n      and\n      iszero\n      0x0100\n      mul\n      sub\n      and\n      0x02\n      swap1\n      div\n      swap1\n      0x00\n      mstore\n      keccak256(0x00, 0x20)\n      swap1\n      0x1f\n      add\n      0x20\n      swap1\n      div\n      dup2\n      add\n      swap3\n      dup3\n      0x1f\n      lt\n      tag_176\n      jumpi\n      dup1\n      mload\n      not(0xff)\n      and\n      dup4\n      dup1\n      add\n      or\n      dup6\n      sstore\n      jump(tag_175)\n    tag_176:\n      dup3\n      dup1\n      add\n      0x01\n      add\n      dup6\n      sstore\n      dup3\n      iszero\n      tag_175\n      jumpi\n      swap2\n      dup3\n      add\n    tag_177:\n      dup3\n      dup2\n      gt\n      iszero\n      tag_178\n      jumpi\n      dup3\n      mload\n      dup3\n      sstore\n      swap2\n      0x20\n      add\n      swap2\n      swap1\n      0x01\n      add\n      swap1\n      jump(tag_177)\n    tag_178:\n    tag_175:\n      pop\n      swap1\n      pop\n      tag_179\n      swap2\n      swap1\n      tag_163\n      jump\t// in\n    tag_179:\n      pop\n      swap1\n      jump\t// out\n    tag_163:\n      tag_180\n      swap2\n      swap1\n    tag_181:\n      dup1\n      dup3\n      gt\n      iszero\n      tag_182\n      jumpi\n      0x00\n      dup2\n      0x00\n      swap1\n      sstore\n      pop\n      0x01\n      add\n      jump(tag_181)\n    tag_182:\n      pop\n      swap1\n      jump\n    tag_180:\n      swap1\n      jump\t// out\n    tag_169:\n      tag_183\n      swap2\n      swap1\n    tag_184:\n      dup1\n      dup3\n      gt\n      iszero\n      tag_185\n      jumpi\n      0x00\n      dup2\n      dup2\n      tag_186\n      swap2\n      swap1\n      tag_187\n      jump\t// in\n    tag_186:\n      pop\n      0x01\n      add\n      jump(tag_184)\n    tag_185:\n      pop\n      swap1\n      jump\n    tag_183:\n      swap1\n      jump\t// out\n    tag_187:\n      pop\n      dup1\n      sload\n      0x01\n      dup2\n      0x01\n      and\n      iszero\n      0x0100\n      mul\n      sub\n      and\n      0x02\n      swap1\n      div\n      0x00\n      dup3\n      sstore\n      dup1\n      0x1f\n      lt\n      tag_189\n      jumpi\n      pop\n      jump(tag_188)\n    tag_189:\n      0x1f\n      add\n      0x20\n      swap1\n      div\n      swap1\n      0x00\n      mstore\n      keccak256(0x00, 0x20)\n      swap1\n      dup2\n      add\n      swap1\n      tag_190\n      swap2\n      swap1\n      tag_163\n      jump\t// in\n    tag_190:\n    tag_188:\n      pop\n      jump\t// out\n        /* \"--CODEGEN--\":5:135   */\n    tag_192:\n      0x00\n        /* \"--CODEGEN--\":85:91   */\n      dup2\n        /* \"--CODEGEN--\":72:92   */\n      calldataload\n        /* \"--CODEGEN--\":63:92   */\n      swap1\n      pop\n        /* \"--CODEGEN--\":97:130   */\n      tag_193\n        /* \"--CODEGEN--\":124:129   */\n      dup2\n        /* \"--CODEGEN--\":97:130   */\n      jump(tag_194)\n    tag_193:\n        /* \"--CODEGEN--\":57:135   */\n      swap3\n      swap2\n      pop\n      pop\n      jump\n        /* \"--CODEGEN--\":159:855   */\n    tag_195:\n      0x00\n        /* \"--CODEGEN--\":282:285   */\n      dup3\n        /* \"--CODEGEN--\":275:279   */\n      0x1f\n        /* \"--CODEGEN--\":267:273   */\n      dup4\n        /* \"--CODEGEN--\":263:280   */\n      add\n        /* \"--CODEGEN--\":259:286   */\n      slt\n        /* \"--CODEGEN--\":249:251   */\n      tag_196\n      jumpi\n        /* \"--CODEGEN--\":300:301   */\n      0x00\n        /* \"--CODEGEN--\":297:298   */\n      dup1\n        /* \"--CODEGEN--\":290:302   */\n      revert\n        /* \"--CODEGEN--\":249:251   */\n    tag_196:\n        /* \"--CODEGEN--\":337:343   */\n      dup2\n        /* \"--CODEGEN--\":324:344   */\n      calldataload\n        /* \"--CODEGEN--\":359:445   */\n      tag_197\n        /* \"--CODEGEN--\":374:444   */\n      tag_198\n        /* \"--CODEGEN--\":437:443   */\n      dup3\n        /* \"--CODEGEN--\":374:444   */\n      jump(tag_199)\n    tag_198:\n        /* \"--CODEGEN--\":359:445   */\n      jump(tag_200)\n    tag_197:\n        /* \"--CODEGEN--\":350:445   */\n      swap2\n      pop\n        /* \"--CODEGEN--\":462:467   */\n      dup2\n        /* \"--CODEGEN--\":487:493   */\n      dup2\n        /* \"--CODEGEN--\":480:485   */\n      dup4\n        /* \"--CODEGEN--\":473:494   */\n      mstore\n        /* \"--CODEGEN--\":517:521   */\n      0x20\n        /* \"--CODEGEN--\":509:515   */\n      dup5\n        /* \"--CODEGEN--\":505:522   */\n      add\n        /* \"--CODEGEN--\":495:522   */\n      swap4\n      pop\n        /* \"--CODEGEN--\":539:543   */\n      0x20\n        /* \"--CODEGEN--\":534:537   */\n      dup2\n        /* \"--CODEGEN--\":530:544   */\n      add\n        /* \"--CODEGEN--\":523:544   */\n      swap1\n      pop\n        /* \"--CODEGEN--\":592:598   */\n      dup4\n        /* \"--CODEGEN--\":625:626   */\n      0x00\n        /* \"--CODEGEN--\":610:849   */\n    tag_201:\n        /* \"--CODEGEN--\":635:641   */\n      dup4\n        /* \"--CODEGEN--\":632:633   */\n      dup2\n        /* \"--CODEGEN--\":629:642   */\n      lt\n        /* \"--CODEGEN--\":610:849   */\n      iszero\n      tag_203\n      jumpi\n        /* \"--CODEGEN--\":718:721   */\n      dup2\n        /* \"--CODEGEN--\":705:722   */\n      calldataload\n        /* \"--CODEGEN--\":697:703   */\n      dup7\n        /* \"--CODEGEN--\":693:723   */\n      add\n        /* \"--CODEGEN--\":742:785   */\n      tag_204\n        /* \"--CODEGEN--\":781:784   */\n      dup9\n        /* \"--CODEGEN--\":769:779   */\n      dup3\n        /* \"--CODEGEN--\":742:785   */\n      jump(tag_205)\n    tag_204:\n        /* \"--CODEGEN--\":737:740   */\n      dup5\n        /* \"--CODEGEN--\":730:786   */\n      mstore\n        /* \"--CODEGEN--\":809:813   */\n      0x20\n        /* \"--CODEGEN--\":804:807   */\n      dup5\n        /* \"--CODEGEN--\":800:814   */\n      add\n        /* \"--CODEGEN--\":793:814   */\n      swap4\n      pop\n        /* \"--CODEGEN--\":837:841   */\n      0x20\n        /* \"--CODEGEN--\":832:835   */\n      dup4\n        /* \"--CODEGEN--\":828:842   */\n      add\n        /* \"--CODEGEN--\":821:842   */\n      swap3\n      pop\n        /* \"--CODEGEN--\":667:849   */\n      pop\n        /* \"--CODEGEN--\":657:658   */\n      0x01\n        /* \"--CODEGEN--\":654:655   */\n      dup2\n        /* \"--CODEGEN--\":650:659   */\n      add\n        /* \"--CODEGEN--\":645:659   */\n      swap1\n      pop\n        /* \"--CODEGEN--\":610:849   */\n      jump(tag_201)\n    tag_203:\n        /* \"--CODEGEN--\":614:628   */\n      pop\n        /* \"--CODEGEN--\":242:855   */\n      pop\n      pop\n      pop\n      swap3\n      swap2\n      pop\n      pop\n      jump\n        /* \"--CODEGEN--\":863:987   */\n    tag_206:\n      0x00\n        /* \"--CODEGEN--\":940:946   */\n      dup2\n        /* \"--CODEGEN--\":927:947   */\n      calldataload\n        /* \"--CODEGEN--\":918:947   */\n      swap1\n      pop\n        /* \"--CODEGEN--\":952:982   */\n      tag_207\n        /* \"--CODEGEN--\":976:981   */\n      dup2\n        /* \"--CODEGEN--\":952:982   */\n      jump(tag_208)\n    tag_207:\n        /* \"--CODEGEN--\":912:987   */\n      swap3\n      swap2\n      pop\n      pop\n      jump\n        /* \"--CODEGEN--\":995:1429   */\n    tag_205:\n      0x00\n        /* \"--CODEGEN--\":1093:1096   */\n      dup3\n        /* \"--CODEGEN--\":1086:1090   */\n      0x1f\n        /* \"--CODEGEN--\":1078:1084   */\n      dup4\n        /* \"--CODEGEN--\":1074:1091   */\n      add\n        /* \"--CODEGEN--\":1070:1097   */\n      slt\n        /* \"--CODEGEN--\":1060:1062   */\n      tag_209\n      jumpi\n        /* \"--CODEGEN--\":1111:1112   */\n      0x00\n        /* \"--CODEGEN--\":1108:1109   */\n      dup1\n        /* \"--CODEGEN--\":1101:1113   */\n      revert\n        /* \"--CODEGEN--\":1060:1062   */\n    tag_209:\n        /* \"--CODEGEN--\":1148:1154   */\n      dup2\n        /* \"--CODEGEN--\":1135:1155   */\n      calldataload\n        /* \"--CODEGEN--\":1170:1231   */\n      tag_210\n        /* \"--CODEGEN--\":1185:1230   */\n      tag_211\n        /* \"--CODEGEN--\":1223:1229   */\n      dup3\n        /* \"--CODEGEN--\":1185:1230   */\n      jump(tag_212)\n    tag_211:\n        /* \"--CODEGEN--\":1170:1231   */\n      jump(tag_200)\n    tag_210:\n        /* \"--CODEGEN--\":1161:1231   */\n      swap2\n      pop\n        /* \"--CODEGEN--\":1251:1257   */\n      dup1\n        /* \"--CODEGEN--\":1244:1249   */\n      dup3\n        /* \"--CODEGEN--\":1237:1258   */\n      mstore\n        /* \"--CODEGEN--\":1287:1291   */\n      0x20\n        /* \"--CODEGEN--\":1279:1285   */\n      dup4\n        /* \"--CODEGEN--\":1275:1292   */\n      add\n        /* \"--CODEGEN--\":1320:1324   */\n      0x20\n        /* \"--CODEGEN--\":1313:1318   */\n      dup4\n        /* \"--CODEGEN--\":1309:1325   */\n      add\n        /* \"--CODEGEN--\":1355:1358   */\n      dup6\n        /* \"--CODEGEN--\":1346:1352   */\n      dup4\n        /* \"--CODEGEN--\":1341:1344   */\n      dup4\n        /* \"--CODEGEN--\":1337:1353   */\n      add\n        /* \"--CODEGEN--\":1334:1359   */\n      gt\n        /* \"--CODEGEN--\":1331:1333   */\n      iszero\n      tag_213\n      jumpi\n        /* \"--CODEGEN--\":1372:1373   */\n      0x00\n        /* \"--CODEGEN--\":1369:1370   */\n      dup1\n        /* \"--CODEGEN--\":1362:1374   */\n      revert\n        /* \"--CODEGEN--\":1331:1333   */\n    tag_213:\n        /* \"--CODEGEN--\":1382:1423   */\n      tag_214\n        /* \"--CODEGEN--\":1416:1422   */\n      dup4\n        /* \"--CODEGEN--\":1411:1414   */\n      dup3\n        /* \"--CODEGEN--\":1406:1409   */\n      dup5\n        /* \"--CODEGEN--\":1382:1423   */\n      jump(tag_215)\n    tag_214:\n        /* \"--CODEGEN--\":1053:1429   */\n      pop\n      pop\n      pop\n      swap3\n      swap2\n      pop\n      pop\n      jump\n        /* \"--CODEGEN--\":1438:1880   */\n    tag_216:\n      0x00\n        /* \"--CODEGEN--\":1540:1543   */\n      dup3\n        /* \"--CODEGEN--\":1533:1537   */\n      0x1f\n        /* \"--CODEGEN--\":1525:1531   */\n      dup4\n        /* \"--CODEGEN--\":1521:1538   */\n      add\n        /* \"--CODEGEN--\":1517:1544   */\n      slt\n        /* \"--CODEGEN--\":1507:1509   */\n      tag_217\n      jumpi\n        /* \"--CODEGEN--\":1558:1559   */\n      0x00\n        /* \"--CODEGEN--\":1555:1556   */\n      dup1\n        /* \"--CODEGEN--\":1548:1560   */\n      revert\n        /* \"--CODEGEN--\":1507:1509   */\n    tag_217:\n        /* \"--CODEGEN--\":1595:1601   */\n      dup2\n        /* \"--CODEGEN--\":1582:1602   */\n      calldataload\n        /* \"--CODEGEN--\":1617:1682   */\n      tag_218\n        /* \"--CODEGEN--\":1632:1681   */\n      tag_219\n        /* \"--CODEGEN--\":1674:1680   */\n      dup3\n        /* \"--CODEGEN--\":1632:1681   */\n      jump(tag_220)\n    tag_219:\n        /* \"--CODEGEN--\":1617:1682   */\n      jump(tag_200)\n    tag_218:\n        /* \"--CODEGEN--\":1608:1682   */\n      swap2\n      pop\n        /* \"--CODEGEN--\":1702:1708   */\n      dup1\n        /* \"--CODEGEN--\":1695:1700   */\n      dup3\n        /* \"--CODEGEN--\":1688:1709   */\n      mstore\n        /* \"--CODEGEN--\":1738:1742   */\n      0x20\n        /* \"--CODEGEN--\":1730:1736   */\n      dup4\n        /* \"--CODEGEN--\":1726:1743   */\n      add\n        /* \"--CODEGEN--\":1771:1775   */\n      0x20\n        /* \"--CODEGEN--\":1764:1769   */\n      dup4\n        /* \"--CODEGEN--\":1760:1776   */\n      add\n        /* \"--CODEGEN--\":1806:1809   */\n      dup6\n        /* \"--CODEGEN--\":1797:1803   */\n      dup4\n        /* \"--CODEGEN--\":1792:1795   */\n      dup4\n        /* \"--CODEGEN--\":1788:1804   */\n      add\n        /* \"--CODEGEN--\":1785:1810   */\n      gt\n        /* \"--CODEGEN--\":1782:1784   */\n      iszero\n      tag_221\n      jumpi\n        /* \"--CODEGEN--\":1823:1824   */\n      0x00\n        /* \"--CODEGEN--\":1820:1821   */\n      dup1\n        /* \"--CODEGEN--\":1813:1825   */\n      revert\n        /* \"--CODEGEN--\":1782:1784   */\n    tag_221:\n        /* \"--CODEGEN--\":1833:1874   */\n      tag_222\n        /* \"--CODEGEN--\":1867:1873   */\n      dup4\n        /* \"--CODEGEN--\":1862:1865   */\n      dup3\n        /* \"--CODEGEN--\":1857:1860   */\n      dup5\n        /* \"--CODEGEN--\":1833:1874   */\n      jump(tag_215)\n    tag_222:\n        /* \"--CODEGEN--\":1500:1880   */\n      pop\n      pop\n      pop\n      swap3\n      swap2\n      pop\n      pop\n      jump\n        /* \"--CODEGEN--\":1888:2018   */\n    tag_223:\n      0x00\n        /* \"--CODEGEN--\":1968:1974   */\n      dup2\n        /* \"--CODEGEN--\":1955:1975   */\n      calldataload\n        /* \"--CODEGEN--\":1946:1975   */\n      swap1\n      pop\n        /* \"--CODEGEN--\":1980:2013   */\n      tag_224\n        /* \"--CODEGEN--\":2007:2012   */\n      dup2\n        /* \"--CODEGEN--\":1980:2013   */\n      jump(tag_225)\n    tag_224:\n        /* \"--CODEGEN--\":1940:2018   */\n      swap3\n      swap2\n      pop\n      pop\n      jump\n        /* \"--CODEGEN--\":2025:2266   */\n    tag_22:\n      0x00\n        /* \"--CODEGEN--\":2129:2131   */\n      0x20\n        /* \"--CODEGEN--\":2117:2126   */\n      dup3\n        /* \"--CODEGEN--\":2108:2115   */\n      dup5\n        /* \"--CODEGEN--\":2104:2127   */\n      sub\n        /* \"--CODEGEN--\":2100:2132   */\n      slt\n        /* \"--CODEGEN--\":2097:2099   */\n      iszero\n      tag_226\n      jumpi\n        /* \"--CODEGEN--\":2145:2146   */\n      0x00\n        /* \"--CODEGEN--\":2142:2143   */\n      dup1\n        /* \"--CODEGEN--\":2135:2147   */\n      revert\n        /* \"--CODEGEN--\":2097:2099   */\n    tag_226:\n        /* \"--CODEGEN--\":2180:2181   */\n      0x00\n        /* \"--CODEGEN--\":2197:2250   */\n      tag_227\n        /* \"--CODEGEN--\":2242:2249   */\n      dup5\n        /* \"--CODEGEN--\":2233:2239   */\n      dup3\n        /* \"--CODEGEN--\":2222:2231   */\n      dup6\n        /* \"--CODEGEN--\":2218:2240   */\n      add\n        /* \"--CODEGEN--\":2197:2250   */\n      jump(tag_192)\n    tag_227:\n        /* \"--CODEGEN--\":2187:2250   */\n      swap2\n      pop\n        /* \"--CODEGEN--\":2159:2256   */\n      pop\n        /* \"--CODEGEN--\":2091:2266   */\n      swap3\n      swap2\n      pop\n      pop\n      jump\n        /* \"--CODEGEN--\":2273:2639   */\n    tag_14:\n      0x00\n      dup1\n        /* \"--CODEGEN--\":2394:2396   */\n      0x40\n        /* \"--CODEGEN--\":2382:2391   */\n      dup4\n        /* \"--CODEGEN--\":2373:2380   */\n      dup6\n        /* \"--CODEGEN--\":2369:2392   */\n      sub\n        /* \"--CODEGEN--\":2365:2397   */\n      slt\n        /* \"--CODEGEN--\":2362:2364   */\n      iszero\n      tag_228\n      jumpi\n        /* \"--CODEGEN--\":2410:2411   */\n      0x00\n        /* \"--CODEGEN--\":2407:2408   */\n      dup1\n        /* \"--CODEGEN--\":2400:2412   */\n      revert\n        /* \"--CODEGEN--\":2362:2364   */\n    tag_228:\n        /* \"--CODEGEN--\":2445:2446   */\n      0x00\n        /* \"--CODEGEN--\":2462:2515   */\n      tag_229\n        /* \"--CODEGEN--\":2507:2514   */\n      dup6\n        /* \"--CODEGEN--\":2498:2504   */\n      dup3\n        /* \"--CODEGEN--\":2487:2496   */\n      dup7\n        /* \"--CODEGEN--\":2483:2505   */\n      add\n        /* \"--CODEGEN--\":2462:2515   */\n      jump(tag_192)\n    tag_229:\n        /* \"--CODEGEN--\":2452:2515   */\n      swap3\n      pop\n        /* \"--CODEGEN--\":2424:2521   */\n      pop\n        /* \"--CODEGEN--\":2552:2554   */\n      0x20\n        /* \"--CODEGEN--\":2570:2623   */\n      tag_230\n        /* \"--CODEGEN--\":2615:2622   */\n      dup6\n        /* \"--CODEGEN--\":2606:2612   */\n      dup3\n        /* \"--CODEGEN--\":2595:2604   */\n      dup7\n        /* \"--CODEGEN--\":2591:2613   */\n      add\n        /* \"--CODEGEN--\":2570:2623   */\n      jump(tag_223)\n    tag_230:\n        /* \"--CODEGEN--\":2560:2623   */\n      swap2\n      pop\n        /* \"--CODEGEN--\":2531:2629   */\n      pop\n        /* \"--CODEGEN--\":2356:2639   */\n      swap3\n      pop\n      swap3\n      swap1\n      pop\n      jump\n        /* \"--CODEGEN--\":2646:3237   */\n    tag_28:\n      0x00\n      dup1\n      0x00\n        /* \"--CODEGEN--\":2791:2793   */\n      0x60\n        /* \"--CODEGEN--\":2779:2788   */\n      dup5\n        /* \"--CODEGEN--\":2770:2777   */\n      dup7\n        /* \"--CODEGEN--\":2766:2789   */\n      sub\n        /* \"--CODEGEN--\":2762:2794   */\n      slt\n        /* \"--CODEGEN--\":2759:2761   */\n      iszero\n      tag_231\n      jumpi\n        /* \"--CODEGEN--\":2807:2808   */\n      0x00\n        /* \"--CODEGEN--\":2804:2805   */\n      dup1\n        /* \"--CODEGEN--\":2797:2809   */\n      revert\n        /* \"--CODEGEN--\":2759:2761   */\n    tag_231:\n        /* \"--CODEGEN--\":2842:2843   */\n      0x00\n        /* \"--CODEGEN--\":2859:2909   */\n      tag_232\n        /* \"--CODEGEN--\":2901:2908   */\n      dup7\n        /* \"--CODEGEN--\":2892:2898   */\n      dup3\n        /* \"--CODEGEN--\":2881:2890   */\n      dup8\n        /* \"--CODEGEN--\":2877:2899   */\n      add\n        /* \"--CODEGEN--\":2859:2909   */\n      jump(tag_206)\n    tag_232:\n        /* \"--CODEGEN--\":2849:2909   */\n      swap4\n      pop\n        /* \"--CODEGEN--\":2821:2915   */\n      pop\n        /* \"--CODEGEN--\":2946:2948   */\n      0x20\n        /* \"--CODEGEN--\":2964:3017   */\n      tag_233\n        /* \"--CODEGEN--\":3009:3016   */\n      dup7\n        /* \"--CODEGEN--\":3000:3006   */\n      dup3\n        /* \"--CODEGEN--\":2989:2998   */\n      dup8\n        /* \"--CODEGEN--\":2985:3007   */\n      add\n        /* \"--CODEGEN--\":2964:3017   */\n      jump(tag_192)\n    tag_233:\n        /* \"--CODEGEN--\":2954:3017   */\n      swap3\n      pop\n        /* \"--CODEGEN--\":2925:3023   */\n      pop\n        /* \"--CODEGEN--\":3082:3084   */\n      0x40\n        /* \"--CODEGEN--\":3071:3080   */\n      dup5\n        /* \"--CODEGEN--\":3067:3085   */\n      add\n        /* \"--CODEGEN--\":3054:3086   */\n      calldataload\n        /* \"--CODEGEN--\":3106:3124   */\n      0xffffffffffffffff\n        /* \"--CODEGEN--\":3098:3104   */\n      dup2\n        /* \"--CODEGEN--\":3095:3125   */\n      gt\n        /* \"--CODEGEN--\":3092:3094   */\n      iszero\n      tag_234\n      jumpi\n        /* \"--CODEGEN--\":3138:3139   */\n      0x00\n        /* \"--CODEGEN--\":3135:3136   */\n      dup1\n        /* \"--CODEGEN--\":3128:3140   */\n      revert\n        /* \"--CODEGEN--\":3092:3094   */\n    tag_234:\n        /* \"--CODEGEN--\":3158:3221   */\n      tag_235\n        /* \"--CODEGEN--\":3213:3220   */\n      dup7\n        /* \"--CODEGEN--\":3204:3210   */\n      dup3\n        /* \"--CODEGEN--\":3193:3202   */\n      dup8\n        /* \"--CODEGEN--\":3189:3211   */\n      add\n        /* \"--CODEGEN--\":3158:3221   */\n      jump(tag_216)\n    tag_235:\n        /* \"--CODEGEN--\":3148:3221   */\n      swap2\n      pop\n        /* \"--CODEGEN--\":3033:3227   */\n      pop\n        /* \"--CODEGEN--\":2753:3237   */\n      swap3\n      pop\n      swap3\n      pop\n      swap3\n      jump\n        /* \"--CODEGEN--\":3244:4109   */\n    tag_18:\n      0x00\n      dup1\n      0x00\n      dup1\n        /* \"--CODEGEN--\":3437:3440   */\n      0x80\n        /* \"--CODEGEN--\":3425:3434   */\n      dup6\n        /* \"--CODEGEN--\":3416:3423   */\n      dup8\n        /* \"--CODEGEN--\":3412:3435   */\n      sub\n        /* \"--CODEGEN--\":3408:3441   */\n      slt\n        /* \"--CODEGEN--\":3405:3407   */\n      iszero\n      tag_236\n      jumpi\n        /* \"--CODEGEN--\":3454:3455   */\n      0x00\n        /* \"--CODEGEN--\":3451:3452   */\n      dup1\n        /* \"--CODEGEN--\":3444:3456   */\n      revert\n        /* \"--CODEGEN--\":3405:3407   */\n    tag_236:\n        /* \"--CODEGEN--\":3489:3490   */\n      0x00\n        /* \"--CODEGEN--\":3506:3556   */\n      tag_237\n        /* \"--CODEGEN--\":3548:3555   */\n      dup8\n        /* \"--CODEGEN--\":3539:3545   */\n      dup3\n        /* \"--CODEGEN--\":3528:3537   */\n      dup9\n        /* \"--CODEGEN--\":3524:3546   */\n      add\n        /* \"--CODEGEN--\":3506:3556   */\n      jump(tag_206)\n    tag_237:\n        /* \"--CODEGEN--\":3496:3556   */\n      swap5\n      pop\n        /* \"--CODEGEN--\":3468:3562   */\n      pop\n        /* \"--CODEGEN--\":3593:3595   */\n      0x20\n        /* \"--CODEGEN--\":3611:3664   */\n      tag_238\n        /* \"--CODEGEN--\":3656:3663   */\n      dup8\n        /* \"--CODEGEN--\":3647:3653   */\n      dup3\n        /* \"--CODEGEN--\":3636:3645   */\n      dup9\n        /* \"--CODEGEN--\":3632:3654   */\n      add\n        /* \"--CODEGEN--\":3611:3664   */\n      jump(tag_192)\n    tag_238:\n        /* \"--CODEGEN--\":3601:3664   */\n      swap4\n      pop\n        /* \"--CODEGEN--\":3572:3670   */\n      pop\n        /* \"--CODEGEN--\":3729:3731   */\n      0x40\n        /* \"--CODEGEN--\":3718:3727   */\n      dup6\n        /* \"--CODEGEN--\":3714:3732   */\n      add\n        /* \"--CODEGEN--\":3701:3733   */\n      calldataload\n        /* \"--CODEGEN--\":3753:3771   */\n      0xffffffffffffffff\n        /* \"--CODEGEN--\":3745:3751   */\n      dup2\n        /* \"--CODEGEN--\":3742:3772   */\n      gt\n        /* \"--CODEGEN--\":3739:3741   */\n      iszero\n      tag_239\n      jumpi\n        /* \"--CODEGEN--\":3785:3786   */\n      0x00\n        /* \"--CODEGEN--\":3782:3783   */\n      dup1\n        /* \"--CODEGEN--\":3775:3787   */\n      revert\n        /* \"--CODEGEN--\":3739:3741   */\n    tag_239:\n        /* \"--CODEGEN--\":3805:3868   */\n      tag_240\n        /* \"--CODEGEN--\":3860:3867   */\n      dup8\n        /* \"--CODEGEN--\":3851:3857   */\n      dup3\n        /* \"--CODEGEN--\":3840:3849   */\n      dup9\n        /* \"--CODEGEN--\":3836:3858   */\n      add\n        /* \"--CODEGEN--\":3805:3868   */\n      jump(tag_216)\n    tag_240:\n        /* \"--CODEGEN--\":3795:3868   */\n      swap3\n      pop\n        /* \"--CODEGEN--\":3680:3874   */\n      pop\n        /* \"--CODEGEN--\":3933:3935   */\n      0x60\n        /* \"--CODEGEN--\":3922:3931   */\n      dup6\n        /* \"--CODEGEN--\":3918:3936   */\n      add\n        /* \"--CODEGEN--\":3905:3937   */\n      calldataload\n        /* \"--CODEGEN--\":3957:3975   */\n      0xffffffffffffffff\n        /* \"--CODEGEN--\":3949:3955   */\n      dup2\n        /* \"--CODEGEN--\":3946:3976   */\n      gt\n        /* \"--CODEGEN--\":3943:3945   */\n      iszero\n      tag_241\n      jumpi\n        /* \"--CODEGEN--\":3989:3990   */\n      0x00\n        /* \"--CODEGEN--\":3986:3987   */\n      dup1\n        /* \"--CODEGEN--\":3979:3991   */\n      revert\n        /* \"--CODEGEN--\":3943:3945   */\n    tag_241:\n        /* \"--CODEGEN--\":4009:4093   */\n      tag_242\n        /* \"--CODEGEN--\":4085:4092   */\n      dup8\n        /* \"--CODEGEN--\":4076:4082   */\n      dup3\n        /* \"--CODEGEN--\":4065:4074   */\n      dup9\n        /* \"--CODEGEN--\":4061:4083   */\n      add\n        /* \"--CODEGEN--\":4009:4093   */\n      jump(tag_195)\n    tag_242:\n        /* \"--CODEGEN--\":3999:4093   */\n      swap2\n      pop\n        /* \"--CODEGEN--\":3884:4099   */\n      pop\n        /* \"--CODEGEN--\":3399:4109   */\n      swap3\n      swap6\n      swap2\n      swap5\n      pop\n      swap3\n      pop\n      jump\n        /* \"--CODEGEN--\":4116:4819   */\n    tag_37:\n      0x00\n      dup1\n      0x00\n        /* \"--CODEGEN--\":4274:4276   */\n      0x60\n        /* \"--CODEGEN--\":4262:4271   */\n      dup5\n        /* \"--CODEGEN--\":4253:4260   */\n      dup7\n        /* \"--CODEGEN--\":4249:4272   */\n      sub\n        /* \"--CODEGEN--\":4245:4277   */\n      slt\n        /* \"--CODEGEN--\":4242:4244   */\n      iszero\n      tag_243\n      jumpi\n        /* \"--CODEGEN--\":4290:4291   */\n      0x00\n        /* \"--CODEGEN--\":4287:4288   */\n      dup1\n        /* \"--CODEGEN--\":4280:4292   */\n      revert\n        /* \"--CODEGEN--\":4242:4244   */\n    tag_243:\n        /* \"--CODEGEN--\":4353:4354   */\n      0x00\n        /* \"--CODEGEN--\":4342:4351   */\n      dup5\n        /* \"--CODEGEN--\":4338:4355   */\n      add\n        /* \"--CODEGEN--\":4325:4356   */\n      calldataload\n        /* \"--CODEGEN--\":4376:4394   */\n      0xffffffffffffffff\n        /* \"--CODEGEN--\":4368:4374   */\n      dup2\n        /* \"--CODEGEN--\":4365:4395   */\n      gt\n        /* \"--CODEGEN--\":4362:4364   */\n      iszero\n      tag_244\n      jumpi\n        /* \"--CODEGEN--\":4408:4409   */\n      0x00\n        /* \"--CODEGEN--\":4405:4406   */\n      dup1\n        /* \"--CODEGEN--\":4398:4410   */\n      revert\n        /* \"--CODEGEN--\":4362:4364   */\n    tag_244:\n        /* \"--CODEGEN--\":4428:4491   */\n      tag_245\n        /* \"--CODEGEN--\":4483:4490   */\n      dup7\n        /* \"--CODEGEN--\":4474:4480   */\n      dup3\n        /* \"--CODEGEN--\":4463:4472   */\n      dup8\n        /* \"--CODEGEN--\":4459:4481   */\n      add\n        /* \"--CODEGEN--\":4428:4491   */\n      jump(tag_216)\n    tag_245:\n        /* \"--CODEGEN--\":4418:4491   */\n      swap4\n      pop\n        /* \"--CODEGEN--\":4304:4497   */\n      pop\n        /* \"--CODEGEN--\":4528:4530   */\n      0x20\n        /* \"--CODEGEN--\":4546:4599   */\n      tag_246\n        /* \"--CODEGEN--\":4591:4598   */\n      dup7\n        /* \"--CODEGEN--\":4582:4588   */\n      dup3\n        /* \"--CODEGEN--\":4571:4580   */\n      dup8\n        /* \"--CODEGEN--\":4567:4589   */\n      add\n        /* \"--CODEGEN--\":4546:4599   */\n      jump(tag_192)\n    tag_246:\n        /* \"--CODEGEN--\":4536:4599   */\n      swap3\n      pop\n        /* \"--CODEGEN--\":4507:4605   */\n      pop\n        /* \"--CODEGEN--\":4664:4666   */\n      0x40\n        /* \"--CODEGEN--\":4653:4662   */\n      dup5\n        /* \"--CODEGEN--\":4649:4667   */\n      add\n        /* \"--CODEGEN--\":4636:4668   */\n      calldataload\n        /* \"--CODEGEN--\":4688:4706   */\n      0xffffffffffffffff\n        /* \"--CODEGEN--\":4680:4686   */\n      dup2\n        /* \"--CODEGEN--\":4677:4707   */\n      gt\n        /* \"--CODEGEN--\":4674:4676   */\n      iszero\n      tag_247\n      jumpi\n        /* \"--CODEGEN--\":4720:4721   */\n      0x00\n        /* \"--CODEGEN--\":4717:4718   */\n      dup1\n        /* \"--CODEGEN--\":4710:4722   */\n      revert\n        /* \"--CODEGEN--\":4674:4676   */\n    tag_247:\n        /* \"--CODEGEN--\":4740:4803   */\n      tag_248\n        /* \"--CODEGEN--\":4795:4802   */\n      dup7\n        /* \"--CODEGEN--\":4786:4792   */\n      dup3\n        /* \"--CODEGEN--\":4775:4784   */\n      dup8\n        /* \"--CODEGEN--\":4771:4793   */\n      add\n        /* \"--CODEGEN--\":4740:4803   */\n      jump(tag_216)\n    tag_248:\n        /* \"--CODEGEN--\":4730:4803   */\n      swap2\n      pop\n        /* \"--CODEGEN--\":4615:4809   */\n      pop\n        /* \"--CODEGEN--\":4236:4819   */\n      swap3\n      pop\n      swap3\n      pop\n      swap3\n      jump\n        /* \"--CODEGEN--\":4827:5008   */\n    tag_249:\n      0x00\n        /* \"--CODEGEN--\":4940:5002   */\n      tag_250\n        /* \"--CODEGEN--\":4998:5001   */\n      dup4\n        /* \"--CODEGEN--\":4990:4996   */\n      dup4\n        /* \"--CODEGEN--\":4940:5002   */\n      jump(tag_251)\n    tag_250:\n        /* \"--CODEGEN--\":4926:5002   */\n      swap1\n      pop\n        /* \"--CODEGEN--\":4919:5008   */\n      swap3\n      swap2\n      pop\n      pop\n      jump\n        /* \"--CODEGEN--\":5016:5158   */\n    tag_252:\n        /* \"--CODEGEN--\":5107:5152   */\n      tag_253\n        /* \"--CODEGEN--\":5146:5151   */\n      dup2\n        /* \"--CODEGEN--\":5107:5152   */\n      jump(tag_254)\n    tag_253:\n        /* \"--CODEGEN--\":5102:5105   */\n      dup3\n        /* \"--CODEGEN--\":5095:5153   */\n      mstore\n        /* \"--CODEGEN--\":5089:5158   */\n      pop\n      pop\n      jump\n        /* \"--CODEGEN--\":5165:5278   */\n    tag_255:\n        /* \"--CODEGEN--\":5248:5272   */\n      tag_256\n        /* \"--CODEGEN--\":5266:5271   */\n      dup2\n        /* \"--CODEGEN--\":5248:5272   */\n      jump(tag_257)\n    tag_256:\n        /* \"--CODEGEN--\":5243:5246   */\n      dup3\n        /* \"--CODEGEN--\":5236:5273   */\n      mstore\n        /* \"--CODEGEN--\":5230:5278   */\n      pop\n      pop\n      jump\n        /* \"--CODEGEN--\":5314:6210   */\n    tag_258:\n      0x00\n        /* \"--CODEGEN--\":5471:5531   */\n      tag_259\n        /* \"--CODEGEN--\":5525:5530   */\n      dup3\n        /* \"--CODEGEN--\":5471:5531   */\n      jump(tag_260)\n    tag_259:\n        /* \"--CODEGEN--\":5544:5636   */\n      tag_261\n        /* \"--CODEGEN--\":5629:5635   */\n      dup2\n        /* \"--CODEGEN--\":5624:5627   */\n      dup6\n        /* \"--CODEGEN--\":5544:5636   */\n      jump(tag_262)\n    tag_261:\n        /* \"--CODEGEN--\":5537:5636   */\n      swap4\n      pop\n        /* \"--CODEGEN--\":5659:5662   */\n      dup4\n        /* \"--CODEGEN--\":5701:5705   */\n      0x20\n        /* \"--CODEGEN--\":5693:5699   */\n      dup3\n        /* \"--CODEGEN--\":5689:5706   */\n      mul\n        /* \"--CODEGEN--\":5684:5687   */\n      dup6\n        /* \"--CODEGEN--\":5680:5707   */\n      add\n        /* \"--CODEGEN--\":5728:5790   */\n      tag_263\n        /* \"--CODEGEN--\":5784:5789   */\n      dup6\n        /* \"--CODEGEN--\":5728:5790   */\n      jump(tag_264)\n    tag_263:\n        /* \"--CODEGEN--\":5810:5817   */\n      dup1\n        /* \"--CODEGEN--\":5838:5839   */\n      0x00\n        /* \"--CODEGEN--\":5823:6171   */\n    tag_265:\n        /* \"--CODEGEN--\":5848:5854   */\n      dup6\n        /* \"--CODEGEN--\":5845:5846   */\n      dup2\n        /* \"--CODEGEN--\":5842:5855   */\n      lt\n        /* \"--CODEGEN--\":5823:6171   */\n      iszero\n      tag_267\n      jumpi\n        /* \"--CODEGEN--\":5910:5919   */\n      dup5\n        /* \"--CODEGEN--\":5904:5908   */\n      dup5\n        /* \"--CODEGEN--\":5900:5920   */\n      sub\n        /* \"--CODEGEN--\":5895:5898   */\n      dup10\n        /* \"--CODEGEN--\":5888:5921   */\n      mstore\n        /* \"--CODEGEN--\":5955:5961   */\n      dup2\n        /* \"--CODEGEN--\":5949:5962   */\n      mload\n        /* \"--CODEGEN--\":5977:6053   */\n      tag_268\n        /* \"--CODEGEN--\":6048:6052   */\n      dup6\n        /* \"--CODEGEN--\":6033:6046   */\n      dup3\n        /* \"--CODEGEN--\":5977:6053   */\n      jump(tag_249)\n    tag_268:\n        /* \"--CODEGEN--\":5969:6053   */\n      swap5\n      pop\n        /* \"--CODEGEN--\":6070:6136   */\n      tag_269\n        /* \"--CODEGEN--\":6129:6135   */\n      dup4\n        /* \"--CODEGEN--\":6070:6136   */\n      jump(tag_270)\n    tag_269:\n        /* \"--CODEGEN--\":6060:6136   */\n      swap3\n      pop\n        /* \"--CODEGEN--\":6159:6163   */\n      0x20\n        /* \"--CODEGEN--\":6154:6157   */\n      dup11\n        /* \"--CODEGEN--\":6150:6164   */\n      add\n        /* \"--CODEGEN--\":6143:6164   */\n      swap10\n      pop\n        /* \"--CODEGEN--\":5880:6171   */\n      pop\n        /* \"--CODEGEN--\":5870:5871   */\n      0x01\n        /* \"--CODEGEN--\":5867:5868   */\n      dup2\n        /* \"--CODEGEN--\":5863:5872   */\n      add\n        /* \"--CODEGEN--\":5858:5872   */\n      swap1\n      pop\n        /* \"--CODEGEN--\":5823:6171   */\n      jump(tag_265)\n    tag_267:\n        /* \"--CODEGEN--\":5827:5841   */\n      pop\n        /* \"--CODEGEN--\":6184:6188   */\n      dup3\n        /* \"--CODEGEN--\":6177:6188   */\n      swap8\n      pop\n        /* \"--CODEGEN--\":6201:6204   */\n      dup8\n        /* \"--CODEGEN--\":6194:6204   */\n      swap6\n      pop\n        /* \"--CODEGEN--\":5450:6210   */\n      pop\n      pop\n      pop\n      pop\n      pop\n      swap3\n      swap2\n      pop\n      pop\n      jump\n        /* \"--CODEGEN--\":6218:6322   */\n    tag_271:\n        /* \"--CODEGEN--\":6295:6316   */\n      tag_272\n        /* \"--CODEGEN--\":6310:6315   */\n      dup2\n        /* \"--CODEGEN--\":6295:6316   */\n      jump(tag_273)\n    tag_272:\n        /* \"--CODEGEN--\":6290:6293   */\n      dup3\n        /* \"--CODEGEN--\":6283:6317   */\n      mstore\n        /* \"--CODEGEN--\":6277:6322   */\n      pop\n      pop\n      jump\n        /* \"--CODEGEN--\":6329:6676   */\n    tag_274:\n      0x00\n        /* \"--CODEGEN--\":6441:6480   */\n      tag_275\n        /* \"--CODEGEN--\":6474:6479   */\n      dup3\n        /* \"--CODEGEN--\":6441:6480   */\n      jump(tag_276)\n    tag_275:\n        /* \"--CODEGEN--\":6492:6563   */\n      tag_277\n        /* \"--CODEGEN--\":6556:6562   */\n      dup2\n        /* \"--CODEGEN--\":6551:6554   */\n      dup6\n        /* \"--CODEGEN--\":6492:6563   */\n      jump(tag_278)\n    tag_277:\n        /* \"--CODEGEN--\":6485:6563   */\n      swap4\n      pop\n        /* \"--CODEGEN--\":6568:6620   */\n      tag_279\n        /* \"--CODEGEN--\":6613:6619   */\n      dup2\n        /* \"--CODEGEN--\":6608:6611   */\n      dup6\n        /* \"--CODEGEN--\":6601:6605   */\n      0x20\n        /* \"--CODEGEN--\":6594:6599   */\n      dup7\n        /* \"--CODEGEN--\":6590:6606   */\n      add\n        /* \"--CODEGEN--\":6568:6620   */\n      jump(tag_280)\n    tag_279:\n        /* \"--CODEGEN--\":6641:6670   */\n      tag_281\n        /* \"--CODEGEN--\":6663:6669   */\n      dup2\n        /* \"--CODEGEN--\":6641:6670   */\n      jump(tag_282)\n    tag_281:\n        /* \"--CODEGEN--\":6636:6639   */\n      dup5\n        /* \"--CODEGEN--\":6632:6671   */\n      add\n        /* \"--CODEGEN--\":6625:6671   */\n      swap2\n      pop\n        /* \"--CODEGEN--\":6421:6676   */\n      pop\n      swap3\n      swap2\n      pop\n      pop\n      jump\n        /* \"--CODEGEN--\":6683:7002   */\n    tag_251:\n      0x00\n        /* \"--CODEGEN--\":6781:6816   */\n      tag_283\n        /* \"--CODEGEN--\":6810:6815   */\n      dup3\n        /* \"--CODEGEN--\":6781:6816   */\n      jump(tag_284)\n    tag_283:\n        /* \"--CODEGEN--\":6828:6889   */\n      tag_285\n        /* \"--CODEGEN--\":6882:6888   */\n      dup2\n        /* \"--CODEGEN--\":6877:6880   */\n      dup6\n        /* \"--CODEGEN--\":6828:6889   */\n      jump(tag_286)\n    tag_285:\n        /* \"--CODEGEN--\":6821:6889   */\n      swap4\n      pop\n        /* \"--CODEGEN--\":6894:6946   */\n      tag_287\n        /* \"--CODEGEN--\":6939:6945   */\n      dup2\n        /* \"--CODEGEN--\":6934:6937   */\n      dup6\n        /* \"--CODEGEN--\":6927:6931   */\n      0x20\n        /* \"--CODEGEN--\":6920:6925   */\n      dup7\n        /* \"--CODEGEN--\":6916:6932   */\n      add\n        /* \"--CODEGEN--\":6894:6946   */\n      jump(tag_280)\n    tag_287:\n        /* \"--CODEGEN--\":6967:6996   */\n      tag_288\n        /* \"--CODEGEN--\":6989:6995   */\n      dup2\n        /* \"--CODEGEN--\":6967:6996   */\n      jump(tag_282)\n    tag_288:\n        /* \"--CODEGEN--\":6962:6965   */\n      dup5\n        /* \"--CODEGEN--\":6958:6997   */\n      add\n        /* \"--CODEGEN--\":6951:6997   */\n      swap2\n      pop\n        /* \"--CODEGEN--\":6761:7002   */\n      pop\n      swap3\n      swap2\n      pop\n      pop\n      jump\n        /* \"--CODEGEN--\":7010:7334   */\n    tag_289:\n      0x00\n        /* \"--CODEGEN--\":7170:7237   */\n      tag_290\n        /* \"--CODEGEN--\":7234:7236   */\n      0x18\n        /* \"--CODEGEN--\":7229:7232   */\n      dup4\n        /* \"--CODEGEN--\":7170:7237   */\n      jump(tag_278)\n    tag_290:\n        /* \"--CODEGEN--\":7163:7237   */\n      swap2\n      pop\n        /* \"--CODEGEN--\":7270:7296   */\n      0x524547495354455245442050415449454e5453204f4e4c590000000000000000\n        /* \"--CODEGEN--\":7266:7267   */\n      0x00\n        /* \"--CODEGEN--\":7261:7264   */\n      dup4\n        /* \"--CODEGEN--\":7257:7268   */\n      add\n        /* \"--CODEGEN--\":7250:7297   */\n      mstore\n        /* \"--CODEGEN--\":7325:7327   */\n      0x20\n        /* \"--CODEGEN--\":7320:7323   */\n      dup3\n        /* \"--CODEGEN--\":7316:7328   */\n      add\n        /* \"--CODEGEN--\":7309:7328   */\n      swap1\n      pop\n        /* \"--CODEGEN--\":7156:7334   */\n      swap2\n      swap1\n      pop\n      jump\n        /* \"--CODEGEN--\":7343:7719   */\n    tag_291:\n      0x00\n        /* \"--CODEGEN--\":7503:7570   */\n      tag_292\n        /* \"--CODEGEN--\":7567:7569   */\n      0x27\n        /* \"--CODEGEN--\":7562:7565   */\n      dup4\n        /* \"--CODEGEN--\":7503:7570   */\n      jump(tag_278)\n    tag_292:\n        /* \"--CODEGEN--\":7496:7570   */\n      swap2\n      pop\n        /* \"--CODEGEN--\":7603:7637   */\n      0x50415449454e5453204f52204143434553535f4752414e5445445f444f43544f\n        /* \"--CODEGEN--\":7599:7600   */\n      0x00\n        /* \"--CODEGEN--\":7594:7597   */\n      dup4\n        /* \"--CODEGEN--\":7590:7601   */\n      add\n        /* \"--CODEGEN--\":7583:7638   */\n      mstore\n        /* \"--CODEGEN--\":7672:7681   */\n      0x5253204f4e4c5900000000000000000000000000000000000000000000000000\n        /* \"--CODEGEN--\":7667:7669   */\n      0x20\n        /* \"--CODEGEN--\":7662:7665   */\n      dup4\n        /* \"--CODEGEN--\":7658:7670   */\n      add\n        /* \"--CODEGEN--\":7651:7682   */\n      mstore\n        /* \"--CODEGEN--\":7710:7712   */\n      0x40\n        /* \"--CODEGEN--\":7705:7708   */\n      dup3\n        /* \"--CODEGEN--\":7701:7713   */\n      add\n        /* \"--CODEGEN--\":7694:7713   */\n      swap1\n      pop\n        /* \"--CODEGEN--\":7489:7719   */\n      swap2\n      swap1\n      pop\n      jump\n        /* \"--CODEGEN--\":7728:8049   */\n    tag_293:\n      0x00\n        /* \"--CODEGEN--\":7888:7955   */\n      tag_294\n        /* \"--CODEGEN--\":7952:7954   */\n      0x15\n        /* \"--CODEGEN--\":7947:7950   */\n      dup4\n        /* \"--CODEGEN--\":7888:7955   */\n      jump(tag_278)\n    tag_294:\n        /* \"--CODEGEN--\":7881:7955   */\n      swap2\n      pop\n        /* \"--CODEGEN--\":7988:8011   */\n      0x4f4e4c592041444d494e20495320414c4c4f5745440000000000000000000000\n        /* \"--CODEGEN--\":7984:7985   */\n      0x00\n        /* \"--CODEGEN--\":7979:7982   */\n      dup4\n        /* \"--CODEGEN--\":7975:7986   */\n      add\n        /* \"--CODEGEN--\":7968:8012   */\n      mstore\n        /* \"--CODEGEN--\":8040:8042   */\n      0x20\n        /* \"--CODEGEN--\":8035:8038   */\n      dup3\n        /* \"--CODEGEN--\":8031:8043   */\n      add\n        /* \"--CODEGEN--\":8024:8043   */\n      swap1\n      pop\n        /* \"--CODEGEN--\":7874:8049   */\n      swap2\n      swap1\n      pop\n      jump\n        /* \"--CODEGEN--\":8058:8381   */\n    tag_295:\n      0x00\n        /* \"--CODEGEN--\":8218:8285   */\n      tag_296\n        /* \"--CODEGEN--\":8282:8284   */\n      0x17\n        /* \"--CODEGEN--\":8277:8280   */\n      dup4\n        /* \"--CODEGEN--\":8218:8285   */\n      jump(tag_278)\n    tag_296:\n        /* \"--CODEGEN--\":8211:8285   */\n      swap2\n      pop\n        /* \"--CODEGEN--\":8318:8343   */\n      0x5245474953544552454420444f43544f5253204f4e4c59000000000000000000\n        /* \"--CODEGEN--\":8314:8315   */\n      0x00\n        /* \"--CODEGEN--\":8309:8312   */\n      dup4\n        /* \"--CODEGEN--\":8305:8316   */\n      add\n        /* \"--CODEGEN--\":8298:8344   */\n      mstore\n        /* \"--CODEGEN--\":8372:8374   */\n      0x20\n        /* \"--CODEGEN--\":8367:8370   */\n      dup3\n        /* \"--CODEGEN--\":8363:8375   */\n      add\n        /* \"--CODEGEN--\":8356:8375   */\n      swap1\n      pop\n        /* \"--CODEGEN--\":8204:8381   */\n      swap2\n      swap1\n      pop\n      jump\n        /* \"--CODEGEN--\":8390:8711   */\n    tag_297:\n      0x00\n        /* \"--CODEGEN--\":8550:8617   */\n      tag_298\n        /* \"--CODEGEN--\":8614:8616   */\n      0x15\n        /* \"--CODEGEN--\":8609:8612   */\n      dup4\n        /* \"--CODEGEN--\":8550:8617   */\n      jump(tag_278)\n    tag_298:\n        /* \"--CODEGEN--\":8543:8617   */\n      swap2\n      pop\n        /* \"--CODEGEN--\":8650:8673   */\n      0x445220414343455353204e4f54204752414e5445440000000000000000000000\n        /* \"--CODEGEN--\":8646:8647   */\n      0x00\n        /* \"--CODEGEN--\":8641:8644   */\n      dup4\n        /* \"--CODEGEN--\":8637:8648   */\n      add\n        /* \"--CODEGEN--\":8630:8674   */\n      mstore\n        /* \"--CODEGEN--\":8702:8704   */\n      0x20\n        /* \"--CODEGEN--\":8697:8700   */\n      dup3\n        /* \"--CODEGEN--\":8693:8705   */\n      add\n        /* \"--CODEGEN--\":8686:8705   */\n      swap1\n      pop\n        /* \"--CODEGEN--\":8536:8711   */\n      swap2\n      swap1\n      pop\n      jump\n        /* \"--CODEGEN--\":8719:9059   */\n    tag_90:\n      0x00\n        /* \"--CODEGEN--\":8873:8875   */\n      0x40\n        /* \"--CODEGEN--\":8862:8871   */\n      dup3\n        /* \"--CODEGEN--\":8858:8876   */\n      add\n        /* \"--CODEGEN--\":8850:8876   */\n      swap1\n      pop\n        /* \"--CODEGEN--\":8887:8966   */\n      tag_299\n        /* \"--CODEGEN--\":8963:8964   */\n      0x00\n        /* \"--CODEGEN--\":8952:8961   */\n      dup4\n        /* \"--CODEGEN--\":8948:8965   */\n      add\n        /* \"--CODEGEN--\":8939:8945   */\n      dup6\n        /* \"--CODEGEN--\":8887:8966   */\n      jump(tag_252)\n    tag_299:\n        /* \"--CODEGEN--\":8977:9049   */\n      tag_300\n        /* \"--CODEGEN--\":9045:9047   */\n      0x20\n        /* \"--CODEGEN--\":9034:9043   */\n      dup4\n        /* \"--CODEGEN--\":9030:9048   */\n      add\n        /* \"--CODEGEN--\":9021:9027   */\n      dup5\n        /* \"--CODEGEN--\":8977:9049   */\n      jump(tag_255)\n    tag_300:\n        /* \"--CODEGEN--\":8844:9059   */\n      swap4\n      swap3\n      pop\n      pop\n      pop\n      jump\n        /* \"--CODEGEN--\":9066:9406   */\n    tag_54:\n      0x00\n        /* \"--CODEGEN--\":9220:9222   */\n      0x40\n        /* \"--CODEGEN--\":9209:9218   */\n      dup3\n        /* \"--CODEGEN--\":9205:9223   */\n      add\n        /* \"--CODEGEN--\":9197:9223   */\n      swap1\n      pop\n        /* \"--CODEGEN--\":9234:9305   */\n      tag_301\n        /* \"--CODEGEN--\":9302:9303   */\n      0x00\n        /* \"--CODEGEN--\":9291:9300   */\n      dup4\n        /* \"--CODEGEN--\":9287:9304   */\n      add\n        /* \"--CODEGEN--\":9278:9284   */\n      dup6\n        /* \"--CODEGEN--\":9234:9305   */\n      jump(tag_255)\n    tag_301:\n        /* \"--CODEGEN--\":9316:9396   */\n      tag_302\n        /* \"--CODEGEN--\":9392:9394   */\n      0x20\n        /* \"--CODEGEN--\":9381:9390   */\n      dup4\n        /* \"--CODEGEN--\":9377:9395   */\n      add\n        /* \"--CODEGEN--\":9368:9374   */\n      dup5\n        /* \"--CODEGEN--\":9316:9396   */\n      jump(tag_252)\n    tag_302:\n        /* \"--CODEGEN--\":9191:9406   */\n      swap4\n      swap3\n      pop\n      pop\n      pop\n      jump\n        /* \"--CODEGEN--\":9413:9924   */\n    tag_34:\n      0x00\n        /* \"--CODEGEN--\":9601:9603   */\n      0x60\n        /* \"--CODEGEN--\":9590:9599   */\n      dup3\n        /* \"--CODEGEN--\":9586:9604   */\n      add\n        /* \"--CODEGEN--\":9578:9604   */\n      swap1\n      pop\n        /* \"--CODEGEN--\":9615:9680   */\n      tag_303\n        /* \"--CODEGEN--\":9677:9678   */\n      0x00\n        /* \"--CODEGEN--\":9666:9675   */\n      dup4\n        /* \"--CODEGEN--\":9662:9679   */\n      add\n        /* \"--CODEGEN--\":9653:9659   */\n      dup7\n        /* \"--CODEGEN--\":9615:9680   */\n      jump(tag_271)\n    tag_303:\n        /* \"--CODEGEN--\":9691:9763   */\n      tag_304\n        /* \"--CODEGEN--\":9759:9761   */\n      0x20\n        /* \"--CODEGEN--\":9748:9757   */\n      dup4\n        /* \"--CODEGEN--\":9744:9762   */\n      add\n        /* \"--CODEGEN--\":9735:9741   */\n      dup6\n        /* \"--CODEGEN--\":9691:9763   */\n      jump(tag_255)\n    tag_304:\n        /* \"--CODEGEN--\":9811:9820   */\n      dup2\n        /* \"--CODEGEN--\":9805:9809   */\n      dup2\n        /* \"--CODEGEN--\":9801:9821   */\n      sub\n        /* \"--CODEGEN--\":9796:9798   */\n      0x40\n        /* \"--CODEGEN--\":9785:9794   */\n      dup4\n        /* \"--CODEGEN--\":9781:9799   */\n      add\n        /* \"--CODEGEN--\":9774:9822   */\n      mstore\n        /* \"--CODEGEN--\":9836:9914   */\n      tag_305\n        /* \"--CODEGEN--\":9909:9913   */\n      dup2\n        /* \"--CODEGEN--\":9900:9906   */\n      dup5\n        /* \"--CODEGEN--\":9836:9914   */\n      jump(tag_274)\n    tag_305:\n        /* \"--CODEGEN--\":9828:9914   */\n      swap1\n      pop\n        /* \"--CODEGEN--\":9572:9924   */\n      swap5\n      swap4\n      pop\n      pop\n      pop\n      pop\n      jump\n        /* \"--CODEGEN--\":9931:10726   */\n    tag_43:\n      0x00\n        /* \"--CODEGEN--\":10209:10212   */\n      0x80\n        /* \"--CODEGEN--\":10198:10207   */\n      dup3\n        /* \"--CODEGEN--\":10194:10213   */\n      add\n        /* \"--CODEGEN--\":10186:10213   */\n      swap1\n      pop\n        /* \"--CODEGEN--\":10224:10289   */\n      tag_306\n        /* \"--CODEGEN--\":10286:10287   */\n      0x00\n        /* \"--CODEGEN--\":10275:10284   */\n      dup4\n        /* \"--CODEGEN--\":10271:10288   */\n      add\n        /* \"--CODEGEN--\":10262:10268   */\n      dup8\n        /* \"--CODEGEN--\":10224:10289   */\n      jump(tag_271)\n    tag_306:\n        /* \"--CODEGEN--\":10300:10372   */\n      tag_307\n        /* \"--CODEGEN--\":10368:10370   */\n      0x20\n        /* \"--CODEGEN--\":10357:10366   */\n      dup4\n        /* \"--CODEGEN--\":10353:10371   */\n      add\n        /* \"--CODEGEN--\":10344:10350   */\n      dup7\n        /* \"--CODEGEN--\":10300:10372   */\n      jump(tag_255)\n    tag_307:\n        /* \"--CODEGEN--\":10420:10429   */\n      dup2\n        /* \"--CODEGEN--\":10414:10418   */\n      dup2\n        /* \"--CODEGEN--\":10410:10430   */\n      sub\n        /* \"--CODEGEN--\":10405:10407   */\n      0x40\n        /* \"--CODEGEN--\":10394:10403   */\n      dup4\n        /* \"--CODEGEN--\":10390:10408   */\n      add\n        /* \"--CODEGEN--\":10383:10431   */\n      mstore\n        /* \"--CODEGEN--\":10445:10523   */\n      tag_308\n        /* \"--CODEGEN--\":10518:10522   */\n      dup2\n        /* \"--CODEGEN--\":10509:10515   */\n      dup6\n        /* \"--CODEGEN--\":10445:10523   */\n      jump(tag_274)\n    tag_308:\n        /* \"--CODEGEN--\":10437:10523   */\n      swap1\n      pop\n        /* \"--CODEGEN--\":10571:10580   */\n      dup2\n        /* \"--CODEGEN--\":10565:10569   */\n      dup2\n        /* \"--CODEGEN--\":10561:10581   */\n      sub\n        /* \"--CODEGEN--\":10556:10558   */\n      0x60\n        /* \"--CODEGEN--\":10545:10554   */\n      dup4\n        /* \"--CODEGEN--\":10541:10559   */\n      add\n        /* \"--CODEGEN--\":10534:10582   */\n      mstore\n        /* \"--CODEGEN--\":10596:10716   */\n      tag_309\n        /* \"--CODEGEN--\":10711:10715   */\n      dup2\n        /* \"--CODEGEN--\":10702:10708   */\n      dup5\n        /* \"--CODEGEN--\":10596:10716   */\n      jump(tag_258)\n    tag_309:\n        /* \"--CODEGEN--\":10588:10716   */\n      swap1\n      pop\n        /* \"--CODEGEN--\":10180:10726   */\n      swap6\n      swap5\n      pop\n      pop\n      pop\n      pop\n      pop\n      jump\n        /* \"--CODEGEN--\":10733:11940   */\n    tag_25:\n      0x00\n        /* \"--CODEGEN--\":11113:11116   */\n      0xc0\n        /* \"--CODEGEN--\":11102:11111   */\n      dup3\n        /* \"--CODEGEN--\":11098:11117   */\n      add\n        /* \"--CODEGEN--\":11090:11117   */\n      swap1\n      pop\n        /* \"--CODEGEN--\":11164:11173   */\n      dup2\n        /* \"--CODEGEN--\":11158:11162   */\n      dup2\n        /* \"--CODEGEN--\":11154:11174   */\n      sub\n        /* \"--CODEGEN--\":11150:11151   */\n      0x00\n        /* \"--CODEGEN--\":11139:11148   */\n      dup4\n        /* \"--CODEGEN--\":11135:11152   */\n      add\n        /* \"--CODEGEN--\":11128:11175   */\n      mstore\n        /* \"--CODEGEN--\":11189:11267   */\n      tag_310\n        /* \"--CODEGEN--\":11262:11266   */\n      dup2\n        /* \"--CODEGEN--\":11253:11259   */\n      dup10\n        /* \"--CODEGEN--\":11189:11267   */\n      jump(tag_274)\n    tag_310:\n        /* \"--CODEGEN--\":11181:11267   */\n      swap1\n      pop\n        /* \"--CODEGEN--\":11278:11350   */\n      tag_311\n        /* \"--CODEGEN--\":11346:11348   */\n      0x20\n        /* \"--CODEGEN--\":11335:11344   */\n      dup4\n        /* \"--CODEGEN--\":11331:11349   */\n      add\n        /* \"--CODEGEN--\":11322:11328   */\n      dup9\n        /* \"--CODEGEN--\":11278:11350   */\n      jump(tag_255)\n    tag_311:\n        /* \"--CODEGEN--\":11398:11407   */\n      dup2\n        /* \"--CODEGEN--\":11392:11396   */\n      dup2\n        /* \"--CODEGEN--\":11388:11408   */\n      sub\n        /* \"--CODEGEN--\":11383:11385   */\n      0x40\n        /* \"--CODEGEN--\":11372:11381   */\n      dup4\n        /* \"--CODEGEN--\":11368:11386   */\n      add\n        /* \"--CODEGEN--\":11361:11409   */\n      mstore\n        /* \"--CODEGEN--\":11423:11501   */\n      tag_312\n        /* \"--CODEGEN--\":11496:11500   */\n      dup2\n        /* \"--CODEGEN--\":11487:11493   */\n      dup8\n        /* \"--CODEGEN--\":11423:11501   */\n      jump(tag_274)\n    tag_312:\n        /* \"--CODEGEN--\":11415:11501   */\n      swap1\n      pop\n        /* \"--CODEGEN--\":11512:11584   */\n      tag_313\n        /* \"--CODEGEN--\":11580:11582   */\n      0x60\n        /* \"--CODEGEN--\":11569:11578   */\n      dup4\n        /* \"--CODEGEN--\":11565:11583   */\n      add\n        /* \"--CODEGEN--\":11556:11562   */\n      dup7\n        /* \"--CODEGEN--\":11512:11584   */\n      jump(tag_255)\n    tag_313:\n        /* \"--CODEGEN--\":11633:11642   */\n      dup2\n        /* \"--CODEGEN--\":11627:11631   */\n      dup2\n        /* \"--CODEGEN--\":11623:11643   */\n      sub\n        /* \"--CODEGEN--\":11617:11620   */\n      0x80\n        /* \"--CODEGEN--\":11606:11615   */\n      dup4\n        /* \"--CODEGEN--\":11602:11621   */\n      add\n        /* \"--CODEGEN--\":11595:11644   */\n      mstore\n        /* \"--CODEGEN--\":11658:11736   */\n      tag_314\n        /* \"--CODEGEN--\":11731:11735   */\n      dup2\n        /* \"--CODEGEN--\":11722:11728   */\n      dup6\n        /* \"--CODEGEN--\":11658:11736   */\n      jump(tag_274)\n    tag_314:\n        /* \"--CODEGEN--\":11650:11736   */\n      swap1\n      pop\n        /* \"--CODEGEN--\":11785:11794   */\n      dup2\n        /* \"--CODEGEN--\":11779:11783   */\n      dup2\n        /* \"--CODEGEN--\":11775:11795   */\n      sub\n        /* \"--CODEGEN--\":11769:11772   */\n      0xa0\n        /* \"--CODEGEN--\":11758:11767   */\n      dup4\n        /* \"--CODEGEN--\":11754:11773   */\n      add\n        /* \"--CODEGEN--\":11747:11796   */\n      mstore\n        /* \"--CODEGEN--\":11810:11930   */\n      tag_315\n        /* \"--CODEGEN--\":11925:11929   */\n      dup2\n        /* \"--CODEGEN--\":11916:11922   */\n      dup5\n        /* \"--CODEGEN--\":11810:11930   */\n      jump(tag_258)\n    tag_315:\n        /* \"--CODEGEN--\":11802:11930   */\n      swap1\n      pop\n        /* \"--CODEGEN--\":11084:11940   */\n      swap8\n      swap7\n      pop\n      pop\n      pop\n      pop\n      pop\n      pop\n      pop\n      jump\n        /* \"--CODEGEN--\":11947:12354   */\n    tag_51:\n      0x00\n        /* \"--CODEGEN--\":12138:12140   */\n      0x20\n        /* \"--CODEGEN--\":12127:12136   */\n      dup3\n        /* \"--CODEGEN--\":12123:12141   */\n      add\n        /* \"--CODEGEN--\":12115:12141   */\n      swap1\n      pop\n        /* \"--CODEGEN--\":12188:12197   */\n      dup2\n        /* \"--CODEGEN--\":12182:12186   */\n      dup2\n        /* \"--CODEGEN--\":12178:12198   */\n      sub\n        /* \"--CODEGEN--\":12174:12175   */\n      0x00\n        /* \"--CODEGEN--\":12163:12172   */\n      dup4\n        /* \"--CODEGEN--\":12159:12176   */\n      add\n        /* \"--CODEGEN--\":12152:12199   */\n      mstore\n        /* \"--CODEGEN--\":12213:12344   */\n      tag_316\n        /* \"--CODEGEN--\":12339:12343   */\n      dup2\n        /* \"--CODEGEN--\":12213:12344   */\n      jump(tag_289)\n    tag_316:\n        /* \"--CODEGEN--\":12205:12344   */\n      swap1\n      pop\n        /* \"--CODEGEN--\":12109:12354   */\n      swap2\n      swap1\n      pop\n      jump\n        /* \"--CODEGEN--\":12361:12768   */\n    tag_126:\n      0x00\n        /* \"--CODEGEN--\":12552:12554   */\n      0x20\n        /* \"--CODEGEN--\":12541:12550   */\n      dup3\n        /* \"--CODEGEN--\":12537:12555   */\n      add\n        /* \"--CODEGEN--\":12529:12555   */\n      swap1\n      pop\n        /* \"--CODEGEN--\":12602:12611   */\n      dup2\n        /* \"--CODEGEN--\":12596:12600   */\n      dup2\n        /* \"--CODEGEN--\":12592:12612   */\n      sub\n        /* \"--CODEGEN--\":12588:12589   */\n      0x00\n        /* \"--CODEGEN--\":12577:12586   */\n      dup4\n        /* \"--CODEGEN--\":12573:12590   */\n      add\n        /* \"--CODEGEN--\":12566:12613   */\n      mstore\n        /* \"--CODEGEN--\":12627:12758   */\n      tag_317\n        /* \"--CODEGEN--\":12753:12757   */\n      dup2\n        /* \"--CODEGEN--\":12627:12758   */\n      jump(tag_291)\n    tag_317:\n        /* \"--CODEGEN--\":12619:12758   */\n      swap1\n      pop\n        /* \"--CODEGEN--\":12523:12768   */\n      swap2\n      swap1\n      pop\n      jump\n        /* \"--CODEGEN--\":12775:13182   */\n    tag_86:\n      0x00\n        /* \"--CODEGEN--\":12966:12968   */\n      0x20\n        /* \"--CODEGEN--\":12955:12964   */\n      dup3\n        /* \"--CODEGEN--\":12951:12969   */\n      add\n        /* \"--CODEGEN--\":12943:12969   */\n      swap1\n      pop\n        /* \"--CODEGEN--\":13016:13025   */\n      dup2\n        /* \"--CODEGEN--\":13010:13014   */\n      dup2\n        /* \"--CODEGEN--\":13006:13026   */\n      sub\n        /* \"--CODEGEN--\":13002:13003   */\n      0x00\n        /* \"--CODEGEN--\":12991:13000   */\n      dup4\n        /* \"--CODEGEN--\":12987:13004   */\n      add\n        /* \"--CODEGEN--\":12980:13027   */\n      mstore\n        /* \"--CODEGEN--\":13041:13172   */\n      tag_318\n        /* \"--CODEGEN--\":13167:13171   */\n      dup2\n        /* \"--CODEGEN--\":13041:13172   */\n      jump(tag_293)\n    tag_318:\n        /* \"--CODEGEN--\":13033:13172   */\n      swap1\n      pop\n        /* \"--CODEGEN--\":12937:13182   */\n      swap2\n      swap1\n      pop\n      jump\n        /* \"--CODEGEN--\":13189:13596   */\n    tag_58:\n      0x00\n        /* \"--CODEGEN--\":13380:13382   */\n      0x20\n        /* \"--CODEGEN--\":13369:13378   */\n      dup3\n        /* \"--CODEGEN--\":13365:13383   */\n      add\n        /* \"--CODEGEN--\":13357:13383   */\n      swap1\n      pop\n        /* \"--CODEGEN--\":13430:13439   */\n      dup2\n        /* \"--CODEGEN--\":13424:13428   */\n      dup2\n        /* \"--CODEGEN--\":13420:13440   */\n      sub\n        /* \"--CODEGEN--\":13416:13417   */\n      0x00\n        /* \"--CODEGEN--\":13405:13414   */\n      dup4\n        /* \"--CODEGEN--\":13401:13418   */\n      add\n        /* \"--CODEGEN--\":13394:13441   */\n      mstore\n        /* \"--CODEGEN--\":13455:13586   */\n      tag_319\n        /* \"--CODEGEN--\":13581:13585   */\n      dup2\n        /* \"--CODEGEN--\":13455:13586   */\n      jump(tag_295)\n    tag_319:\n        /* \"--CODEGEN--\":13447:13586   */\n      swap1\n      pop\n        /* \"--CODEGEN--\":13351:13596   */\n      swap2\n      swap1\n      pop\n      jump\n        /* \"--CODEGEN--\":13603:14010   */\n    tag_142:\n      0x00\n        /* \"--CODEGEN--\":13794:13796   */\n      0x20\n        /* \"--CODEGEN--\":13783:13792   */\n      dup3\n        /* \"--CODEGEN--\":13779:13797   */\n      add\n        /* \"--CODEGEN--\":13771:13797   */\n      swap1\n      pop\n        /* \"--CODEGEN--\":13844:13853   */\n      dup2\n        /* \"--CODEGEN--\":13838:13842   */\n      dup2\n        /* \"--CODEGEN--\":13834:13854   */\n      sub\n        /* \"--CODEGEN--\":13830:13831   */\n      0x00\n        /* \"--CODEGEN--\":13819:13828   */\n      dup4\n        /* \"--CODEGEN--\":13815:13832   */\n      add\n        /* \"--CODEGEN--\":13808:13855   */\n      mstore\n        /* \"--CODEGEN--\":13869:14000   */\n      tag_320\n        /* \"--CODEGEN--\":13995:13999   */\n      dup2\n        /* \"--CODEGEN--\":13869:14000   */\n      jump(tag_297)\n    tag_320:\n        /* \"--CODEGEN--\":13861:14000   */\n      swap1\n      pop\n        /* \"--CODEGEN--\":13765:14010   */\n      swap2\n      swap1\n      pop\n      jump\n        /* \"--CODEGEN--\":14017:14273   */\n    tag_200:\n      0x00\n        /* \"--CODEGEN--\":14079:14081   */\n      0x40\n        /* \"--CODEGEN--\":14073:14082   */\n      mload\n        /* \"--CODEGEN--\":14063:14082   */\n      swap1\n      pop\n        /* \"--CODEGEN--\":14117:14121   */\n      dup2\n        /* \"--CODEGEN--\":14109:14115   */\n      dup2\n        /* \"--CODEGEN--\":14105:14122   */\n      add\n        /* \"--CODEGEN--\":14216:14222   */\n      dup2\n        /* \"--CODEGEN--\":14204:14214   */\n      dup2\n        /* \"--CODEGEN--\":14201:14223   */\n      lt\n        /* \"--CODEGEN--\":14180:14198   */\n      0xffffffffffffffff\n        /* \"--CODEGEN--\":14168:14178   */\n      dup3\n        /* \"--CODEGEN--\":14165:14199   */\n      gt\n        /* \"--CODEGEN--\":14162:14224   */\n      or\n        /* \"--CODEGEN--\":14159:14161   */\n      iszero\n      tag_321\n      jumpi\n        /* \"--CODEGEN--\":14237:14238   */\n      0x00\n        /* \"--CODEGEN--\":14234:14235   */\n      dup1\n        /* \"--CODEGEN--\":14227:14239   */\n      revert\n        /* \"--CODEGEN--\":14159:14161   */\n    tag_321:\n        /* \"--CODEGEN--\":14257:14267   */\n      dup1\n        /* \"--CODEGEN--\":14253:14255   */\n      0x40\n        /* \"--CODEGEN--\":14246:14268   */\n      mstore\n        /* \"--CODEGEN--\":14057:14273   */\n      pop\n      swap2\n      swap1\n      pop\n      jump\n        /* \"--CODEGEN--\":14280:14590   */\n    tag_199:\n      0x00\n        /* \"--CODEGEN--\":14445:14463   */\n      0xffffffffffffffff\n        /* \"--CODEGEN--\":14437:14443   */\n      dup3\n        /* \"--CODEGEN--\":14434:14464   */\n      gt\n        /* \"--CODEGEN--\":14431:14433   */\n      iszero\n      tag_322\n      jumpi\n        /* \"--CODEGEN--\":14477:14478   */\n      0x00\n        /* \"--CODEGEN--\":14474:14475   */\n      dup1\n        /* \"--CODEGEN--\":14467:14479   */\n      revert\n        /* \"--CODEGEN--\":14431:14433   */\n    tag_322:\n        /* \"--CODEGEN--\":14512:14516   */\n      0x20\n        /* \"--CODEGEN--\":14504:14510   */\n      dup3\n        /* \"--CODEGEN--\":14500:14517   */\n      mul\n        /* \"--CODEGEN--\":14492:14517   */\n      swap1\n      pop\n        /* \"--CODEGEN--\":14575:14579   */\n      0x20\n        /* \"--CODEGEN--\":14569:14573   */\n      dup2\n        /* \"--CODEGEN--\":14565:14580   */\n      add\n        /* \"--CODEGEN--\":14557:14580   */\n      swap1\n      pop\n        /* \"--CODEGEN--\":14368:14590   */\n      swap2\n      swap1\n      pop\n      jump\n        /* \"--CODEGEN--\":14597:14915   */\n    tag_212:\n      0x00\n        /* \"--CODEGEN--\":14737:14755   */\n      0xffffffffffffffff\n        /* \"--CODEGEN--\":14729:14735   */\n      dup3\n        /* \"--CODEGEN--\":14726:14756   */\n      gt\n        /* \"--CODEGEN--\":14723:14725   */\n      iszero\n      tag_323\n      jumpi\n        /* \"--CODEGEN--\":14769:14770   */\n      0x00\n        /* \"--CODEGEN--\":14766:14767   */\n      dup1\n        /* \"--CODEGEN--\":14759:14771   */\n      revert\n        /* \"--CODEGEN--\":14723:14725   */\n    tag_323:\n        /* \"--CODEGEN--\":14836:14840   */\n      0x1f\n        /* \"--CODEGEN--\":14832:14841   */\n      not\n        /* \"--CODEGEN--\":14825:14829   */\n      0x1f\n        /* \"--CODEGEN--\":14817:14823   */\n      dup4\n        /* \"--CODEGEN--\":14813:14830   */\n      add\n        /* \"--CODEGEN--\":14809:14842   */\n      and\n        /* \"--CODEGEN--\":14801:14842   */\n      swap1\n      pop\n        /* \"--CODEGEN--\":14900:14904   */\n      0x20\n        /* \"--CODEGEN--\":14894:14898   */\n      dup2\n        /* \"--CODEGEN--\":14890:14905   */\n      add\n        /* \"--CODEGEN--\":14882:14905   */\n      swap1\n      pop\n        /* \"--CODEGEN--\":14660:14915   */\n      swap2\n      swap1\n      pop\n      jump\n        /* \"--CODEGEN--\":14922:15244   */\n    tag_220:\n      0x00\n        /* \"--CODEGEN--\":15066:15084   */\n      0xffffffffffffffff\n        /* \"--CODEGEN--\":15058:15064   */\n      dup3\n        /* \"--CODEGEN--\":15055:15085   */\n      gt\n        /* \"--CODEGEN--\":15052:15054   */\n      iszero\n      tag_324\n      jumpi\n        /* \"--CODEGEN--\":15098:15099   */\n      0x00\n        /* \"--CODEGEN--\":15095:15096   */\n      dup1\n        /* \"--CODEGEN--\":15088:15100   */\n      revert\n        /* \"--CODEGEN--\":15052:15054   */\n    tag_324:\n        /* \"--CODEGEN--\":15165:15169   */\n      0x1f\n        /* \"--CODEGEN--\":15161:15170   */\n      not\n        /* \"--CODEGEN--\":15154:15158   */\n      0x1f\n        /* \"--CODEGEN--\":15146:15152   */\n      dup4\n        /* \"--CODEGEN--\":15142:15159   */\n      add\n        /* \"--CODEGEN--\":15138:15171   */\n      and\n        /* \"--CODEGEN--\":15130:15171   */\n      swap1\n      pop\n        /* \"--CODEGEN--\":15229:15233   */\n      0x20\n        /* \"--CODEGEN--\":15223:15227   */\n      dup2\n        /* \"--CODEGEN--\":15219:15234   */\n      add\n        /* \"--CODEGEN--\":15211:15234   */\n      swap1\n      pop\n        /* \"--CODEGEN--\":14989:15244   */\n      swap2\n      swap1\n      pop\n      jump\n        /* \"--CODEGEN--\":15251:15408   */\n    tag_264:\n      0x00\n        /* \"--CODEGEN--\":15343:15346   */\n      dup2\n        /* \"--CODEGEN--\":15335:15346   */\n      swap1\n      pop\n        /* \"--CODEGEN--\":15381:15385   */\n      0x20\n        /* \"--CODEGEN--\":15376:15379   */\n      dup3\n        /* \"--CODEGEN--\":15372:15386   */\n      add\n        /* \"--CODEGEN--\":15364:15386   */\n      swap1\n      pop\n        /* \"--CODEGEN--\":15329:15408   */\n      swap2\n      swap1\n      pop\n      jump\n        /* \"--CODEGEN--\":15415:15558   */\n    tag_260:\n      0x00\n        /* \"--CODEGEN--\":15530:15535   */\n      dup2\n        /* \"--CODEGEN--\":15524:15536   */\n      mload\n        /* \"--CODEGEN--\":15514:15536   */\n      swap1\n      pop\n        /* \"--CODEGEN--\":15495:15558   */\n      swap2\n      swap1\n      pop\n      jump\n        /* \"--CODEGEN--\":15565:15683   */\n    tag_284:\n      0x00\n        /* \"--CODEGEN--\":15655:15660   */\n      dup2\n        /* \"--CODEGEN--\":15649:15661   */\n      mload\n        /* \"--CODEGEN--\":15639:15661   */\n      swap1\n      pop\n        /* \"--CODEGEN--\":15620:15683   */\n      swap2\n      swap1\n      pop\n      jump\n        /* \"--CODEGEN--\":15690:15812   */\n    tag_276:\n      0x00\n        /* \"--CODEGEN--\":15784:15789   */\n      dup2\n        /* \"--CODEGEN--\":15778:15790   */\n      mload\n        /* \"--CODEGEN--\":15768:15790   */\n      swap1\n      pop\n        /* \"--CODEGEN--\":15749:15812   */\n      swap2\n      swap1\n      pop\n      jump\n        /* \"--CODEGEN--\":15819:15933   */\n    tag_270:\n      0x00\n        /* \"--CODEGEN--\":15923:15927   */\n      0x20\n        /* \"--CODEGEN--\":15918:15921   */\n      dup3\n        /* \"--CODEGEN--\":15914:15928   */\n      add\n        /* \"--CODEGEN--\":15906:15928   */\n      swap1\n      pop\n        /* \"--CODEGEN--\":15900:15933   */\n      swap2\n      swap1\n      pop\n      jump\n        /* \"--CODEGEN--\":15941:16125   */\n    tag_262:\n      0x00\n        /* \"--CODEGEN--\":16077:16083   */\n      dup3\n        /* \"--CODEGEN--\":16072:16075   */\n      dup3\n        /* \"--CODEGEN--\":16065:16084   */\n      mstore\n        /* \"--CODEGEN--\":16114:16118   */\n      0x20\n        /* \"--CODEGEN--\":16109:16112   */\n      dup3\n        /* \"--CODEGEN--\":16105:16119   */\n      add\n        /* \"--CODEGEN--\":16090:16119   */\n      swap1\n      pop\n        /* \"--CODEGEN--\":16058:16125   */\n      swap3\n      swap2\n      pop\n      pop\n      jump\n        /* \"--CODEGEN--\":16134:16287   */\n    tag_286:\n      0x00\n        /* \"--CODEGEN--\":16239:16245   */\n      dup3\n        /* \"--CODEGEN--\":16234:16237   */\n      dup3\n        /* \"--CODEGEN--\":16227:16246   */\n      mstore\n        /* \"--CODEGEN--\":16276:16280   */\n      0x20\n        /* \"--CODEGEN--\":16271:16274   */\n      dup3\n        /* \"--CODEGEN--\":16267:16281   */\n      add\n        /* \"--CODEGEN--\":16252:16281   */\n      swap1\n      pop\n        /* \"--CODEGEN--\":16220:16287   */\n      swap3\n      swap2\n      pop\n      pop\n      jump\n        /* \"--CODEGEN--\":16296:16459   */\n    tag_278:\n      0x00\n        /* \"--CODEGEN--\":16411:16417   */\n      dup3\n        /* \"--CODEGEN--\":16406:16409   */\n      dup3\n        /* \"--CODEGEN--\":16399:16418   */\n      mstore\n        /* \"--CODEGEN--\":16448:16452   */\n      0x20\n        /* \"--CODEGEN--\":16443:16446   */\n      dup3\n        /* \"--CODEGEN--\":16439:16453   */\n      add\n        /* \"--CODEGEN--\":16424:16453   */\n      swap1\n      pop\n        /* \"--CODEGEN--\":16392:16459   */\n      swap3\n      swap2\n      pop\n      pop\n      jump\n        /* \"--CODEGEN--\":16467:16558   */\n    tag_257:\n      0x00\n        /* \"--CODEGEN--\":16529:16553   */\n      tag_325\n        /* \"--CODEGEN--\":16547:16552   */\n      dup3\n        /* \"--CODEGEN--\":16529:16553   */\n      jump(tag_326)\n    tag_325:\n        /* \"--CODEGEN--\":16518:16553   */\n      swap1\n      pop\n        /* \"--CODEGEN--\":16512:16558   */\n      swap2\n      swap1\n      pop\n      jump\n        /* \"--CODEGEN--\":16565:16650   */\n    tag_273:\n      0x00\n        /* \"--CODEGEN--\":16638:16643   */\n      dup2\n        /* \"--CODEGEN--\":16631:16644   */\n      iszero\n        /* \"--CODEGEN--\":16624:16645   */\n      iszero\n        /* \"--CODEGEN--\":16613:16645   */\n      swap1\n      pop\n        /* \"--CODEGEN--\":16607:16650   */\n      swap2\n      swap1\n      pop\n      jump\n        /* \"--CODEGEN--\":16657:16778   */\n    tag_326:\n      0x00\n        /* \"--CODEGEN--\":16730:16772   */\n      0xffffffffffffffffffffffffffffffffffffffff\n        /* \"--CODEGEN--\":16723:16728   */\n      dup3\n        /* \"--CODEGEN--\":16719:16773   */\n      and\n        /* \"--CODEGEN--\":16708:16773   */\n      swap1\n      pop\n        /* \"--CODEGEN--\":16702:16778   */\n      swap2\n      swap1\n      pop\n      jump\n        /* \"--CODEGEN--\":16785:16857   */\n    tag_327:\n      0x00\n        /* \"--CODEGEN--\":16847:16852   */\n      dup2\n        /* \"--CODEGEN--\":16836:16852   */\n      swap1\n      pop\n        /* \"--CODEGEN--\":16830:16857   */\n      swap2\n      swap1\n      pop\n      jump\n        /* \"--CODEGEN--\":16864:16993   */\n    tag_254:\n      0x00\n        /* \"--CODEGEN--\":16951:16988   */\n      tag_328\n        /* \"--CODEGEN--\":16982:16987   */\n      dup3\n        /* \"--CODEGEN--\":16951:16988   */\n      jump(tag_329)\n    tag_328:\n        /* \"--CODEGEN--\":16938:16988   */\n      swap1\n      pop\n        /* \"--CODEGEN--\":16932:16993   */\n      swap2\n      swap1\n      pop\n      jump\n        /* \"--CODEGEN--\":17000:17121   */\n    tag_329:\n      0x00\n        /* \"--CODEGEN--\":17079:17116   */\n      tag_330\n        /* \"--CODEGEN--\":17110:17115   */\n      dup3\n        /* \"--CODEGEN--\":17079:17116   */\n      jump(tag_331)\n    tag_330:\n        /* \"--CODEGEN--\":17066:17116   */\n      swap1\n      pop\n        /* \"--CODEGEN--\":17060:17121   */\n      swap2\n      swap1\n      pop\n      jump\n        /* \"--CODEGEN--\":17128:17236   */\n    tag_331:\n      0x00\n        /* \"--CODEGEN--\":17207:17231   */\n      tag_332\n        /* \"--CODEGEN--\":17225:17230   */\n      dup3\n        /* \"--CODEGEN--\":17207:17231   */\n      jump(tag_326)\n    tag_332:\n        /* \"--CODEGEN--\":17194:17231   */\n      swap1\n      pop\n        /* \"--CODEGEN--\":17188:17236   */\n      swap2\n      swap1\n      pop\n      jump\n        /* \"--CODEGEN--\":17244:17389   */\n    tag_215:\n        /* \"--CODEGEN--\":17325:17331   */\n      dup3\n        /* \"--CODEGEN--\":17320:17323   */\n      dup2\n        /* \"--CODEGEN--\":17315:17318   */\n      dup4\n        /* \"--CODEGEN--\":17302:17332   */\n      calldatacopy\n        /* \"--CODEGEN--\":17381:17382   */\n      0x00\n        /* \"--CODEGEN--\":17372:17378   */\n      dup4\n        /* \"--CODEGEN--\":17367:17370   */\n      dup4\n        /* \"--CODEGEN--\":17363:17379   */\n      add\n        /* \"--CODEGEN--\":17356:17383   */\n      mstore\n        /* \"--CODEGEN--\":17295:17389   */\n      pop\n      pop\n      pop\n      jump\n        /* \"--CODEGEN--\":17398:17666   */\n    tag_280:\n        /* \"--CODEGEN--\":17463:17464   */\n      0x00\n        /* \"--CODEGEN--\":17470:17571   */\n    tag_333:\n        /* \"--CODEGEN--\":17484:17490   */\n      dup4\n        /* \"--CODEGEN--\":17481:17482   */\n      dup2\n        /* \"--CODEGEN--\":17478:17491   */\n      lt\n        /* \"--CODEGEN--\":17470:17571   */\n      iszero\n      tag_335\n      jumpi\n        /* \"--CODEGEN--\":17560:17561   */\n      dup1\n        /* \"--CODEGEN--\":17555:17558   */\n      dup3\n        /* \"--CODEGEN--\":17551:17562   */\n      add\n        /* \"--CODEGEN--\":17545:17563   */\n      mload\n        /* \"--CODEGEN--\":17541:17542   */\n      dup2\n        /* \"--CODEGEN--\":17536:17539   */\n      dup5\n        /* \"--CODEGEN--\":17532:17543   */\n      add\n        /* \"--CODEGEN--\":17525:17564   */\n      mstore\n        /* \"--CODEGEN--\":17506:17508   */\n      0x20\n        /* \"--CODEGEN--\":17503:17504   */\n      dup2\n        /* \"--CODEGEN--\":17499:17509   */\n      add\n        /* \"--CODEGEN--\":17494:17509   */\n      swap1\n      pop\n        /* \"--CODEGEN--\":17470:17571   */\n      jump(tag_333)\n    tag_335:\n        /* \"--CODEGEN--\":17586:17592   */\n      dup4\n        /* \"--CODEGEN--\":17583:17584   */\n      dup2\n        /* \"--CODEGEN--\":17580:17593   */\n      gt\n        /* \"--CODEGEN--\":17577:17579   */\n      iszero\n      tag_336\n      jumpi\n        /* \"--CODEGEN--\":17651:17652   */\n      0x00\n        /* \"--CODEGEN--\":17642:17648   */\n      dup5\n        /* \"--CODEGEN--\":17637:17640   */\n      dup5\n        /* \"--CODEGEN--\":17633:17649   */\n      add\n        /* \"--CODEGEN--\":17626:17653   */\n      mstore\n        /* \"--CODEGEN--\":17577:17579   */\n    tag_336:\n        /* \"--CODEGEN--\":17447:17666   */\n      pop\n      pop\n      pop\n      pop\n      jump\n        /* \"--CODEGEN--\":17674:17771   */\n    tag_282:\n      0x00\n        /* \"--CODEGEN--\":17762:17764   */\n      0x1f\n        /* \"--CODEGEN--\":17758:17765   */\n      not\n        /* \"--CODEGEN--\":17753:17755   */\n      0x1f\n        /* \"--CODEGEN--\":17746:17751   */\n      dup4\n        /* \"--CODEGEN--\":17742:17756   */\n      add\n        /* \"--CODEGEN--\":17738:17766   */\n      and\n        /* \"--CODEGEN--\":17728:17766   */\n      swap1\n      pop\n        /* \"--CODEGEN--\":17722:17771   */\n      swap2\n      swap1\n      pop\n      jump\n        /* \"--CODEGEN--\":17779:17896   */\n    tag_194:\n        /* \"--CODEGEN--\":17848:17872   */\n      tag_337\n        /* \"--CODEGEN--\":17866:17871   */\n      dup2\n        /* \"--CODEGEN--\":17848:17872   */\n      jump(tag_257)\n    tag_337:\n        /* \"--CODEGEN--\":17841:17846   */\n      dup2\n        /* \"--CODEGEN--\":17838:17873   */\n      eq\n        /* \"--CODEGEN--\":17828:17830   */\n      tag_338\n      jumpi\n        /* \"--CODEGEN--\":17887:17888   */\n      0x00\n        /* \"--CODEGEN--\":17884:17885   */\n      dup1\n        /* \"--CODEGEN--\":17877:17889   */\n      revert\n        /* \"--CODEGEN--\":17828:17830   */\n    tag_338:\n        /* \"--CODEGEN--\":17822:17896   */\n      pop\n      jump\n        /* \"--CODEGEN--\":17903:18014   */\n    tag_208:\n        /* \"--CODEGEN--\":17969:17990   */\n      tag_339\n        /* \"--CODEGEN--\":17984:17989   */\n      dup2\n        /* \"--CODEGEN--\":17969:17990   */\n      jump(tag_273)\n    tag_339:\n        /* \"--CODEGEN--\":17962:17967   */\n      dup2\n        /* \"--CODEGEN--\":17959:17991   */\n      eq\n        /* \"--CODEGEN--\":17949:17951   */\n      tag_340\n      jumpi\n        /* \"--CODEGEN--\":18005:18006   */\n      0x00\n        /* \"--CODEGEN--\":18002:18003   */\n      dup1\n        /* \"--CODEGEN--\":17995:18007   */\n      revert\n        /* \"--CODEGEN--\":17949:17951   */\n    tag_340:\n        /* \"--CODEGEN--\":17943:18014   */\n      pop\n      jump\n        /* \"--CODEGEN--\":18021:18138   */\n    tag_225:\n        /* \"--CODEGEN--\":18090:18114   */\n      tag_341\n        /* \"--CODEGEN--\":18108:18113   */\n      dup2\n        /* \"--CODEGEN--\":18090:18114   */\n      jump(tag_327)\n    tag_341:\n        /* \"--CODEGEN--\":18083:18088   */\n      dup2\n        /* \"--CODEGEN--\":18080:18115   */\n      eq\n        /* \"--CODEGEN--\":18070:18072   */\n      tag_342\n      jumpi\n        /* \"--CODEGEN--\":18129:18130   */\n      0x00\n        /* \"--CODEGEN--\":18126:18127   */\n      dup1\n        /* \"--CODEGEN--\":18119:18131   */\n      revert\n        /* \"--CODEGEN--\":18070:18072   */\n    tag_342:\n        /* \"--CODEGEN--\":18064:18138   */\n      pop\n      jump\n\n    auxdata: 0xa365627a7a723158207991cea8ffe528c2608bb27844159e89b417301ebab2ae016320f13fa12dbd976c6578706572696d656e74616cf564736f6c63430005110040\n}\n",
				"bytecode": {
					"linkReferences": {},
					"object": "608060405234801561001057600080fd5b5033600460006101000a81548173ffffffffffffffffffffffffffffffffffffffff021916908373ffffffffffffffffffffffffffffffffffffffff160217905550613195806100616000396000f3fe608060405234801561001057600080fd5b50600436106100885760003560e01c8063bab90dbd1161005b578063bab90dbd14610116578063c88f22a914610148578063efe2ccc114610164578063f83009ba1461019757610088565b8063506f17731461008d57806371f61bfa146100a95780637827c01a146100c557806380cfed0e146100fa575b600080fd5b6100a760048036036100a291908101906128db565b6101cc565b005b6100c360048036036100be919081019061297e565b610320565b005b6100df60048036036100da91908101906128b2565b6104d7565b6040516100f196959493929190612e01565b60405180910390f35b610114600480360361010f9190810190612917565b610b83565b005b610130600480360361012b91908101906128b2565b610d49565b60405161013f93929190612d70565b60405180910390f35b610162600480360361015d9190810190612a11565b610f76565b005b61017e600480360361017991908101906128b2565b61198b565b60405161018e9493929190612dae565b60405180910390f35b6101b160048036036101ac91908101906128b2565b611d6d565b6040516101c396959493929190612e01565b60405180910390f35b60011515600160003373ffffffffffffffffffffffffffffffffffffffff1673ffffffffffffffffffffffffffffffffffffffff16815260200190815260200160002060000160009054906101000a900460ff16151514610262576040517f08c379a000000000000000000000000000000000000000000000000000000000815260040161025990612e7e565b60405180910390fd5b80600360003373ffffffffffffffffffffffffffffffffffffffff1673ffffffffffffffffffffffffffffffffffffffff16815260200190815260200160002060008473ffffffffffffffffffffffffffffffffffffffff1673ffffffffffffffffffffffffffffffffffffffff168152602001908152602001600020819055507f19dd02d0615ff9058c55159271b51d3d8ead87b40cc392e6dbeca6483cff33338233604051610314929190612d47565b60405180910390a15050565b600115156000803373ffffffffffffffffffffffffffffffffffffffff1673ffffffffffffffffffffffffffffffffffffffff16815260200190815260200160002060000160009054906101000a900460ff161515146103b5576040517f08c379a00000000000000000000000000000000000000000000000000000000081526004016103ac90612ede565b60405180910390fd5b604051806080016040528085151581526020018473ffffffffffffffffffffffffffffffffffffffff16815260200183815260200182815250600160008573ffffffffffffffffffffffffffffffffffffffff1673ffffffffffffffffffffffffffffffffffffffff16815260200190815260200160002060008201518160000160006101000a81548160ff02191690831515021790555060208201518160000160016101000a81548173ffffffffffffffffffffffffffffffffffffffff021916908373ffffffffffffffffffffffffffffffffffffffff16021790555060408201518160010190805190602001906104b09291906124d7565b5060608201518160020190805190602001906104cd929190612557565b5090505050505050565b606060006060600060608060011515600160003373ffffffffffffffffffffffffffffffffffffffff1673ffffffffffffffffffffffffffffffffffffffff16815260200190815260200160002060000160009054906101000a900460ff16151514610578576040517f08c379a000000000000000000000000000000000000000000000000000000000815260040161056f90612e7e565b60405180910390fd5b600260008873ffffffffffffffffffffffffffffffffffffffff1673ffffffffffffffffffffffffffffffffffffffff16815260200190815260200160002060003373ffffffffffffffffffffffffffffffffffffffff1673ffffffffffffffffffffffffffffffffffffffff1681526020019081526020016000206000016001018054600181600116156101000203166002900480601f01602080910402602001604051908101604052809291908181526020018280546001816001161561010002031660029004801561068e5780601f106106635761010080835404028352916020019161068e565b820191906000526020600020905b81548152906001019060200180831161067157829003601f168201915b50505050509550600260008873ffffffffffffffffffffffffffffffffffffffff1673ffffffffffffffffffffffffffffffffffffffff16815260200190815260200160002060003373ffffffffffffffffffffffffffffffffffffffff1673ffffffffffffffffffffffffffffffffffffffff16815260200190815260200160002060000160000160019054906101000a900473ffffffffffffffffffffffffffffffffffffffff169450600260008873ffffffffffffffffffffffffffffffffffffffff1673ffffffffffffffffffffffffffffffffffffffff16815260200190815260200160002060003373ffffffffffffffffffffffffffffffffffffffff1673ffffffffffffffffffffffffffffffffffffffff1681526020019081526020016000206002016001018054600181600116156101000203166002900480601f0160208091040260200160405190810160405280929190818152602001828054600181600116156101000203166002900480156108505780601f1061082557610100808354040283529160200191610850565b820191906000526020600020905b81548152906001019060200180831161083357829003601f168201915b50505050509350600260008873ffffffffffffffffffffffffffffffffffffffff1673ffffffffffffffffffffffffffffffffffffffff16815260200190815260200160002060003373ffffffffffffffffffffffffffffffffffffffff1673ffffffffffffffffffffffffffffffffffffffff16815260200190815260200160002060020160000160019054906101000a900473ffffffffffffffffffffffffffffffffffffffff169250600260008873ffffffffffffffffffffffffffffffffffffffff1673ffffffffffffffffffffffffffffffffffffffff16815260200190815260200160002060003373ffffffffffffffffffffffffffffffffffffffff1673ffffffffffffffffffffffffffffffffffffffff1681526020019081526020016000206005016000018054600181600116156101000203166002900480601f016020809104026020016040519081016040528092919081815260200182805460018160011615610100020316600290048015610a125780601f106109e757610100808354040283529160200191610a12565b820191906000526020600020905b8154815290600101906020018083116109f557829003601f168201915b50505050509150600260008873ffffffffffffffffffffffffffffffffffffffff1673ffffffffffffffffffffffffffffffffffffffff16815260200190815260200160002060003373ffffffffffffffffffffffffffffffffffffffff1673ffffffffffffffffffffffffffffffffffffffff168152602001908152602001600020600601805480602002602001604051908101604052809291908181526020016000905b82821015610b74578382906000526020600020018054600181600116156101000203166002900480601f016020809104026020016040519081016040528092919081815260200182805460018160011615610100020316600290048015610b605780601f10610b3557610100808354040283529160200191610b60565b820191906000526020600020905b815481529060010190602001808311610b4357829003601f168201915b505050505081526020019060010190610ab8565b50505050905091939550919395565b600460009054906101000a900473ffffffffffffffffffffffffffffffffffffffff1673ffffffffffffffffffffffffffffffffffffffff163373ffffffffffffffffffffffffffffffffffffffff1614610c13576040517f08c379a0000000000000000000000000000000000000000000000000000000008152600401610c0a90612ebe565b60405180910390fd5b604051806060016040528084151581526020018373ffffffffffffffffffffffffffffffffffffffff168152602001828152506000808473ffffffffffffffffffffffffffffffffffffffff1673ffffffffffffffffffffffffffffffffffffffff16815260200190815260200160002060008201518160000160006101000a81548160ff02191690831515021790555060208201518160000160016101000a81548173ffffffffffffffffffffffffffffffffffffffff021916908373ffffffffffffffffffffffffffffffffffffffff1602179055506040820151816001019080519060200190610d079291906124d7565b509050507f83c041d3aeb1dcb1f28cb15e20bdfee5ed1ca3740e487f9cab72e13eeb8595053383604051610d3c929190612d1e565b60405180910390a1505050565b6000806060600460009054906101000a900473ffffffffffffffffffffffffffffffffffffffff1673ffffffffffffffffffffffffffffffffffffffff163373ffffffffffffffffffffffffffffffffffffffff1614610dde576040517f08c379a0000000000000000000000000000000000000000000000000000000008152600401610dd590612ebe565b60405180910390fd5b6000808573ffffffffffffffffffffffffffffffffffffffff1673ffffffffffffffffffffffffffffffffffffffff16815260200190815260200160002060000160009054906101000a900460ff1692506000808573ffffffffffffffffffffffffffffffffffffffff1673ffffffffffffffffffffffffffffffffffffffff16815260200190815260200160002060000160019054906101000a900473ffffffffffffffffffffffffffffffffffffffff1691506000808573ffffffffffffffffffffffffffffffffffffffff1673ffffffffffffffffffffffffffffffffffffffff1681526020019081526020016000206001018054600181600116156101000203166002900480601f016020809104026020016040519081016040528092919081815260200182805460018160011615610100020316600290048015610f685780601f10610f3d57610100808354040283529160200191610f68565b820191906000526020600020905b815481529060010190602001808311610f4b57829003601f168201915b505050505090509193909250565b600115156000803373ffffffffffffffffffffffffffffffffffffffff1673ffffffffffffffffffffffffffffffffffffffff16815260200190815260200160002060000160009054906101000a900460ff1615151461100b576040517f08c379a000000000000000000000000000000000000000000000000000000000815260040161100290612ede565b60405180910390fd5b6000803373ffffffffffffffffffffffffffffffffffffffff1673ffffffffffffffffffffffffffffffffffffffff168152602001908152602001600020600101600260003373ffffffffffffffffffffffffffffffffffffffff1673ffffffffffffffffffffffffffffffffffffffff16815260200190815260200160002060008473ffffffffffffffffffffffffffffffffffffffff1673ffffffffffffffffffffffffffffffffffffffff16815260200190815260200160002060000160010190805460018160011615610100020316600290046110ed9291906125b7565b506000803373ffffffffffffffffffffffffffffffffffffffff1673ffffffffffffffffffffffffffffffffffffffff16815260200190815260200160002060000160019054906101000a900473ffffffffffffffffffffffffffffffffffffffff16600260003373ffffffffffffffffffffffffffffffffffffffff1673ffffffffffffffffffffffffffffffffffffffff16815260200190815260200160002060008473ffffffffffffffffffffffffffffffffffffffff1673ffffffffffffffffffffffffffffffffffffffff16815260200190815260200160002060000160000160016101000a81548173ffffffffffffffffffffffffffffffffffffffff021916908373ffffffffffffffffffffffffffffffffffffffff1602179055506001600260003373ffffffffffffffffffffffffffffffffffffffff1673ffffffffffffffffffffffffffffffffffffffff16815260200190815260200160002060008473ffffffffffffffffffffffffffffffffffffffff1673ffffffffffffffffffffffffffffffffffffffff16815260200190815260200160002060020160000160006101000a81548160ff02191690831515021790555081600260003373ffffffffffffffffffffffffffffffffffffffff1673ffffffffffffffffffffffffffffffffffffffff16815260200190815260200160002060008473ffffffffffffffffffffffffffffffffffffffff1673ffffffffffffffffffffffffffffffffffffffff16815260200190815260200160002060020160000160016101000a81548173ffffffffffffffffffffffffffffffffffffffff021916908373ffffffffffffffffffffffffffffffffffffffff16021790555082600260003373ffffffffffffffffffffffffffffffffffffffff1673ffffffffffffffffffffffffffffffffffffffff16815260200190815260200160002060008473ffffffffffffffffffffffffffffffffffffffff1673ffffffffffffffffffffffffffffffffffffffff168152602001908152602001600020600201600101908051906020019061140292919061263e565b5080600260003373ffffffffffffffffffffffffffffffffffffffff1673ffffffffffffffffffffffffffffffffffffffff16815260200190815260200160002060008473ffffffffffffffffffffffffffffffffffffffff1673ffffffffffffffffffffffffffffffffffffffff168152602001908152602001600020600501600001908051906020019061149992919061263e565b50600260003373ffffffffffffffffffffffffffffffffffffffff1673ffffffffffffffffffffffffffffffffffffffff16815260200190815260200160002060008373ffffffffffffffffffffffffffffffffffffffff1673ffffffffffffffffffffffffffffffffffffffff16815260200190815260200160002060060181908060018154018082558091505090600182039060005260206000200160009091929091909150908051906020019061155492919061263e565b5050600160008373ffffffffffffffffffffffffffffffffffffffff1673ffffffffffffffffffffffffffffffffffffffff1681526020019081526020016000206002018190806001815401808255809150509060018203906000526020600020016000909192909190915090805190602001906115d392919061263e565b505061194d600260003373ffffffffffffffffffffffffffffffffffffffff1673ffffffffffffffffffffffffffffffffffffffff16815260200190815260200160002060008473ffffffffffffffffffffffffffffffffffffffff1673ffffffffffffffffffffffffffffffffffffffff16815260200190815260200160002060020160000160009054906101000a900460ff16600260003373ffffffffffffffffffffffffffffffffffffffff1673ffffffffffffffffffffffffffffffffffffffff16815260200190815260200160002060008573ffffffffffffffffffffffffffffffffffffffff1673ffffffffffffffffffffffffffffffffffffffff16815260200190815260200160002060020160000160019054906101000a900473ffffffffffffffffffffffffffffffffffffffff16600260003373ffffffffffffffffffffffffffffffffffffffff1673ffffffffffffffffffffffffffffffffffffffff16815260200190815260200160002060008673ffffffffffffffffffffffffffffffffffffffff1673ffffffffffffffffffffffffffffffffffffffff1681526020019081526020016000206002016001018054600181600116156101000203166002900480601f0160208091040260200160405190810160405280929190818152602001828054600181600116156101000203166002900480156118215780601f106117f657610100808354040283529160200191611821565b820191906000526020600020905b81548152906001019060200180831161180457829003601f168201915b5050505050600160008773ffffffffffffffffffffffffffffffffffffffff1673ffffffffffffffffffffffffffffffffffffffff168152602001908152602001600020600201805480602002602001604051908101604052809291908181526020016000905b82821015611944578382906000526020600020018054600181600116156101000203166002900480601f0160208091040260200160405190810160405280929190818152602001828054600181600116156101000203166002900480156119305780601f1061190557610100808354040283529160200191611930565b820191906000526020600020905b81548152906001019060200180831161191357829003601f168201915b505050505081526020019060010190611888565b50505050610320565b7ffd09d3da0077a9ed9d4af05531b2f844c840c94c1e6535e3d2a09a6ae1aa9a52338360405161197e929190612d1e565b60405180910390a1505050565b60008060608060011515600160003373ffffffffffffffffffffffffffffffffffffffff1673ffffffffffffffffffffffffffffffffffffffff16815260200190815260200160002060000160009054906101000a900460ff1615151480611a6f57506001600360008773ffffffffffffffffffffffffffffffffffffffff1673ffffffffffffffffffffffffffffffffffffffff16815260200190815260200160002060003373ffffffffffffffffffffffffffffffffffffffff1673ffffffffffffffffffffffffffffffffffffffff16815260200190815260200160002054145b611aae576040517f08c379a0000000000000000000000000000000000000000000000000000000008152600401611aa590612e9e565b60405180910390fd5b600160008673ffffffffffffffffffffffffffffffffffffffff1673ffffffffffffffffffffffffffffffffffffffff16815260200190815260200160002060000160009054906101000a900460ff169350600160008673ffffffffffffffffffffffffffffffffffffffff1673ffffffffffffffffffffffffffffffffffffffff16815260200190815260200160002060000160019054906101000a900473ffffffffffffffffffffffffffffffffffffffff169250600160008673ffffffffffffffffffffffffffffffffffffffff1673ffffffffffffffffffffffffffffffffffffffff1681526020019081526020016000206001018054600181600116156101000203166002900480601f016020809104026020016040519081016040528092919081815260200182805460018160011615610100020316600290048015611c3b5780601f10611c1057610100808354040283529160200191611c3b565b820191906000526020600020905b815481529060010190602001808311611c1e57829003601f168201915b50505050509150600160008673ffffffffffffffffffffffffffffffffffffffff1673ffffffffffffffffffffffffffffffffffffffff168152602001908152602001600020600201805480602002602001604051908101604052809291908181526020016000905b82821015611d60578382906000526020600020018054600181600116156101000203166002900480601f016020809104026020016040519081016040528092919081815260200182805460018160011615610100020316600290048015611d4c5780601f10611d2157610100808354040283529160200191611d4c565b820191906000526020600020905b815481529060010190602001808311611d2f57829003601f168201915b505050505081526020019060010190611ca4565b5050505090509193509193565b6060600060606000606080600115156000803373ffffffffffffffffffffffffffffffffffffffff1673ffffffffffffffffffffffffffffffffffffffff16815260200190815260200160002060000160009054906101000a900460ff16151514611e0d576040517f08c379a0000000000000000000000000000000000000000000000000000000008152600401611e0490612ede565b60405180910390fd5b6001600360008973ffffffffffffffffffffffffffffffffffffffff1673ffffffffffffffffffffffffffffffffffffffff16815260200190815260200160002060003373ffffffffffffffffffffffffffffffffffffffff1673ffffffffffffffffffffffffffffffffffffffff1681526020019081526020016000205414611ecc576040517f08c379a0000000000000000000000000000000000000000000000000000000008152600401611ec390612efe565b60405180910390fd5b600260003373ffffffffffffffffffffffffffffffffffffffff1673ffffffffffffffffffffffffffffffffffffffff16815260200190815260200160002060008873ffffffffffffffffffffffffffffffffffffffff1673ffffffffffffffffffffffffffffffffffffffff1681526020019081526020016000206000016001018054600181600116156101000203166002900480601f016020809104026020016040519081016040528092919081815260200182805460018160011615610100020316600290048015611fe25780601f10611fb757610100808354040283529160200191611fe2565b820191906000526020600020905b815481529060010190602001808311611fc557829003601f168201915b50505050509550600260003373ffffffffffffffffffffffffffffffffffffffff1673ffffffffffffffffffffffffffffffffffffffff16815260200190815260200160002060008873ffffffffffffffffffffffffffffffffffffffff1673ffffffffffffffffffffffffffffffffffffffff16815260200190815260200160002060000160000160019054906101000a900473ffffffffffffffffffffffffffffffffffffffff169450600260003373ffffffffffffffffffffffffffffffffffffffff1673ffffffffffffffffffffffffffffffffffffffff16815260200190815260200160002060008873ffffffffffffffffffffffffffffffffffffffff1673ffffffffffffffffffffffffffffffffffffffff1681526020019081526020016000206002016001018054600181600116156101000203166002900480601f0160208091040260200160405190810160405280929190818152602001828054600181600116156101000203166002900480156121a45780601f10612179576101008083540402835291602001916121a4565b820191906000526020600020905b81548152906001019060200180831161218757829003601f168201915b50505050509350600260003373ffffffffffffffffffffffffffffffffffffffff1673ffffffffffffffffffffffffffffffffffffffff16815260200190815260200160002060008873ffffffffffffffffffffffffffffffffffffffff1673ffffffffffffffffffffffffffffffffffffffff16815260200190815260200160002060020160000160019054906101000a900473ffffffffffffffffffffffffffffffffffffffff169250600260003373ffffffffffffffffffffffffffffffffffffffff1673ffffffffffffffffffffffffffffffffffffffff16815260200190815260200160002060008873ffffffffffffffffffffffffffffffffffffffff1673ffffffffffffffffffffffffffffffffffffffff1681526020019081526020016000206005016000018054600181600116156101000203166002900480601f0160208091040260200160405190810160405280929190818152602001828054600181600116156101000203166002900480156123665780601f1061233b57610100808354040283529160200191612366565b820191906000526020600020905b81548152906001019060200180831161234957829003601f168201915b50505050509150600260003373ffffffffffffffffffffffffffffffffffffffff1673ffffffffffffffffffffffffffffffffffffffff16815260200190815260200160002060008873ffffffffffffffffffffffffffffffffffffffff1673ffffffffffffffffffffffffffffffffffffffff168152602001908152602001600020600601805480602002602001604051908101604052809291908181526020016000905b828210156124c8578382906000526020600020018054600181600116156101000203166002900480601f0160208091040260200160405190810160405280929190818152602001828054600181600116156101000203166002900480156124b45780601f10612489576101008083540402835291602001916124b4565b820191906000526020600020905b81548152906001019060200180831161249757829003601f168201915b50505050508152602001906001019061240c565b50505050905091939550919395565b828054600181600116156101000203166002900490600052602060002090601f016020900481019282601f1061251857805160ff1916838001178555612546565b82800160010185558215612546579182015b8281111561254557825182559160200191906001019061252a565b5b50905061255391906126be565b5090565b8280548282559060005260206000209081019282156125a6579160200282015b828111156125a55782518290805190602001906125959291906124d7565b5091602001919060010190612577565b5b5090506125b391906126e3565b5090565b828054600181600116156101000203166002900490600052602060002090601f016020900481019282601f106125f0578054855561262d565b8280016001018555821561262d57600052602060002091601f016020900482015b8281111561262c578254825591600101919060010190612611565b5b50905061263a91906126be565b5090565b828054600181600116156101000203166002900490600052602060002090601f016020900481019282601f1061267f57805160ff19168380011785556126ad565b828001600101855582156126ad579182015b828111156126ac578251825591602001919060010190612691565b5b5090506126ba91906126be565b5090565b6126e091905b808211156126dc5760008160009055506001016126c4565b5090565b90565b61270c91905b8082111561270857600081816126ff919061270f565b506001016126e9565b5090565b90565b50805460018160011615610100020316600290046000825580601f106127355750612754565b601f01602090049060005260206000209081019061275391906126be565b5b50565b6000813590506127668161310d565b92915050565b600082601f83011261277d57600080fd5b813561279061278b82612f4b565b612f1e565b9150818183526020840193506020810190508360005b838110156127d657813586016127bc88826127f5565b8452602084019350602083019250506001810190506127a6565b5050505092915050565b6000813590506127ef81613124565b92915050565b600082601f83011261280657600080fd5b813561281961281482612f73565b612f1e565b9150808252602083016020830185838301111561283557600080fd5b6128408382846130ba565b50505092915050565b600082601f83011261285a57600080fd5b813561286d61286882612f9f565b612f1e565b9150808252602083016020830185838301111561288957600080fd5b6128948382846130ba565b50505092915050565b6000813590506128ac8161313b565b92915050565b6000602082840312156128c457600080fd5b60006128d284828501612757565b91505092915050565b600080604083850312156128ee57600080fd5b60006128fc85828601612757565b925050602061290d8582860161289d565b9150509250929050565b60008060006060848603121561292c57600080fd5b600061293a868287016127e0565b935050602061294b86828701612757565b925050604084013567ffffffffffffffff81111561296857600080fd5b61297486828701612849565b9150509250925092565b6000806000806080858703121561299457600080fd5b60006129a2878288016127e0565b94505060206129b387828801612757565b935050604085013567ffffffffffffffff8111156129d057600080fd5b6129dc87828801612849565b925050606085013567ffffffffffffffff8111156129f957600080fd5b612a058782880161276c565b91505092959194509250565b600080600060608486031215612a2657600080fd5b600084013567ffffffffffffffff811115612a4057600080fd5b612a4c86828701612849565b9350506020612a5d86828701612757565b925050604084013567ffffffffffffffff811115612a7a57600080fd5b612a8686828701612849565b9150509250925092565b6000612a9c8383612b7f565b905092915050565b612aad81613084565b82525050565b612abc8161303c565b82525050565b6000612acd82612fdb565b612ad78185613009565b935083602082028501612ae985612fcb565b8060005b85811015612b255784840389528151612b068582612a90565b9450612b1183612ffc565b925060208a01995050600181019050612aed565b50829750879550505050505092915050565b612b408161304e565b82525050565b6000612b5182612ff1565b612b5b818561302b565b9350612b6b8185602086016130c9565b612b74816130fc565b840191505092915050565b6000612b8a82612fe6565b612b94818561301a565b9350612ba48185602086016130c9565b612bad816130fc565b840191505092915050565b6000612bc560188361302b565b91507f524547495354455245442050415449454e5453204f4e4c5900000000000000006000830152602082019050919050565b6000612c0560278361302b565b91507f50415449454e5453204f52204143434553535f4752414e5445445f444f43544f60008301527f5253204f4e4c59000000000000000000000000000000000000000000000000006020830152604082019050919050565b6000612c6b60158361302b565b91507f4f4e4c592041444d494e20495320414c4c4f57454400000000000000000000006000830152602082019050919050565b6000612cab60178361302b565b91507f5245474953544552454420444f43544f5253204f4e4c590000000000000000006000830152602082019050919050565b6000612ceb60158361302b565b91507f445220414343455353204e4f54204752414e54454400000000000000000000006000830152602082019050919050565b6000604082019050612d336000830185612aa4565b612d406020830184612ab3565b9392505050565b6000604082019050612d5c6000830185612ab3565b612d696020830184612aa4565b9392505050565b6000606082019050612d856000830186612b37565b612d926020830185612ab3565b8181036040830152612da48184612b46565b9050949350505050565b6000608082019050612dc36000830187612b37565b612dd06020830186612ab3565b8181036040830152612de28185612b46565b90508181036060830152612df68184612ac2565b905095945050505050565b600060c0820190508181036000830152612e1b8189612b46565b9050612e2a6020830188612ab3565b8181036040830152612e3c8187612b46565b9050612e4b6060830186612ab3565b8181036080830152612e5d8185612b46565b905081810360a0830152612e718184612ac2565b9050979650505050505050565b60006020820190508181036000830152612e9781612bb8565b9050919050565b60006020820190508181036000830152612eb781612bf8565b9050919050565b60006020820190508181036000830152612ed781612c5e565b9050919050565b60006020820190508181036000830152612ef781612c9e565b9050919050565b60006020820190508181036000830152612f1781612cde565b9050919050565b6000604051905081810181811067ffffffffffffffff82111715612f4157600080fd5b8060405250919050565b600067ffffffffffffffff821115612f6257600080fd5b602082029050602081019050919050565b600067ffffffffffffffff821115612f8a57600080fd5b601f19601f8301169050602081019050919050565b600067ffffffffffffffff821115612fb657600080fd5b601f19601f8301169050602081019050919050565b6000819050602082019050919050565b600081519050919050565b600081519050919050565b600081519050919050565b6000602082019050919050565b600082825260208201905092915050565b600082825260208201905092915050565b600082825260208201905092915050565b60006130478261305a565b9050919050565b60008115159050919050565b600073ffffffffffffffffffffffffffffffffffffffff82169050919050565b6000819050919050565b600061308f82613096565b9050919050565b60006130a1826130a8565b9050919050565b60006130b38261305a565b9050919050565b82818337600083830152505050565b60005b838110156130e75780820151818401526020810190506130cc565b838111156130f6576000848401525b50505050565b6000601f19601f8301169050919050565b6131168161303c565b811461312157600080fd5b50565b61312d8161304e565b811461313857600080fd5b50565b6131448161307a565b811461314f57600080fd5b5056fea365627a7a723158207991cea8ffe528c2608bb27844159e89b417301ebab2ae016320f13fa12dbd976c6578706572696d656e74616cf564736f6c63430005110040",
					"opcodes": "PUSH1 0x80 PUSH1 0x40 MSTORE CALLVALUE DUP1 ISZERO PUSH2 0x10 JUMPI PUSH1 0x0 DUP1 REVERT JUMPDEST POP CALLER PUSH1 0x4 PUSH1 0x0 PUSH2 0x100 EXP DUP2 SLOAD DUP2 PUSH20 0xFFFFFFFFFFFFFFFFFFFFFFFFFFFFFFFFFFFFFFFF MUL NOT AND SWAP1 DUP4 PUSH20 0xFFFFFFFFFFFFFFFFFFFFFFFFFFFFFFFFFFFFFFFF AND MUL OR SWAP1 SSTORE POP PUSH2 0x3195 DUP1 PUSH2 0x61 PUSH1 0x0 CODECOPY PUSH1 0x0 RETURN INVALID PUSH1 0x80 PUSH1 0x40 MSTORE CALLVALUE DUP1 ISZERO PUSH2 0x10 JUMPI PUSH1 0x0 DUP1 REVERT JUMPDEST POP PUSH1 0x4 CALLDATASIZE LT PUSH2 0x88 JUMPI PUSH1 0x0 CALLDATALOAD PUSH1 0xE0 SHR DUP1 PUSH4 0xBAB90DBD GT PUSH2 0x5B JUMPI DUP1 PUSH4 0xBAB90DBD EQ PUSH2 0x116 JUMPI DUP1 PUSH4 0xC88F22A9 EQ PUSH2 0x148 JUMPI DUP1 PUSH4 0xEFE2CCC1 EQ PUSH2 0x164 JUMPI DUP1 PUSH4 0xF83009BA EQ PUSH2 0x197 JUMPI PUSH2 0x88 JUMP JUMPDEST DUP1 PUSH4 0x506F1773 EQ PUSH2 0x8D JUMPI DUP1 PUSH4 0x71F61BFA EQ PUSH2 0xA9 JUMPI DUP1 PUSH4 0x7827C01A EQ PUSH2 0xC5 JUMPI DUP1 PUSH4 0x80CFED0E EQ PUSH2 0xFA JUMPI JUMPDEST PUSH1 0x0 DUP1 REVERT JUMPDEST PUSH2 0xA7 PUSH1 0x4 DUP1 CALLDATASIZE SUB PUSH2 0xA2 SWAP2 SWAP1 DUP2 ADD SWAP1 PUSH2 0x28DB JUMP JUMPDEST PUSH2 0x1CC JUMP JUMPDEST STOP JUMPDEST PUSH2 0xC3 PUSH1 0x4 DUP1 CALLDATASIZE SUB PUSH2 0xBE SWAP2 SWAP1 DUP2 ADD SWAP1 PUSH2 0x297E JUMP JUMPDEST PUSH2 0x320 JUMP JUMPDEST STOP JUMPDEST PUSH2 0xDF PUSH1 0x4 DUP1 CALLDATASIZE SUB PUSH2 0xDA SWAP2 SWAP1 DUP2 ADD SWAP1 PUSH2 0x28B2 JUMP JUMPDEST PUSH2 0x4D7 JUMP JUMPDEST PUSH1 0x40 MLOAD PUSH2 0xF1 SWAP7 SWAP6 SWAP5 SWAP4 SWAP3 SWAP2 SWAP1 PUSH2 0x2E01 JUMP JUMPDEST PUSH1 0x40 MLOAD DUP1 SWAP2 SUB SWAP1 RETURN JUMPDEST PUSH2 0x114 PUSH1 0x4 DUP1 CALLDATASIZE SUB PUSH2 0x10F SWAP2 SWAP1 DUP2 ADD SWAP1 PUSH2 0x2917 JUMP JUMPDEST PUSH2 0xB83 JUMP JUMPDEST STOP JUMPDEST PUSH2 0x130 PUSH1 0x4 DUP1 CALLDATASIZE SUB PUSH2 0x12B SWAP2 SWAP1 DUP2 ADD SWAP1 PUSH2 0x28B2 JUMP JUMPDEST PUSH2 0xD49 JUMP JUMPDEST PUSH1 0x40 MLOAD PUSH2 0x13F SWAP4 SWAP3 SWAP2 SWAP1 PUSH2 0x2D70 JUMP JUMPDEST PUSH1 0x40 MLOAD DUP1 SWAP2 SUB SWAP1 RETURN JUMPDEST PUSH2 0x162 PUSH1 0x4 DUP1 CALLDATASIZE SUB PUSH2 0x15D SWAP2 SWAP1 DUP2 ADD SWAP1 PUSH2 0x2A11 JUMP JUMPDEST PUSH2 0xF76 JUMP JUMPDEST STOP JUMPDEST PUSH2 0x17E PUSH1 0x4 DUP1 CALLDATASIZE SUB PUSH2 0x179 SWAP2 SWAP1 DUP2 ADD SWAP1 PUSH2 0x28B2 JUMP JUMPDEST PUSH2 0x198B JUMP JUMPDEST PUSH1 0x40 MLOAD PUSH2 0x18E SWAP5 SWAP4 SWAP3 SWAP2 SWAP1 PUSH2 0x2DAE JUMP JUMPDEST PUSH1 0x40 MLOAD DUP1 SWAP2 SUB SWAP1 RETURN JUMPDEST PUSH2 0x1B1 PUSH1 0x4 DUP1 CALLDATASIZE SUB PUSH2 0x1AC SWAP2 SWAP1 DUP2 ADD SWAP1 PUSH2 0x28B2 JUMP JUMPDEST PUSH2 0x1D6D JUMP JUMPDEST PUSH1 0x40 MLOAD PUSH2 0x1C3 SWAP7 SWAP6 SWAP5 SWAP4 SWAP3 SWAP2 SWAP1 PUSH2 0x2E01 JUMP JUMPDEST PUSH1 0x40 MLOAD DUP1 SWAP2 SUB SWAP1 RETURN JUMPDEST PUSH1 0x1 ISZERO ISZERO PUSH1 0x1 PUSH1 0x0 CALLER PUSH20 0xFFFFFFFFFFFFFFFFFFFFFFFFFFFFFFFFFFFFFFFF AND PUSH20 0xFFFFFFFFFFFFFFFFFFFFFFFFFFFFFFFFFFFFFFFF AND DUP2 MSTORE PUSH1 0x20 ADD SWAP1 DUP2 MSTORE PUSH1 0x20 ADD PUSH1 0x0 KECCAK256 PUSH1 0x0 ADD PUSH1 0x0 SWAP1 SLOAD SWAP1 PUSH2 0x100 EXP SWAP1 DIV PUSH1 0xFF AND ISZERO ISZERO EQ PUSH2 0x262 JUMPI PUSH1 0x40 MLOAD PUSH32 0x8C379A000000000000000000000000000000000000000000000000000000000 DUP2 MSTORE PUSH1 0x4 ADD PUSH2 0x259 SWAP1 PUSH2 0x2E7E JUMP JUMPDEST PUSH1 0x40 MLOAD DUP1 SWAP2 SUB SWAP1 REVERT JUMPDEST DUP1 PUSH1 0x3 PUSH1 0x0 CALLER PUSH20 0xFFFFFFFFFFFFFFFFFFFFFFFFFFFFFFFFFFFFFFFF AND PUSH20 0xFFFFFFFFFFFFFFFFFFFFFFFFFFFFFFFFFFFFFFFF AND DUP2 MSTORE PUSH1 0x20 ADD SWAP1 DUP2 MSTORE PUSH1 0x20 ADD PUSH1 0x0 KECCAK256 PUSH1 0x0 DUP5 PUSH20 0xFFFFFFFFFFFFFFFFFFFFFFFFFFFFFFFFFFFFFFFF AND PUSH20 0xFFFFFFFFFFFFFFFFFFFFFFFFFFFFFFFFFFFFFFFF AND DUP2 MSTORE PUSH1 0x20 ADD SWAP1 DUP2 MSTORE PUSH1 0x20 ADD PUSH1 0x0 KECCAK256 DUP2 SWAP1 SSTORE POP PUSH32 0x19DD02D0615FF9058C55159271B51D3D8EAD87B40CC392E6DBECA6483CFF3333 DUP3 CALLER PUSH1 0x40 MLOAD PUSH2 0x314 SWAP3 SWAP2 SWAP1 PUSH2 0x2D47 JUMP JUMPDEST PUSH1 0x40 MLOAD DUP1 SWAP2 SUB SWAP1 LOG1 POP POP JUMP JUMPDEST PUSH1 0x1 ISZERO ISZERO PUSH1 0x0 DUP1 CALLER PUSH20 0xFFFFFFFFFFFFFFFFFFFFFFFFFFFFFFFFFFFFFFFF AND PUSH20 0xFFFFFFFFFFFFFFFFFFFFFFFFFFFFFFFFFFFFFFFF AND DUP2 MSTORE PUSH1 0x20 ADD SWAP1 DUP2 MSTORE PUSH1 0x20 ADD PUSH1 0x0 KECCAK256 PUSH1 0x0 ADD PUSH1 0x0 SWAP1 SLOAD SWAP1 PUSH2 0x100 EXP SWAP1 DIV PUSH1 0xFF AND ISZERO ISZERO EQ PUSH2 0x3B5 JUMPI PUSH1 0x40 MLOAD PUSH32 0x8C379A000000000000000000000000000000000000000000000000000000000 DUP2 MSTORE PUSH1 0x4 ADD PUSH2 0x3AC SWAP1 PUSH2 0x2EDE JUMP JUMPDEST PUSH1 0x40 MLOAD DUP1 SWAP2 SUB SWAP1 REVERT JUMPDEST PUSH1 0x40 MLOAD DUP1 PUSH1 0x80 ADD PUSH1 0x40 MSTORE DUP1 DUP6 ISZERO ISZERO DUP2 MSTORE PUSH1 0x20 ADD DUP5 PUSH20 0xFFFFFFFFFFFFFFFFFFFFFFFFFFFFFFFFFFFFFFFF AND DUP2 MSTORE PUSH1 0x20 ADD DUP4 DUP2 MSTORE PUSH1 0x20 ADD DUP3 DUP2 MSTORE POP PUSH1 0x1 PUSH1 0x0 DUP6 PUSH20 0xFFFFFFFFFFFFFFFFFFFFFFFFFFFFFFFFFFFFFFFF AND PUSH20 0xFFFFFFFFFFFFFFFFFFFFFFFFFFFFFFFFFFFFFFFF AND DUP2 MSTORE PUSH1 0x20 ADD SWAP1 DUP2 MSTORE PUSH1 0x20 ADD PUSH1 0x0 KECCAK256 PUSH1 0x0 DUP3 ADD MLOAD DUP2 PUSH1 0x0 ADD PUSH1 0x0 PUSH2 0x100 EXP DUP2 SLOAD DUP2 PUSH1 0xFF MUL NOT AND SWAP1 DUP4 ISZERO ISZERO MUL OR SWAP1 SSTORE POP PUSH1 0x20 DUP3 ADD MLOAD DUP2 PUSH1 0x0 ADD PUSH1 0x1 PUSH2 0x100 EXP DUP2 SLOAD DUP2 PUSH20 0xFFFFFFFFFFFFFFFFFFFFFFFFFFFFFFFFFFFFFFFF MUL NOT AND SWAP1 DUP4 PUSH20 0xFFFFFFFFFFFFFFFFFFFFFFFFFFFFFFFFFFFFFFFF AND MUL OR SWAP1 SSTORE POP PUSH1 0x40 DUP3 ADD MLOAD DUP2 PUSH1 0x1 ADD SWAP1 DUP1 MLOAD SWAP1 PUSH1 0x20 ADD SWAP1 PUSH2 0x4B0 SWAP3 SWAP2 SWAP1 PUSH2 0x24D7 JUMP JUMPDEST POP PUSH1 0x60 DUP3 ADD MLOAD DUP2 PUSH1 0x2 ADD SWAP1 DUP1 MLOAD SWAP1 PUSH1 0x20 ADD SWAP1 PUSH2 0x4CD SWAP3 SWAP2 SWAP1 PUSH2 0x2557 JUMP JUMPDEST POP SWAP1 POP POP POP POP POP POP JUMP JUMPDEST PUSH1 0x60 PUSH1 0x0 PUSH1 0x60 PUSH1 0x0 PUSH1 0x60 DUP1 PUSH1 0x1 ISZERO ISZERO PUSH1 0x1 PUSH1 0x0 CALLER PUSH20 0xFFFFFFFFFFFFFFFFFFFFFFFFFFFFFFFFFFFFFFFF AND PUSH20 0xFFFFFFFFFFFFFFFFFFFFFFFFFFFFFFFFFFFFFFFF AND DUP2 MSTORE PUSH1 0x20 ADD SWAP1 DUP2 MSTORE PUSH1 0x20 ADD PUSH1 0x0 KECCAK256 PUSH1 0x0 ADD PUSH1 0x0 SWAP1 SLOAD SWAP1 PUSH2 0x100 EXP SWAP1 DIV PUSH1 0xFF AND ISZERO ISZERO EQ PUSH2 0x578 JUMPI PUSH1 0x40 MLOAD PUSH32 0x8C379A000000000000000000000000000000000000000000000000000000000 DUP2 MSTORE PUSH1 0x4 ADD PUSH2 0x56F SWAP1 PUSH2 0x2E7E JUMP JUMPDEST PUSH1 0x40 MLOAD DUP1 SWAP2 SUB SWAP1 REVERT JUMPDEST PUSH1 0x2 PUSH1 0x0 DUP9 PUSH20 0xFFFFFFFFFFFFFFFFFFFFFFFFFFFFFFFFFFFFFFFF AND PUSH20 0xFFFFFFFFFFFFFFFFFFFFFFFFFFFFFFFFFFFFFFFF AND DUP2 MSTORE PUSH1 0x20 ADD SWAP1 DUP2 MSTORE PUSH1 0x20 ADD PUSH1 0x0 KECCAK256 PUSH1 0x0 CALLER PUSH20 0xFFFFFFFFFFFFFFFFFFFFFFFFFFFFFFFFFFFFFFFF AND PUSH20 0xFFFFFFFFFFFFFFFFFFFFFFFFFFFFFFFFFFFFFFFF AND DUP2 MSTORE PUSH1 0x20 ADD SWAP1 DUP2 MSTORE PUSH1 0x20 ADD PUSH1 0x0 KECCAK256 PUSH1 0x0 ADD PUSH1 0x1 ADD DUP1 SLOAD PUSH1 0x1 DUP2 PUSH1 0x1 AND ISZERO PUSH2 0x100 MUL SUB AND PUSH1 0x2 SWAP1 DIV DUP1 PUSH1 0x1F ADD PUSH1 0x20 DUP1 SWAP2 DIV MUL PUSH1 0x20 ADD PUSH1 0x40 MLOAD SWAP1 DUP2 ADD PUSH1 0x40 MSTORE DUP1 SWAP3 SWAP2 SWAP1 DUP2 DUP2 MSTORE PUSH1 0x20 ADD DUP3 DUP1 SLOAD PUSH1 0x1 DUP2 PUSH1 0x1 AND ISZERO PUSH2 0x100 MUL SUB AND PUSH1 0x2 SWAP1 DIV DUP1 ISZERO PUSH2 0x68E JUMPI DUP1 PUSH1 0x1F LT PUSH2 0x663 JUMPI PUSH2 0x100 DUP1 DUP4 SLOAD DIV MUL DUP4 MSTORE SWAP2 PUSH1 0x20 ADD SWAP2 PUSH2 0x68E JUMP JUMPDEST DUP3 ADD SWAP2 SWAP1 PUSH1 0x0 MSTORE PUSH1 0x20 PUSH1 0x0 KECCAK256 SWAP1 JUMPDEST DUP2 SLOAD DUP2 MSTORE SWAP1 PUSH1 0x1 ADD SWAP1 PUSH1 0x20 ADD DUP1 DUP4 GT PUSH2 0x671 JUMPI DUP3 SWAP1 SUB PUSH1 0x1F AND DUP3 ADD SWAP2 JUMPDEST POP POP POP POP POP SWAP6 POP PUSH1 0x2 PUSH1 0x0 DUP9 PUSH20 0xFFFFFFFFFFFFFFFFFFFFFFFFFFFFFFFFFFFFFFFF AND PUSH20 0xFFFFFFFFFFFFFFFFFFFFFFFFFFFFFFFFFFFFFFFF AND DUP2 MSTORE PUSH1 0x20 ADD SWAP1 DUP2 MSTORE PUSH1 0x20 ADD PUSH1 0x0 KECCAK256 PUSH1 0x0 CALLER PUSH20 0xFFFFFFFFFFFFFFFFFFFFFFFFFFFFFFFFFFFFFFFF AND PUSH20 0xFFFFFFFFFFFFFFFFFFFFFFFFFFFFFFFFFFFFFFFF AND DUP2 MSTORE PUSH1 0x20 ADD SWAP1 DUP2 MSTORE PUSH1 0x20 ADD PUSH1 0x0 KECCAK256 PUSH1 0x0 ADD PUSH1 0x0 ADD PUSH1 0x1 SWAP1 SLOAD SWAP1 PUSH2 0x100 EXP SWAP1 DIV PUSH20 0xFFFFFFFFFFFFFFFFFFFFFFFFFFFFFFFFFFFFFFFF AND SWAP5 POP PUSH1 0x2 PUSH1 0x0 DUP9 PUSH20 0xFFFFFFFFFFFFFFFFFFFFFFFFFFFFFFFFFFFFFFFF AND PUSH20 0xFFFFFFFFFFFFFFFFFFFFFFFFFFFFFFFFFFFFFFFF AND DUP2 MSTORE PUSH1 0x20 ADD SWAP1 DUP2 MSTORE PUSH1 0x20 ADD PUSH1 0x0 KECCAK256 PUSH1 0x0 CALLER PUSH20 0xFFFFFFFFFFFFFFFFFFFFFFFFFFFFFFFFFFFFFFFF AND PUSH20 0xFFFFFFFFFFFFFFFFFFFFFFFFFFFFFFFFFFFFFFFF AND DUP2 MSTORE PUSH1 0x20 ADD SWAP1 DUP2 MSTORE PUSH1 0x20 ADD PUSH1 0x0 KECCAK256 PUSH1 0x2 ADD PUSH1 0x1 ADD DUP1 SLOAD PUSH1 0x1 DUP2 PUSH1 0x1 AND ISZERO PUSH2 0x100 MUL SUB AND PUSH1 0x2 SWAP1 DIV DUP1 PUSH1 0x1F ADD PUSH1 0x20 DUP1 SWAP2 DIV MUL PUSH1 0x20 ADD PUSH1 0x40 MLOAD SWAP1 DUP2 ADD PUSH1 0x40 MSTORE DUP1 SWAP3 SWAP2 SWAP1 DUP2 DUP2 MSTORE PUSH1 0x20 ADD DUP3 DUP1 SLOAD PUSH1 0x1 DUP2 PUSH1 0x1 AND ISZERO PUSH2 0x100 MUL SUB AND PUSH1 0x2 SWAP1 DIV DUP1 ISZERO PUSH2 0x850 JUMPI DUP1 PUSH1 0x1F LT PUSH2 0x825 JUMPI PUSH2 0x100 DUP1 DUP4 SLOAD DIV MUL DUP4 MSTORE SWAP2 PUSH1 0x20 ADD SWAP2 PUSH2 0x850 JUMP JUMPDEST DUP3 ADD SWAP2 SWAP1 PUSH1 0x0 MSTORE PUSH1 0x20 PUSH1 0x0 KECCAK256 SWAP1 JUMPDEST DUP2 SLOAD DUP2 MSTORE SWAP1 PUSH1 0x1 ADD SWAP1 PUSH1 0x20 ADD DUP1 DUP4 GT PUSH2 0x833 JUMPI DUP3 SWAP1 SUB PUSH1 0x1F AND DUP3 ADD SWAP2 JUMPDEST POP POP POP POP POP SWAP4 POP PUSH1 0x2 PUSH1 0x0 DUP9 PUSH20 0xFFFFFFFFFFFFFFFFFFFFFFFFFFFFFFFFFFFFFFFF AND PUSH20 0xFFFFFFFFFFFFFFFFFFFFFFFFFFFFFFFFFFFFFFFF AND DUP2 MSTORE PUSH1 0x20 ADD SWAP1 DUP2 MSTORE PUSH1 0x20 ADD PUSH1 0x0 KECCAK256 PUSH1 0x0 CALLER PUSH20 0xFFFFFFFFFFFFFFFFFFFFFFFFFFFFFFFFFFFFFFFF AND PUSH20 0xFFFFFFFFFFFFFFFFFFFFFFFFFFFFFFFFFFFFFFFF AND DUP2 MSTORE PUSH1 0x20 ADD SWAP1 DUP2 MSTORE PUSH1 0x20 ADD PUSH1 0x0 KECCAK256 PUSH1 0x2 ADD PUSH1 0x0 ADD PUSH1 0x1 SWAP1 SLOAD SWAP1 PUSH2 0x100 EXP SWAP1 DIV PUSH20 0xFFFFFFFFFFFFFFFFFFFFFFFFFFFFFFFFFFFFFFFF AND SWAP3 POP PUSH1 0x2 PUSH1 0x0 DUP9 PUSH20 0xFFFFFFFFFFFFFFFFFFFFFFFFFFFFFFFFFFFFFFFF AND PUSH20 0xFFFFFFFFFFFFFFFFFFFFFFFFFFFFFFFFFFFFFFFF AND DUP2 MSTORE PUSH1 0x20 ADD SWAP1 DUP2 MSTORE PUSH1 0x20 ADD PUSH1 0x0 KECCAK256 PUSH1 0x0 CALLER PUSH20 0xFFFFFFFFFFFFFFFFFFFFFFFFFFFFFFFFFFFFFFFF AND PUSH20 0xFFFFFFFFFFFFFFFFFFFFFFFFFFFFFFFFFFFFFFFF AND DUP2 MSTORE PUSH1 0x20 ADD SWAP1 DUP2 MSTORE PUSH1 0x20 ADD PUSH1 0x0 KECCAK256 PUSH1 0x5 ADD PUSH1 0x0 ADD DUP1 SLOAD PUSH1 0x1 DUP2 PUSH1 0x1 AND ISZERO PUSH2 0x100 MUL SUB AND PUSH1 0x2 SWAP1 DIV DUP1 PUSH1 0x1F ADD PUSH1 0x20 DUP1 SWAP2 DIV MUL PUSH1 0x20 ADD PUSH1 0x40 MLOAD SWAP1 DUP2 ADD PUSH1 0x40 MSTORE DUP1 SWAP3 SWAP2 SWAP1 DUP2 DUP2 MSTORE PUSH1 0x20 ADD DUP3 DUP1 SLOAD PUSH1 0x1 DUP2 PUSH1 0x1 AND ISZERO PUSH2 0x100 MUL SUB AND PUSH1 0x2 SWAP1 DIV DUP1 ISZERO PUSH2 0xA12 JUMPI DUP1 PUSH1 0x1F LT PUSH2 0x9E7 JUMPI PUSH2 0x100 DUP1 DUP4 SLOAD DIV MUL DUP4 MSTORE SWAP2 PUSH1 0x20 ADD SWAP2 PUSH2 0xA12 JUMP JUMPDEST DUP3 ADD SWAP2 SWAP1 PUSH1 0x0 MSTORE PUSH1 0x20 PUSH1 0x0 KECCAK256 SWAP1 JUMPDEST DUP2 SLOAD DUP2 MSTORE SWAP1 PUSH1 0x1 ADD SWAP1 PUSH1 0x20 ADD DUP1 DUP4 GT PUSH2 0x9F5 JUMPI DUP3 SWAP1 SUB PUSH1 0x1F AND DUP3 ADD SWAP2 JUMPDEST POP POP POP POP POP SWAP2 POP PUSH1 0x2 PUSH1 0x0 DUP9 PUSH20 0xFFFFFFFFFFFFFFFFFFFFFFFFFFFFFFFFFFFFFFFF AND PUSH20 0xFFFFFFFFFFFFFFFFFFFFFFFFFFFFFFFFFFFFFFFF AND DUP2 MSTORE PUSH1 0x20 ADD SWAP1 DUP2 MSTORE PUSH1 0x20 ADD PUSH1 0x0 KECCAK256 PUSH1 0x0 CALLER PUSH20 0xFFFFFFFFFFFFFFFFFFFFFFFFFFFFFFFFFFFFFFFF AND PUSH20 0xFFFFFFFFFFFFFFFFFFFFFFFFFFFFFFFFFFFFFFFF AND DUP2 MSTORE PUSH1 0x20 ADD SWAP1 DUP2 MSTORE PUSH1 0x20 ADD PUSH1 0x0 KECCAK256 PUSH1 0x6 ADD DUP1 SLOAD DUP1 PUSH1 0x20 MUL PUSH1 0x20 ADD PUSH1 0x40 MLOAD SWAP1 DUP2 ADD PUSH1 0x40 MSTORE DUP1 SWAP3 SWAP2 SWAP1 DUP2 DUP2 MSTORE PUSH1 0x20 ADD PUSH1 0x0 SWAP1 JUMPDEST DUP3 DUP3 LT ISZERO PUSH2 0xB74 JUMPI DUP4 DUP3 SWAP1 PUSH1 0x0 MSTORE PUSH1 0x20 PUSH1 0x0 KECCAK256 ADD DUP1 SLOAD PUSH1 0x1 DUP2 PUSH1 0x1 AND ISZERO PUSH2 0x100 MUL SUB AND PUSH1 0x2 SWAP1 DIV DUP1 PUSH1 0x1F ADD PUSH1 0x20 DUP1 SWAP2 DIV MUL PUSH1 0x20 ADD PUSH1 0x40 MLOAD SWAP1 DUP2 ADD PUSH1 0x40 MSTORE DUP1 SWAP3 SWAP2 SWAP1 DUP2 DUP2 MSTORE PUSH1 0x20 ADD DUP3 DUP1 SLOAD PUSH1 0x1 DUP2 PUSH1 0x1 AND ISZERO PUSH2 0x100 MUL SUB AND PUSH1 0x2 SWAP1 DIV DUP1 ISZERO PUSH2 0xB60 JUMPI DUP1 PUSH1 0x1F LT PUSH2 0xB35 JUMPI PUSH2 0x100 DUP1 DUP4 SLOAD DIV MUL DUP4 MSTORE SWAP2 PUSH1 0x20 ADD SWAP2 PUSH2 0xB60 JUMP JUMPDEST DUP3 ADD SWAP2 SWAP1 PUSH1 0x0 MSTORE PUSH1 0x20 PUSH1 0x0 KECCAK256 SWAP1 JUMPDEST DUP2 SLOAD DUP2 MSTORE SWAP1 PUSH1 0x1 ADD SWAP1 PUSH1 0x20 ADD DUP1 DUP4 GT PUSH2 0xB43 JUMPI DUP3 SWAP1 SUB PUSH1 0x1F AND DUP3 ADD SWAP2 JUMPDEST POP POP POP POP POP DUP2 MSTORE PUSH1 0x20 ADD SWAP1 PUSH1 0x1 ADD SWAP1 PUSH2 0xAB8 JUMP JUMPDEST POP POP POP POP SWAP1 POP SWAP2 SWAP4 SWAP6 POP SWAP2 SWAP4 SWAP6 JUMP JUMPDEST PUSH1 0x4 PUSH1 0x0 SWAP1 SLOAD SWAP1 PUSH2 0x100 EXP SWAP1 DIV PUSH20 0xFFFFFFFFFFFFFFFFFFFFFFFFFFFFFFFFFFFFFFFF AND PUSH20 0xFFFFFFFFFFFFFFFFFFFFFFFFFFFFFFFFFFFFFFFF AND CALLER PUSH20 0xFFFFFFFFFFFFFFFFFFFFFFFFFFFFFFFFFFFFFFFF AND EQ PUSH2 0xC13 JUMPI PUSH1 0x40 MLOAD PUSH32 0x8C379A000000000000000000000000000000000000000000000000000000000 DUP2 MSTORE PUSH1 0x4 ADD PUSH2 0xC0A SWAP1 PUSH2 0x2EBE JUMP JUMPDEST PUSH1 0x40 MLOAD DUP1 SWAP2 SUB SWAP1 REVERT JUMPDEST PUSH1 0x40 MLOAD DUP1 PUSH1 0x60 ADD PUSH1 0x40 MSTORE DUP1 DUP5 ISZERO ISZERO DUP2 MSTORE PUSH1 0x20 ADD DUP4 PUSH20 0xFFFFFFFFFFFFFFFFFFFFFFFFFFFFFFFFFFFFFFFF AND DUP2 MSTORE PUSH1 0x20 ADD DUP3 DUP2 MSTORE POP PUSH1 0x0 DUP1 DUP5 PUSH20 0xFFFFFFFFFFFFFFFFFFFFFFFFFFFFFFFFFFFFFFFF AND PUSH20 0xFFFFFFFFFFFFFFFFFFFFFFFFFFFFFFFFFFFFFFFF AND DUP2 MSTORE PUSH1 0x20 ADD SWAP1 DUP2 MSTORE PUSH1 0x20 ADD PUSH1 0x0 KECCAK256 PUSH1 0x0 DUP3 ADD MLOAD DUP2 PUSH1 0x0 ADD PUSH1 0x0 PUSH2 0x100 EXP DUP2 SLOAD DUP2 PUSH1 0xFF MUL NOT AND SWAP1 DUP4 ISZERO ISZERO MUL OR SWAP1 SSTORE POP PUSH1 0x20 DUP3 ADD MLOAD DUP2 PUSH1 0x0 ADD PUSH1 0x1 PUSH2 0x100 EXP DUP2 SLOAD DUP2 PUSH20 0xFFFFFFFFFFFFFFFFFFFFFFFFFFFFFFFFFFFFFFFF MUL NOT AND SWAP1 DUP4 PUSH20 0xFFFFFFFFFFFFFFFFFFFFFFFFFFFFFFFFFFFFFFFF AND MUL OR SWAP1 SSTORE POP PUSH1 0x40 DUP3 ADD MLOAD DUP2 PUSH1 0x1 ADD SWAP1 DUP1 MLOAD SWAP1 PUSH1 0x20 ADD SWAP1 PUSH2 0xD07 SWAP3 SWAP2 SWAP1 PUSH2 0x24D7 JUMP JUMPDEST POP SWAP1 POP POP PUSH32 0x83C041D3AEB1DCB1F28CB15E20BDFEE5ED1CA3740E487F9CAB72E13EEB859505 CALLER DUP4 PUSH1 0x40 MLOAD PUSH2 0xD3C SWAP3 SWAP2 SWAP1 PUSH2 0x2D1E JUMP JUMPDEST PUSH1 0x40 MLOAD DUP1 SWAP2 SUB SWAP1 LOG1 POP POP POP JUMP JUMPDEST PUSH1 0x0 DUP1 PUSH1 0x60 PUSH1 0x4 PUSH1 0x0 SWAP1 SLOAD SWAP1 PUSH2 0x100 EXP SWAP1 DIV PUSH20 0xFFFFFFFFFFFFFFFFFFFFFFFFFFFFFFFFFFFFFFFF AND PUSH20 0xFFFFFFFFFFFFFFFFFFFFFFFFFFFFFFFFFFFFFFFF AND CALLER PUSH20 0xFFFFFFFFFFFFFFFFFFFFFFFFFFFFFFFFFFFFFFFF AND EQ PUSH2 0xDDE JUMPI PUSH1 0x40 MLOAD PUSH32 0x8C379A000000000000000000000000000000000000000000000000000000000 DUP2 MSTORE PUSH1 0x4 ADD PUSH2 0xDD5 SWAP1 PUSH2 0x2EBE JUMP JUMPDEST PUSH1 0x40 MLOAD DUP1 SWAP2 SUB SWAP1 REVERT JUMPDEST PUSH1 0x0 DUP1 DUP6 PUSH20 0xFFFFFFFFFFFFFFFFFFFFFFFFFFFFFFFFFFFFFFFF AND PUSH20 0xFFFFFFFFFFFFFFFFFFFFFFFFFFFFFFFFFFFFFFFF AND DUP2 MSTORE PUSH1 0x20 ADD SWAP1 DUP2 MSTORE PUSH1 0x20 ADD PUSH1 0x0 KECCAK256 PUSH1 0x0 ADD PUSH1 0x0 SWAP1 SLOAD SWAP1 PUSH2 0x100 EXP SWAP1 DIV PUSH1 0xFF AND SWAP3 POP PUSH1 0x0 DUP1 DUP6 PUSH20 0xFFFFFFFFFFFFFFFFFFFFFFFFFFFFFFFFFFFFFFFF AND PUSH20 0xFFFFFFFFFFFFFFFFFFFFFFFFFFFFFFFFFFFFFFFF AND DUP2 MSTORE PUSH1 0x20 ADD SWAP1 DUP2 MSTORE PUSH1 0x20 ADD PUSH1 0x0 KECCAK256 PUSH1 0x0 ADD PUSH1 0x1 SWAP1 SLOAD SWAP1 PUSH2 0x100 EXP SWAP1 DIV PUSH20 0xFFFFFFFFFFFFFFFFFFFFFFFFFFFFFFFFFFFFFFFF AND SWAP2 POP PUSH1 0x0 DUP1 DUP6 PUSH20 0xFFFFFFFFFFFFFFFFFFFFFFFFFFFFFFFFFFFFFFFF AND PUSH20 0xFFFFFFFFFFFFFFFFFFFFFFFFFFFFFFFFFFFFFFFF AND DUP2 MSTORE PUSH1 0x20 ADD SWAP1 DUP2 MSTORE PUSH1 0x20 ADD PUSH1 0x0 KECCAK256 PUSH1 0x1 ADD DUP1 SLOAD PUSH1 0x1 DUP2 PUSH1 0x1 AND ISZERO PUSH2 0x100 MUL SUB AND PUSH1 0x2 SWAP1 DIV DUP1 PUSH1 0x1F ADD PUSH1 0x20 DUP1 SWAP2 DIV MUL PUSH1 0x20 ADD PUSH1 0x40 MLOAD SWAP1 DUP2 ADD PUSH1 0x40 MSTORE DUP1 SWAP3 SWAP2 SWAP1 DUP2 DUP2 MSTORE PUSH1 0x20 ADD DUP3 DUP1 SLOAD PUSH1 0x1 DUP2 PUSH1 0x1 AND ISZERO PUSH2 0x100 MUL SUB AND PUSH1 0x2 SWAP1 DIV DUP1 ISZERO PUSH2 0xF68 JUMPI DUP1 PUSH1 0x1F LT PUSH2 0xF3D JUMPI PUSH2 0x100 DUP1 DUP4 SLOAD DIV MUL DUP4 MSTORE SWAP2 PUSH1 0x20 ADD SWAP2 PUSH2 0xF68 JUMP JUMPDEST DUP3 ADD SWAP2 SWAP1 PUSH1 0x0 MSTORE PUSH1 0x20 PUSH1 0x0 KECCAK256 SWAP1 JUMPDEST DUP2 SLOAD DUP2 MSTORE SWAP1 PUSH1 0x1 ADD SWAP1 PUSH1 0x20 ADD DUP1 DUP4 GT PUSH2 0xF4B JUMPI DUP3 SWAP1 SUB PUSH1 0x1F AND DUP3 ADD SWAP2 JUMPDEST POP POP POP POP POP SWAP1 POP SWAP2 SWAP4 SWAP1 SWAP3 POP JUMP JUMPDEST PUSH1 0x1 ISZERO ISZERO PUSH1 0x0 DUP1 CALLER PUSH20 0xFFFFFFFFFFFFFFFFFFFFFFFFFFFFFFFFFFFFFFFF AND PUSH20 0xFFFFFFFFFFFFFFFFFFFFFFFFFFFFFFFFFFFFFFFF AND DUP2 MSTORE PUSH1 0x20 ADD SWAP1 DUP2 MSTORE PUSH1 0x20 ADD PUSH1 0x0 KECCAK256 PUSH1 0x0 ADD PUSH1 0x0 SWAP1 SLOAD SWAP1 PUSH2 0x100 EXP SWAP1 DIV PUSH1 0xFF AND ISZERO ISZERO EQ PUSH2 0x100B JUMPI PUSH1 0x40 MLOAD PUSH32 0x8C379A000000000000000000000000000000000000000000000000000000000 DUP2 MSTORE PUSH1 0x4 ADD PUSH2 0x1002 SWAP1 PUSH2 0x2EDE JUMP JUMPDEST PUSH1 0x40 MLOAD DUP1 SWAP2 SUB SWAP1 REVERT JUMPDEST PUSH1 0x0 DUP1 CALLER PUSH20 0xFFFFFFFFFFFFFFFFFFFFFFFFFFFFFFFFFFFFFFFF AND PUSH20 0xFFFFFFFFFFFFFFFFFFFFFFFFFFFFFFFFFFFFFFFF AND DUP2 MSTORE PUSH1 0x20 ADD SWAP1 DUP2 MSTORE PUSH1 0x20 ADD PUSH1 0x0 KECCAK256 PUSH1 0x1 ADD PUSH1 0x2 PUSH1 0x0 CALLER PUSH20 0xFFFFFFFFFFFFFFFFFFFFFFFFFFFFFFFFFFFFFFFF AND PUSH20 0xFFFFFFFFFFFFFFFFFFFFFFFFFFFFFFFFFFFFFFFF AND DUP2 MSTORE PUSH1 0x20 ADD SWAP1 DUP2 MSTORE PUSH1 0x20 ADD PUSH1 0x0 KECCAK256 PUSH1 0x0 DUP5 PUSH20 0xFFFFFFFFFFFFFFFFFFFFFFFFFFFFFFFFFFFFFFFF AND PUSH20 0xFFFFFFFFFFFFFFFFFFFFFFFFFFFFFFFFFFFFFFFF AND DUP2 MSTORE PUSH1 0x20 ADD SWAP1 DUP2 MSTORE PUSH1 0x20 ADD PUSH1 0x0 KECCAK256 PUSH1 0x0 ADD PUSH1 0x1 ADD SWAP1 DUP1 SLOAD PUSH1 0x1 DUP2 PUSH1 0x1 AND ISZERO PUSH2 0x100 MUL SUB AND PUSH1 0x2 SWAP1 DIV PUSH2 0x10ED SWAP3 SWAP2 SWAP1 PUSH2 0x25B7 JUMP JUMPDEST POP PUSH1 0x0 DUP1 CALLER PUSH20 0xFFFFFFFFFFFFFFFFFFFFFFFFFFFFFFFFFFFFFFFF AND PUSH20 0xFFFFFFFFFFFFFFFFFFFFFFFFFFFFFFFFFFFFFFFF AND DUP2 MSTORE PUSH1 0x20 ADD SWAP1 DUP2 MSTORE PUSH1 0x20 ADD PUSH1 0x0 KECCAK256 PUSH1 0x0 ADD PUSH1 0x1 SWAP1 SLOAD SWAP1 PUSH2 0x100 EXP SWAP1 DIV PUSH20 0xFFFFFFFFFFFFFFFFFFFFFFFFFFFFFFFFFFFFFFFF AND PUSH1 0x2 PUSH1 0x0 CALLER PUSH20 0xFFFFFFFFFFFFFFFFFFFFFFFFFFFFFFFFFFFFFFFF AND PUSH20 0xFFFFFFFFFFFFFFFFFFFFFFFFFFFFFFFFFFFFFFFF AND DUP2 MSTORE PUSH1 0x20 ADD SWAP1 DUP2 MSTORE PUSH1 0x20 ADD PUSH1 0x0 KECCAK256 PUSH1 0x0 DUP5 PUSH20 0xFFFFFFFFFFFFFFFFFFFFFFFFFFFFFFFFFFFFFFFF AND PUSH20 0xFFFFFFFFFFFFFFFFFFFFFFFFFFFFFFFFFFFFFFFF AND DUP2 MSTORE PUSH1 0x20 ADD SWAP1 DUP2 MSTORE PUSH1 0x20 ADD PUSH1 0x0 KECCAK256 PUSH1 0x0 ADD PUSH1 0x0 ADD PUSH1 0x1 PUSH2 0x100 EXP DUP2 SLOAD DUP2 PUSH20 0xFFFFFFFFFFFFFFFFFFFFFFFFFFFFFFFFFFFFFFFF MUL NOT AND SWAP1 DUP4 PUSH20 0xFFFFFFFFFFFFFFFFFFFFFFFFFFFFFFFFFFFFFFFF AND MUL OR SWAP1 SSTORE POP PUSH1 0x1 PUSH1 0x2 PUSH1 0x0 CALLER PUSH20 0xFFFFFFFFFFFFFFFFFFFFFFFFFFFFFFFFFFFFFFFF AND PUSH20 0xFFFFFFFFFFFFFFFFFFFFFFFFFFFFFFFFFFFFFFFF AND DUP2 MSTORE PUSH1 0x20 ADD SWAP1 DUP2 MSTORE PUSH1 0x20 ADD PUSH1 0x0 KECCAK256 PUSH1 0x0 DUP5 PUSH20 0xFFFFFFFFFFFFFFFFFFFFFFFFFFFFFFFFFFFFFFFF AND PUSH20 0xFFFFFFFFFFFFFFFFFFFFFFFFFFFFFFFFFFFFFFFF AND DUP2 MSTORE PUSH1 0x20 ADD SWAP1 DUP2 MSTORE PUSH1 0x20 ADD PUSH1 0x0 KECCAK256 PUSH1 0x2 ADD PUSH1 0x0 ADD PUSH1 0x0 PUSH2 0x100 EXP DUP2 SLOAD DUP2 PUSH1 0xFF MUL NOT AND SWAP1 DUP4 ISZERO ISZERO MUL OR SWAP1 SSTORE POP DUP2 PUSH1 0x2 PUSH1 0x0 CALLER PUSH20 0xFFFFFFFFFFFFFFFFFFFFFFFFFFFFFFFFFFFFFFFF AND PUSH20 0xFFFFFFFFFFFFFFFFFFFFFFFFFFFFFFFFFFFFFFFF AND DUP2 MSTORE PUSH1 0x20 ADD SWAP1 DUP2 MSTORE PUSH1 0x20 ADD PUSH1 0x0 KECCAK256 PUSH1 0x0 DUP5 PUSH20 0xFFFFFFFFFFFFFFFFFFFFFFFFFFFFFFFFFFFFFFFF AND PUSH20 0xFFFFFFFFFFFFFFFFFFFFFFFFFFFFFFFFFFFFFFFF AND DUP2 MSTORE PUSH1 0x20 ADD SWAP1 DUP2 MSTORE PUSH1 0x20 ADD PUSH1 0x0 KECCAK256 PUSH1 0x2 ADD PUSH1 0x0 ADD PUSH1 0x1 PUSH2 0x100 EXP DUP2 SLOAD DUP2 PUSH20 0xFFFFFFFFFFFFFFFFFFFFFFFFFFFFFFFFFFFFFFFF MUL NOT AND SWAP1 DUP4 PUSH20 0xFFFFFFFFFFFFFFFFFFFFFFFFFFFFFFFFFFFFFFFF AND MUL OR SWAP1 SSTORE POP DUP3 PUSH1 0x2 PUSH1 0x0 CALLER PUSH20 0xFFFFFFFFFFFFFFFFFFFFFFFFFFFFFFFFFFFFFFFF AND PUSH20 0xFFFFFFFFFFFFFFFFFFFFFFFFFFFFFFFFFFFFFFFF AND DUP2 MSTORE PUSH1 0x20 ADD SWAP1 DUP2 MSTORE PUSH1 0x20 ADD PUSH1 0x0 KECCAK256 PUSH1 0x0 DUP5 PUSH20 0xFFFFFFFFFFFFFFFFFFFFFFFFFFFFFFFFFFFFFFFF AND PUSH20 0xFFFFFFFFFFFFFFFFFFFFFFFFFFFFFFFFFFFFFFFF AND DUP2 MSTORE PUSH1 0x20 ADD SWAP1 DUP2 MSTORE PUSH1 0x20 ADD PUSH1 0x0 KECCAK256 PUSH1 0x2 ADD PUSH1 0x1 ADD SWAP1 DUP1 MLOAD SWAP1 PUSH1 0x20 ADD SWAP1 PUSH2 0x1402 SWAP3 SWAP2 SWAP1 PUSH2 0x263E JUMP JUMPDEST POP DUP1 PUSH1 0x2 PUSH1 0x0 CALLER PUSH20 0xFFFFFFFFFFFFFFFFFFFFFFFFFFFFFFFFFFFFFFFF AND PUSH20 0xFFFFFFFFFFFFFFFFFFFFFFFFFFFFFFFFFFFFFFFF AND DUP2 MSTORE PUSH1 0x20 ADD SWAP1 DUP2 MSTORE PUSH1 0x20 ADD PUSH1 0x0 KECCAK256 PUSH1 0x0 DUP5 PUSH20 0xFFFFFFFFFFFFFFFFFFFFFFFFFFFFFFFFFFFFFFFF AND PUSH20 0xFFFFFFFFFFFFFFFFFFFFFFFFFFFFFFFFFFFFFFFF AND DUP2 MSTORE PUSH1 0x20 ADD SWAP1 DUP2 MSTORE PUSH1 0x20 ADD PUSH1 0x0 KECCAK256 PUSH1 0x5 ADD PUSH1 0x0 ADD SWAP1 DUP1 MLOAD SWAP1 PUSH1 0x20 ADD SWAP1 PUSH2 0x1499 SWAP3 SWAP2 SWAP1 PUSH2 0x263E JUMP JUMPDEST POP PUSH1 0x2 PUSH1 0x0 CALLER PUSH20 0xFFFFFFFFFFFFFFFFFFFFFFFFFFFFFFFFFFFFFFFF AND PUSH20 0xFFFFFFFFFFFFFFFFFFFFFFFFFFFFFFFFFFFFFFFF AND DUP2 MSTORE PUSH1 0x20 ADD SWAP1 DUP2 MSTORE PUSH1 0x20 ADD PUSH1 0x0 KECCAK256 PUSH1 0x0 DUP4 PUSH20 0xFFFFFFFFFFFFFFFFFFFFFFFFFFFFFFFFFFFFFFFF AND PUSH20 0xFFFFFFFFFFFFFFFFFFFFFFFFFFFFFFFFFFFFFFFF AND DUP2 MSTORE PUSH1 0x20 ADD SWAP1 DUP2 MSTORE PUSH1 0x20 ADD PUSH1 0x0 KECCAK256 PUSH1 0x6 ADD DUP2 SWAP1 DUP1 PUSH1 0x1 DUP2 SLOAD ADD DUP1 DUP3 SSTORE DUP1 SWAP2 POP POP SWAP1 PUSH1 0x1 DUP3 SUB SWAP1 PUSH1 0x0 MSTORE PUSH1 0x20 PUSH1 0x0 KECCAK256 ADD PUSH1 0x0 SWAP1 SWAP2 SWAP3 SWAP1 SWAP2 SWAP1 SWAP2 POP SWAP1 DUP1 MLOAD SWAP1 PUSH1 0x20 ADD SWAP1 PUSH2 0x1554 SWAP3 SWAP2 SWAP1 PUSH2 0x263E JUMP JUMPDEST POP POP PUSH1 0x1 PUSH1 0x0 DUP4 PUSH20 0xFFFFFFFFFFFFFFFFFFFFFFFFFFFFFFFFFFFFFFFF AND PUSH20 0xFFFFFFFFFFFFFFFFFFFFFFFFFFFFFFFFFFFFFFFF AND DUP2 MSTORE PUSH1 0x20 ADD SWAP1 DUP2 MSTORE PUSH1 0x20 ADD PUSH1 0x0 KECCAK256 PUSH1 0x2 ADD DUP2 SWAP1 DUP1 PUSH1 0x1 DUP2 SLOAD ADD DUP1 DUP3 SSTORE DUP1 SWAP2 POP POP SWAP1 PUSH1 0x1 DUP3 SUB SWAP1 PUSH1 0x0 MSTORE PUSH1 0x20 PUSH1 0x0 KECCAK256 ADD PUSH1 0x0 SWAP1 SWAP2 SWAP3 SWAP1 SWAP2 SWAP1 SWAP2 POP SWAP1 DUP1 MLOAD SWAP1 PUSH1 0x20 ADD SWAP1 PUSH2 0x15D3 SWAP3 SWAP2 SWAP1 PUSH2 0x263E JUMP JUMPDEST POP POP PUSH2 0x194D PUSH1 0x2 PUSH1 0x0 CALLER PUSH20 0xFFFFFFFFFFFFFFFFFFFFFFFFFFFFFFFFFFFFFFFF AND PUSH20 0xFFFFFFFFFFFFFFFFFFFFFFFFFFFFFFFFFFFFFFFF AND DUP2 MSTORE PUSH1 0x20 ADD SWAP1 DUP2 MSTORE PUSH1 0x20 ADD PUSH1 0x0 KECCAK256 PUSH1 0x0 DUP5 PUSH20 0xFFFFFFFFFFFFFFFFFFFFFFFFFFFFFFFFFFFFFFFF AND PUSH20 0xFFFFFFFFFFFFFFFFFFFFFFFFFFFFFFFFFFFFFFFF AND DUP2 MSTORE PUSH1 0x20 ADD SWAP1 DUP2 MSTORE PUSH1 0x20 ADD PUSH1 0x0 KECCAK256 PUSH1 0x2 ADD PUSH1 0x0 ADD PUSH1 0x0 SWAP1 SLOAD SWAP1 PUSH2 0x100 EXP SWAP1 DIV PUSH1 0xFF AND PUSH1 0x2 PUSH1 0x0 CALLER PUSH20 0xFFFFFFFFFFFFFFFFFFFFFFFFFFFFFFFFFFFFFFFF AND PUSH20 0xFFFFFFFFFFFFFFFFFFFFFFFFFFFFFFFFFFFFFFFF AND DUP2 MSTORE PUSH1 0x20 ADD SWAP1 DUP2 MSTORE PUSH1 0x20 ADD PUSH1 0x0 KECCAK256 PUSH1 0x0 DUP6 PUSH20 0xFFFFFFFFFFFFFFFFFFFFFFFFFFFFFFFFFFFFFFFF AND PUSH20 0xFFFFFFFFFFFFFFFFFFFFFFFFFFFFFFFFFFFFFFFF AND DUP2 MSTORE PUSH1 0x20 ADD SWAP1 DUP2 MSTORE PUSH1 0x20 ADD PUSH1 0x0 KECCAK256 PUSH1 0x2 ADD PUSH1 0x0 ADD PUSH1 0x1 SWAP1 SLOAD SWAP1 PUSH2 0x100 EXP SWAP1 DIV PUSH20 0xFFFFFFFFFFFFFFFFFFFFFFFFFFFFFFFFFFFFFFFF AND PUSH1 0x2 PUSH1 0x0 CALLER PUSH20 0xFFFFFFFFFFFFFFFFFFFFFFFFFFFFFFFFFFFFFFFF AND PUSH20 0xFFFFFFFFFFFFFFFFFFFFFFFFFFFFFFFFFFFFFFFF AND DUP2 MSTORE PUSH1 0x20 ADD SWAP1 DUP2 MSTORE PUSH1 0x20 ADD PUSH1 0x0 KECCAK256 PUSH1 0x0 DUP7 PUSH20 0xFFFFFFFFFFFFFFFFFFFFFFFFFFFFFFFFFFFFFFFF AND PUSH20 0xFFFFFFFFFFFFFFFFFFFFFFFFFFFFFFFFFFFFFFFF AND DUP2 MSTORE PUSH1 0x20 ADD SWAP1 DUP2 MSTORE PUSH1 0x20 ADD PUSH1 0x0 KECCAK256 PUSH1 0x2 ADD PUSH1 0x1 ADD DUP1 SLOAD PUSH1 0x1 DUP2 PUSH1 0x1 AND ISZERO PUSH2 0x100 MUL SUB AND PUSH1 0x2 SWAP1 DIV DUP1 PUSH1 0x1F ADD PUSH1 0x20 DUP1 SWAP2 DIV MUL PUSH1 0x20 ADD PUSH1 0x40 MLOAD SWAP1 DUP2 ADD PUSH1 0x40 MSTORE DUP1 SWAP3 SWAP2 SWAP1 DUP2 DUP2 MSTORE PUSH1 0x20 ADD DUP3 DUP1 SLOAD PUSH1 0x1 DUP2 PUSH1 0x1 AND ISZERO PUSH2 0x100 MUL SUB AND PUSH1 0x2 SWAP1 DIV DUP1 ISZERO PUSH2 0x1821 JUMPI DUP1 PUSH1 0x1F LT PUSH2 0x17F6 JUMPI PUSH2 0x100 DUP1 DUP4 SLOAD DIV MUL DUP4 MSTORE SWAP2 PUSH1 0x20 ADD SWAP2 PUSH2 0x1821 JUMP JUMPDEST DUP3 ADD SWAP2 SWAP1 PUSH1 0x0 MSTORE PUSH1 0x20 PUSH1 0x0 KECCAK256 SWAP1 JUMPDEST DUP2 SLOAD DUP2 MSTORE SWAP1 PUSH1 0x1 ADD SWAP1 PUSH1 0x20 ADD DUP1 DUP4 GT PUSH2 0x1804 JUMPI DUP3 SWAP1 SUB PUSH1 0x1F AND DUP3 ADD SWAP2 JUMPDEST POP POP POP POP POP PUSH1 0x1 PUSH1 0x0 DUP8 PUSH20 0xFFFFFFFFFFFFFFFFFFFFFFFFFFFFFFFFFFFFFFFF AND PUSH20 0xFFFFFFFFFFFFFFFFFFFFFFFFFFFFFFFFFFFFFFFF AND DUP2 MSTORE PUSH1 0x20 ADD SWAP1 DUP2 MSTORE PUSH1 0x20 ADD PUSH1 0x0 KECCAK256 PUSH1 0x2 ADD DUP1 SLOAD DUP1 PUSH1 0x20 MUL PUSH1 0x20 ADD PUSH1 0x40 MLOAD SWAP1 DUP2 ADD PUSH1 0x40 MSTORE DUP1 SWAP3 SWAP2 SWAP1 DUP2 DUP2 MSTORE PUSH1 0x20 ADD PUSH1 0x0 SWAP1 JUMPDEST DUP3 DUP3 LT ISZERO PUSH2 0x1944 JUMPI DUP4 DUP3 SWAP1 PUSH1 0x0 MSTORE PUSH1 0x20 PUSH1 0x0 KECCAK256 ADD DUP1 SLOAD PUSH1 0x1 DUP2 PUSH1 0x1 AND ISZERO PUSH2 0x100 MUL SUB AND PUSH1 0x2 SWAP1 DIV DUP1 PUSH1 0x1F ADD PUSH1 0x20 DUP1 SWAP2 DIV MUL PUSH1 0x20 ADD PUSH1 0x40 MLOAD SWAP1 DUP2 ADD PUSH1 0x40 MSTORE DUP1 SWAP3 SWAP2 SWAP1 DUP2 DUP2 MSTORE PUSH1 0x20 ADD DUP3 DUP1 SLOAD PUSH1 0x1 DUP2 PUSH1 0x1 AND ISZERO PUSH2 0x100 MUL SUB AND PUSH1 0x2 SWAP1 DIV DUP1 ISZERO PUSH2 0x1930 JUMPI DUP1 PUSH1 0x1F LT PUSH2 0x1905 JUMPI PUSH2 0x100 DUP1 DUP4 SLOAD DIV MUL DUP4 MSTORE SWAP2 PUSH1 0x20 ADD SWAP2 PUSH2 0x1930 JUMP JUMPDEST DUP3 ADD SWAP2 SWAP1 PUSH1 0x0 MSTORE PUSH1 0x20 PUSH1 0x0 KECCAK256 SWAP1 JUMPDEST DUP2 SLOAD DUP2 MSTORE SWAP1 PUSH1 0x1 ADD SWAP1 PUSH1 0x20 ADD DUP1 DUP4 GT PUSH2 0x1913 JUMPI DUP3 SWAP1 SUB PUSH1 0x1F AND DUP3 ADD SWAP2 JUMPDEST POP POP POP POP POP DUP2 MSTORE PUSH1 0x20 ADD SWAP1 PUSH1 0x1 ADD SWAP1 PUSH2 0x1888 JUMP JUMPDEST POP POP POP POP PUSH2 0x320 JUMP JUMPDEST PUSH32 0xFD09D3DA0077A9ED9D4AF05531B2F844C840C94C1E6535E3D2A09A6AE1AA9A52 CALLER DUP4 PUSH1 0x40 MLOAD PUSH2 0x197E SWAP3 SWAP2 SWAP1 PUSH2 0x2D1E JUMP JUMPDEST PUSH1 0x40 MLOAD DUP1 SWAP2 SUB SWAP1 LOG1 POP POP POP JUMP JUMPDEST PUSH1 0x0 DUP1 PUSH1 0x60 DUP1 PUSH1 0x1 ISZERO ISZERO PUSH1 0x1 PUSH1 0x0 CALLER PUSH20 0xFFFFFFFFFFFFFFFFFFFFFFFFFFFFFFFFFFFFFFFF AND PUSH20 0xFFFFFFFFFFFFFFFFFFFFFFFFFFFFFFFFFFFFFFFF AND DUP2 MSTORE PUSH1 0x20 ADD SWAP1 DUP2 MSTORE PUSH1 0x20 ADD PUSH1 0x0 KECCAK256 PUSH1 0x0 ADD PUSH1 0x0 SWAP1 SLOAD SWAP1 PUSH2 0x100 EXP SWAP1 DIV PUSH1 0xFF AND ISZERO ISZERO EQ DUP1 PUSH2 0x1A6F JUMPI POP PUSH1 0x1 PUSH1 0x3 PUSH1 0x0 DUP8 PUSH20 0xFFFFFFFFFFFFFFFFFFFFFFFFFFFFFFFFFFFFFFFF AND PUSH20 0xFFFFFFFFFFFFFFFFFFFFFFFFFFFFFFFFFFFFFFFF AND DUP2 MSTORE PUSH1 0x20 ADD SWAP1 DUP2 MSTORE PUSH1 0x20 ADD PUSH1 0x0 KECCAK256 PUSH1 0x0 CALLER PUSH20 0xFFFFFFFFFFFFFFFFFFFFFFFFFFFFFFFFFFFFFFFF AND PUSH20 0xFFFFFFFFFFFFFFFFFFFFFFFFFFFFFFFFFFFFFFFF AND DUP2 MSTORE PUSH1 0x20 ADD SWAP1 DUP2 MSTORE PUSH1 0x20 ADD PUSH1 0x0 KECCAK256 SLOAD EQ JUMPDEST PUSH2 0x1AAE JUMPI PUSH1 0x40 MLOAD PUSH32 0x8C379A000000000000000000000000000000000000000000000000000000000 DUP2 MSTORE PUSH1 0x4 ADD PUSH2 0x1AA5 SWAP1 PUSH2 0x2E9E JUMP JUMPDEST PUSH1 0x40 MLOAD DUP1 SWAP2 SUB SWAP1 REVERT JUMPDEST PUSH1 0x1 PUSH1 0x0 DUP7 PUSH20 0xFFFFFFFFFFFFFFFFFFFFFFFFFFFFFFFFFFFFFFFF AND PUSH20 0xFFFFFFFFFFFFFFFFFFFFFFFFFFFFFFFFFFFFFFFF AND DUP2 MSTORE PUSH1 0x20 ADD SWAP1 DUP2 MSTORE PUSH1 0x20 ADD PUSH1 0x0 KECCAK256 PUSH1 0x0 ADD PUSH1 0x0 SWAP1 SLOAD SWAP1 PUSH2 0x100 EXP SWAP1 DIV PUSH1 0xFF AND SWAP4 POP PUSH1 0x1 PUSH1 0x0 DUP7 PUSH20 0xFFFFFFFFFFFFFFFFFFFFFFFFFFFFFFFFFFFFFFFF AND PUSH20 0xFFFFFFFFFFFFFFFFFFFFFFFFFFFFFFFFFFFFFFFF AND DUP2 MSTORE PUSH1 0x20 ADD SWAP1 DUP2 MSTORE PUSH1 0x20 ADD PUSH1 0x0 KECCAK256 PUSH1 0x0 ADD PUSH1 0x1 SWAP1 SLOAD SWAP1 PUSH2 0x100 EXP SWAP1 DIV PUSH20 0xFFFFFFFFFFFFFFFFFFFFFFFFFFFFFFFFFFFFFFFF AND SWAP3 POP PUSH1 0x1 PUSH1 0x0 DUP7 PUSH20 0xFFFFFFFFFFFFFFFFFFFFFFFFFFFFFFFFFFFFFFFF AND PUSH20 0xFFFFFFFFFFFFFFFFFFFFFFFFFFFFFFFFFFFFFFFF AND DUP2 MSTORE PUSH1 0x20 ADD SWAP1 DUP2 MSTORE PUSH1 0x20 ADD PUSH1 0x0 KECCAK256 PUSH1 0x1 ADD DUP1 SLOAD PUSH1 0x1 DUP2 PUSH1 0x1 AND ISZERO PUSH2 0x100 MUL SUB AND PUSH1 0x2 SWAP1 DIV DUP1 PUSH1 0x1F ADD PUSH1 0x20 DUP1 SWAP2 DIV MUL PUSH1 0x20 ADD PUSH1 0x40 MLOAD SWAP1 DUP2 ADD PUSH1 0x40 MSTORE DUP1 SWAP3 SWAP2 SWAP1 DUP2 DUP2 MSTORE PUSH1 0x20 ADD DUP3 DUP1 SLOAD PUSH1 0x1 DUP2 PUSH1 0x1 AND ISZERO PUSH2 0x100 MUL SUB AND PUSH1 0x2 SWAP1 DIV DUP1 ISZERO PUSH2 0x1C3B JUMPI DUP1 PUSH1 0x1F LT PUSH2 0x1C10 JUMPI PUSH2 0x100 DUP1 DUP4 SLOAD DIV MUL DUP4 MSTORE SWAP2 PUSH1 0x20 ADD SWAP2 PUSH2 0x1C3B JUMP JUMPDEST DUP3 ADD SWAP2 SWAP1 PUSH1 0x0 MSTORE PUSH1 0x20 PUSH1 0x0 KECCAK256 SWAP1 JUMPDEST DUP2 SLOAD DUP2 MSTORE SWAP1 PUSH1 0x1 ADD SWAP1 PUSH1 0x20 ADD DUP1 DUP4 GT PUSH2 0x1C1E JUMPI DUP3 SWAP1 SUB PUSH1 0x1F AND DUP3 ADD SWAP2 JUMPDEST POP POP POP POP POP SWAP2 POP PUSH1 0x1 PUSH1 0x0 DUP7 PUSH20 0xFFFFFFFFFFFFFFFFFFFFFFFFFFFFFFFFFFFFFFFF AND PUSH20 0xFFFFFFFFFFFFFFFFFFFFFFFFFFFFFFFFFFFFFFFF AND DUP2 MSTORE PUSH1 0x20 ADD SWAP1 DUP2 MSTORE PUSH1 0x20 ADD PUSH1 0x0 KECCAK256 PUSH1 0x2 ADD DUP1 SLOAD DUP1 PUSH1 0x20 MUL PUSH1 0x20 ADD PUSH1 0x40 MLOAD SWAP1 DUP2 ADD PUSH1 0x40 MSTORE DUP1 SWAP3 SWAP2 SWAP1 DUP2 DUP2 MSTORE PUSH1 0x20 ADD PUSH1 0x0 SWAP1 JUMPDEST DUP3 DUP3 LT ISZERO PUSH2 0x1D60 JUMPI DUP4 DUP3 SWAP1 PUSH1 0x0 MSTORE PUSH1 0x20 PUSH1 0x0 KECCAK256 ADD DUP1 SLOAD PUSH1 0x1 DUP2 PUSH1 0x1 AND ISZERO PUSH2 0x100 MUL SUB AND PUSH1 0x2 SWAP1 DIV DUP1 PUSH1 0x1F ADD PUSH1 0x20 DUP1 SWAP2 DIV MUL PUSH1 0x20 ADD PUSH1 0x40 MLOAD SWAP1 DUP2 ADD PUSH1 0x40 MSTORE DUP1 SWAP3 SWAP2 SWAP1 DUP2 DUP2 MSTORE PUSH1 0x20 ADD DUP3 DUP1 SLOAD PUSH1 0x1 DUP2 PUSH1 0x1 AND ISZERO PUSH2 0x100 MUL SUB AND PUSH1 0x2 SWAP1 DIV DUP1 ISZERO PUSH2 0x1D4C JUMPI DUP1 PUSH1 0x1F LT PUSH2 0x1D21 JUMPI PUSH2 0x100 DUP1 DUP4 SLOAD DIV MUL DUP4 MSTORE SWAP2 PUSH1 0x20 ADD SWAP2 PUSH2 0x1D4C JUMP JUMPDEST DUP3 ADD SWAP2 SWAP1 PUSH1 0x0 MSTORE PUSH1 0x20 PUSH1 0x0 KECCAK256 SWAP1 JUMPDEST DUP2 SLOAD DUP2 MSTORE SWAP1 PUSH1 0x1 ADD SWAP1 PUSH1 0x20 ADD DUP1 DUP4 GT PUSH2 0x1D2F JUMPI DUP3 SWAP1 SUB PUSH1 0x1F AND DUP3 ADD SWAP2 JUMPDEST POP POP POP POP POP DUP2 MSTORE PUSH1 0x20 ADD SWAP1 PUSH1 0x1 ADD SWAP1 PUSH2 0x1CA4 JUMP JUMPDEST POP POP POP POP SWAP1 POP SWAP2 SWAP4 POP SWAP2 SWAP4 JUMP JUMPDEST PUSH1 0x60 PUSH1 0x0 PUSH1 0x60 PUSH1 0x0 PUSH1 0x60 DUP1 PUSH1 0x1 ISZERO ISZERO PUSH1 0x0 DUP1 CALLER PUSH20 0xFFFFFFFFFFFFFFFFFFFFFFFFFFFFFFFFFFFFFFFF AND PUSH20 0xFFFFFFFFFFFFFFFFFFFFFFFFFFFFFFFFFFFFFFFF AND DUP2 MSTORE PUSH1 0x20 ADD SWAP1 DUP2 MSTORE PUSH1 0x20 ADD PUSH1 0x0 KECCAK256 PUSH1 0x0 ADD PUSH1 0x0 SWAP1 SLOAD SWAP1 PUSH2 0x100 EXP SWAP1 DIV PUSH1 0xFF AND ISZERO ISZERO EQ PUSH2 0x1E0D JUMPI PUSH1 0x40 MLOAD PUSH32 0x8C379A000000000000000000000000000000000000000000000000000000000 DUP2 MSTORE PUSH1 0x4 ADD PUSH2 0x1E04 SWAP1 PUSH2 0x2EDE JUMP JUMPDEST PUSH1 0x40 MLOAD DUP1 SWAP2 SUB SWAP1 REVERT JUMPDEST PUSH1 0x1 PUSH1 0x3 PUSH1 0x0 DUP10 PUSH20 0xFFFFFFFFFFFFFFFFFFFFFFFFFFFFFFFFFFFFFFFF AND PUSH20 0xFFFFFFFFFFFFFFFFFFFFFFFFFFFFFFFFFFFFFFFF AND DUP2 MSTORE PUSH1 0x20 ADD SWAP1 DUP2 MSTORE PUSH1 0x20 ADD PUSH1 0x0 KECCAK256 PUSH1 0x0 CALLER PUSH20 0xFFFFFFFFFFFFFFFFFFFFFFFFFFFFFFFFFFFFFFFF AND PUSH20 0xFFFFFFFFFFFFFFFFFFFFFFFFFFFFFFFFFFFFFFFF AND DUP2 MSTORE PUSH1 0x20 ADD SWAP1 DUP2 MSTORE PUSH1 0x20 ADD PUSH1 0x0 KECCAK256 SLOAD EQ PUSH2 0x1ECC JUMPI PUSH1 0x40 MLOAD PUSH32 0x8C379A000000000000000000000000000000000000000000000000000000000 DUP2 MSTORE PUSH1 0x4 ADD PUSH2 0x1EC3 SWAP1 PUSH2 0x2EFE JUMP JUMPDEST PUSH1 0x40 MLOAD DUP1 SWAP2 SUB SWAP1 REVERT JUMPDEST PUSH1 0x2 PUSH1 0x0 CALLER PUSH20 0xFFFFFFFFFFFFFFFFFFFFFFFFFFFFFFFFFFFFFFFF AND PUSH20 0xFFFFFFFFFFFFFFFFFFFFFFFFFFFFFFFFFFFFFFFF AND DUP2 MSTORE PUSH1 0x20 ADD SWAP1 DUP2 MSTORE PUSH1 0x20 ADD PUSH1 0x0 KECCAK256 PUSH1 0x0 DUP9 PUSH20 0xFFFFFFFFFFFFFFFFFFFFFFFFFFFFFFFFFFFFFFFF AND PUSH20 0xFFFFFFFFFFFFFFFFFFFFFFFFFFFFFFFFFFFFFFFF AND DUP2 MSTORE PUSH1 0x20 ADD SWAP1 DUP2 MSTORE PUSH1 0x20 ADD PUSH1 0x0 KECCAK256 PUSH1 0x0 ADD PUSH1 0x1 ADD DUP1 SLOAD PUSH1 0x1 DUP2 PUSH1 0x1 AND ISZERO PUSH2 0x100 MUL SUB AND PUSH1 0x2 SWAP1 DIV DUP1 PUSH1 0x1F ADD PUSH1 0x20 DUP1 SWAP2 DIV MUL PUSH1 0x20 ADD PUSH1 0x40 MLOAD SWAP1 DUP2 ADD PUSH1 0x40 MSTORE DUP1 SWAP3 SWAP2 SWAP1 DUP2 DUP2 MSTORE PUSH1 0x20 ADD DUP3 DUP1 SLOAD PUSH1 0x1 DUP2 PUSH1 0x1 AND ISZERO PUSH2 0x100 MUL SUB AND PUSH1 0x2 SWAP1 DIV DUP1 ISZERO PUSH2 0x1FE2 JUMPI DUP1 PUSH1 0x1F LT PUSH2 0x1FB7 JUMPI PUSH2 0x100 DUP1 DUP4 SLOAD DIV MUL DUP4 MSTORE SWAP2 PUSH1 0x20 ADD SWAP2 PUSH2 0x1FE2 JUMP JUMPDEST DUP3 ADD SWAP2 SWAP1 PUSH1 0x0 MSTORE PUSH1 0x20 PUSH1 0x0 KECCAK256 SWAP1 JUMPDEST DUP2 SLOAD DUP2 MSTORE SWAP1 PUSH1 0x1 ADD SWAP1 PUSH1 0x20 ADD DUP1 DUP4 GT PUSH2 0x1FC5 JUMPI DUP3 SWAP1 SUB PUSH1 0x1F AND DUP3 ADD SWAP2 JUMPDEST POP POP POP POP POP SWAP6 POP PUSH1 0x2 PUSH1 0x0 CALLER PUSH20 0xFFFFFFFFFFFFFFFFFFFFFFFFFFFFFFFFFFFFFFFF AND PUSH20 0xFFFFFFFFFFFFFFFFFFFFFFFFFFFFFFFFFFFFFFFF AND DUP2 MSTORE PUSH1 0x20 ADD SWAP1 DUP2 MSTORE PUSH1 0x20 ADD PUSH1 0x0 KECCAK256 PUSH1 0x0 DUP9 PUSH20 0xFFFFFFFFFFFFFFFFFFFFFFFFFFFFFFFFFFFFFFFF AND PUSH20 0xFFFFFFFFFFFFFFFFFFFFFFFFFFFFFFFFFFFFFFFF AND DUP2 MSTORE PUSH1 0x20 ADD SWAP1 DUP2 MSTORE PUSH1 0x20 ADD PUSH1 0x0 KECCAK256 PUSH1 0x0 ADD PUSH1 0x0 ADD PUSH1 0x1 SWAP1 SLOAD SWAP1 PUSH2 0x100 EXP SWAP1 DIV PUSH20 0xFFFFFFFFFFFFFFFFFFFFFFFFFFFFFFFFFFFFFFFF AND SWAP5 POP PUSH1 0x2 PUSH1 0x0 CALLER PUSH20 0xFFFFFFFFFFFFFFFFFFFFFFFFFFFFFFFFFFFFFFFF AND PUSH20 0xFFFFFFFFFFFFFFFFFFFFFFFFFFFFFFFFFFFFFFFF AND DUP2 MSTORE PUSH1 0x20 ADD SWAP1 DUP2 MSTORE PUSH1 0x20 ADD PUSH1 0x0 KECCAK256 PUSH1 0x0 DUP9 PUSH20 0xFFFFFFFFFFFFFFFFFFFFFFFFFFFFFFFFFFFFFFFF AND PUSH20 0xFFFFFFFFFFFFFFFFFFFFFFFFFFFFFFFFFFFFFFFF AND DUP2 MSTORE PUSH1 0x20 ADD SWAP1 DUP2 MSTORE PUSH1 0x20 ADD PUSH1 0x0 KECCAK256 PUSH1 0x2 ADD PUSH1 0x1 ADD DUP1 SLOAD PUSH1 0x1 DUP2 PUSH1 0x1 AND ISZERO PUSH2 0x100 MUL SUB AND PUSH1 0x2 SWAP1 DIV DUP1 PUSH1 0x1F ADD PUSH1 0x20 DUP1 SWAP2 DIV MUL PUSH1 0x20 ADD PUSH1 0x40 MLOAD SWAP1 DUP2 ADD PUSH1 0x40 MSTORE DUP1 SWAP3 SWAP2 SWAP1 DUP2 DUP2 MSTORE PUSH1 0x20 ADD DUP3 DUP1 SLOAD PUSH1 0x1 DUP2 PUSH1 0x1 AND ISZERO PUSH2 0x100 MUL SUB AND PUSH1 0x2 SWAP1 DIV DUP1 ISZERO PUSH2 0x21A4 JUMPI DUP1 PUSH1 0x1F LT PUSH2 0x2179 JUMPI PUSH2 0x100 DUP1 DUP4 SLOAD DIV MUL DUP4 MSTORE SWAP2 PUSH1 0x20 ADD SWAP2 PUSH2 0x21A4 JUMP JUMPDEST DUP3 ADD SWAP2 SWAP1 PUSH1 0x0 MSTORE PUSH1 0x20 PUSH1 0x0 KECCAK256 SWAP1 JUMPDEST DUP2 SLOAD DUP2 MSTORE SWAP1 PUSH1 0x1 ADD SWAP1 PUSH1 0x20 ADD DUP1 DUP4 GT PUSH2 0x2187 JUMPI DUP3 SWAP1 SUB PUSH1 0x1F AND DUP3 ADD SWAP2 JUMPDEST POP POP POP POP POP SWAP4 POP PUSH1 0x2 PUSH1 0x0 CALLER PUSH20 0xFFFFFFFFFFFFFFFFFFFFFFFFFFFFFFFFFFFFFFFF AND PUSH20 0xFFFFFFFFFFFFFFFFFFFFFFFFFFFFFFFFFFFFFFFF AND DUP2 MSTORE PUSH1 0x20 ADD SWAP1 DUP2 MSTORE PUSH1 0x20 ADD PUSH1 0x0 KECCAK256 PUSH1 0x0 DUP9 PUSH20 0xFFFFFFFFFFFFFFFFFFFFFFFFFFFFFFFFFFFFFFFF AND PUSH20 0xFFFFFFFFFFFFFFFFFFFFFFFFFFFFFFFFFFFFFFFF AND DUP2 MSTORE PUSH1 0x20 ADD SWAP1 DUP2 MSTORE PUSH1 0x20 ADD PUSH1 0x0 KECCAK256 PUSH1 0x2 ADD PUSH1 0x0 ADD PUSH1 0x1 SWAP1 SLOAD SWAP1 PUSH2 0x100 EXP SWAP1 DIV PUSH20 0xFFFFFFFFFFFFFFFFFFFFFFFFFFFFFFFFFFFFFFFF AND SWAP3 POP PUSH1 0x2 PUSH1 0x0 CALLER PUSH20 0xFFFFFFFFFFFFFFFFFFFFFFFFFFFFFFFFFFFFFFFF AND PUSH20 0xFFFFFFFFFFFFFFFFFFFFFFFFFFFFFFFFFFFFFFFF AND DUP2 MSTORE PUSH1 0x20 ADD SWAP1 DUP2 MSTORE PUSH1 0x20 ADD PUSH1 0x0 KECCAK256 PUSH1 0x0 DUP9 PUSH20 0xFFFFFFFFFFFFFFFFFFFFFFFFFFFFFFFFFFFFFFFF AND PUSH20 0xFFFFFFFFFFFFFFFFFFFFFFFFFFFFFFFFFFFFFFFF AND DUP2 MSTORE PUSH1 0x20 ADD SWAP1 DUP2 MSTORE PUSH1 0x20 ADD PUSH1 0x0 KECCAK256 PUSH1 0x5 ADD PUSH1 0x0 ADD DUP1 SLOAD PUSH1 0x1 DUP2 PUSH1 0x1 AND ISZERO PUSH2 0x100 MUL SUB AND PUSH1 0x2 SWAP1 DIV DUP1 PUSH1 0x1F ADD PUSH1 0x20 DUP1 SWAP2 DIV MUL PUSH1 0x20 ADD PUSH1 0x40 MLOAD SWAP1 DUP2 ADD PUSH1 0x40 MSTORE DUP1 SWAP3 SWAP2 SWAP1 DUP2 DUP2 MSTORE PUSH1 0x20 ADD DUP3 DUP1 SLOAD PUSH1 0x1 DUP2 PUSH1 0x1 AND ISZERO PUSH2 0x100 MUL SUB AND PUSH1 0x2 SWAP1 DIV DUP1 ISZERO PUSH2 0x2366 JUMPI DUP1 PUSH1 0x1F LT PUSH2 0x233B JUMPI PUSH2 0x100 DUP1 DUP4 SLOAD DIV MUL DUP4 MSTORE SWAP2 PUSH1 0x20 ADD SWAP2 PUSH2 0x2366 JUMP JUMPDEST DUP3 ADD SWAP2 SWAP1 PUSH1 0x0 MSTORE PUSH1 0x20 PUSH1 0x0 KECCAK256 SWAP1 JUMPDEST DUP2 SLOAD DUP2 MSTORE SWAP1 PUSH1 0x1 ADD SWAP1 PUSH1 0x20 ADD DUP1 DUP4 GT PUSH2 0x2349 JUMPI DUP3 SWAP1 SUB PUSH1 0x1F AND DUP3 ADD SWAP2 JUMPDEST POP POP POP POP POP SWAP2 POP PUSH1 0x2 PUSH1 0x0 CALLER PUSH20 0xFFFFFFFFFFFFFFFFFFFFFFFFFFFFFFFFFFFFFFFF AND PUSH20 0xFFFFFFFFFFFFFFFFFFFFFFFFFFFFFFFFFFFFFFFF AND DUP2 MSTORE PUSH1 0x20 ADD SWAP1 DUP2 MSTORE PUSH1 0x20 ADD PUSH1 0x0 KECCAK256 PUSH1 0x0 DUP9 PUSH20 0xFFFFFFFFFFFFFFFFFFFFFFFFFFFFFFFFFFFFFFFF AND PUSH20 0xFFFFFFFFFFFFFFFFFFFFFFFFFFFFFFFFFFFFFFFF AND DUP2 MSTORE PUSH1 0x20 ADD SWAP1 DUP2 MSTORE PUSH1 0x20 ADD PUSH1 0x0 KECCAK256 PUSH1 0x6 ADD DUP1 SLOAD DUP1 PUSH1 0x20 MUL PUSH1 0x20 ADD PUSH1 0x40 MLOAD SWAP1 DUP2 ADD PUSH1 0x40 MSTORE DUP1 SWAP3 SWAP2 SWAP1 DUP2 DUP2 MSTORE PUSH1 0x20 ADD PUSH1 0x0 SWAP1 JUMPDEST DUP3 DUP3 LT ISZERO PUSH2 0x24C8 JUMPI DUP4 DUP3 SWAP1 PUSH1 0x0 MSTORE PUSH1 0x20 PUSH1 0x0 KECCAK256 ADD DUP1 SLOAD PUSH1 0x1 DUP2 PUSH1 0x1 AND ISZERO PUSH2 0x100 MUL SUB AND PUSH1 0x2 SWAP1 DIV DUP1 PUSH1 0x1F ADD PUSH1 0x20 DUP1 SWAP2 DIV MUL PUSH1 0x20 ADD PUSH1 0x40 MLOAD SWAP1 DUP2 ADD PUSH1 0x40 MSTORE DUP1 SWAP3 SWAP2 SWAP1 DUP2 DUP2 MSTORE PUSH1 0x20 ADD DUP3 DUP1 SLOAD PUSH1 0x1 DUP2 PUSH1 0x1 AND ISZERO PUSH2 0x100 MUL SUB AND PUSH1 0x2 SWAP1 DIV DUP1 ISZERO PUSH2 0x24B4 JUMPI DUP1 PUSH1 0x1F LT PUSH2 0x2489 JUMPI PUSH2 0x100 DUP1 DUP4 SLOAD DIV MUL DUP4 MSTORE SWAP2 PUSH1 0x20 ADD SWAP2 PUSH2 0x24B4 JUMP JUMPDEST DUP3 ADD SWAP2 SWAP1 PUSH1 0x0 MSTORE PUSH1 0x20 PUSH1 0x0 KECCAK256 SWAP1 JUMPDEST DUP2 SLOAD DUP2 MSTORE SWAP1 PUSH1 0x1 ADD SWAP1 PUSH1 0x20 ADD DUP1 DUP4 GT PUSH2 0x2497 JUMPI DUP3 SWAP1 SUB PUSH1 0x1F AND DUP3 ADD SWAP2 JUMPDEST POP POP POP POP POP DUP2 MSTORE PUSH1 0x20 ADD SWAP1 PUSH1 0x1 ADD SWAP1 PUSH2 0x240C JUMP JUMPDEST POP POP POP POP SWAP1 POP SWAP2 SWAP4 SWAP6 POP SWAP2 SWAP4 SWAP6 JUMP JUMPDEST DUP3 DUP1 SLOAD PUSH1 0x1 DUP2 PUSH1 0x1 AND ISZERO PUSH2 0x100 MUL SUB AND PUSH1 0x2 SWAP1 DIV SWAP1 PUSH1 0x0 MSTORE PUSH1 0x20 PUSH1 0x0 KECCAK256 SWAP1 PUSH1 0x1F ADD PUSH1 0x20 SWAP1 DIV DUP2 ADD SWAP3 DUP3 PUSH1 0x1F LT PUSH2 0x2518 JUMPI DUP1 MLOAD PUSH1 0xFF NOT AND DUP4 DUP1 ADD OR DUP6 SSTORE PUSH2 0x2546 JUMP JUMPDEST DUP3 DUP1 ADD PUSH1 0x1 ADD DUP6 SSTORE DUP3 ISZERO PUSH2 0x2546 JUMPI SWAP2 DUP3 ADD JUMPDEST DUP3 DUP2 GT ISZERO PUSH2 0x2545 JUMPI DUP3 MLOAD DUP3 SSTORE SWAP2 PUSH1 0x20 ADD SWAP2 SWAP1 PUSH1 0x1 ADD SWAP1 PUSH2 0x252A JUMP JUMPDEST JUMPDEST POP SWAP1 POP PUSH2 0x2553 SWAP2 SWAP1 PUSH2 0x26BE JUMP JUMPDEST POP SWAP1 JUMP JUMPDEST DUP3 DUP1 SLOAD DUP3 DUP3 SSTORE SWAP1 PUSH1 0x0 MSTORE PUSH1 0x20 PUSH1 0x0 KECCAK256 SWAP1 DUP2 ADD SWAP3 DUP3 ISZERO PUSH2 0x25A6 JUMPI SWAP2 PUSH1 0x20 MUL DUP3 ADD JUMPDEST DUP3 DUP2 GT ISZERO PUSH2 0x25A5 JUMPI DUP3 MLOAD DUP3 SWAP1 DUP1 MLOAD SWAP1 PUSH1 0x20 ADD SWAP1 PUSH2 0x2595 SWAP3 SWAP2 SWAP1 PUSH2 0x24D7 JUMP JUMPDEST POP SWAP2 PUSH1 0x20 ADD SWAP2 SWAP1 PUSH1 0x1 ADD SWAP1 PUSH2 0x2577 JUMP JUMPDEST JUMPDEST POP SWAP1 POP PUSH2 0x25B3 SWAP2 SWAP1 PUSH2 0x26E3 JUMP JUMPDEST POP SWAP1 JUMP JUMPDEST DUP3 DUP1 SLOAD PUSH1 0x1 DUP2 PUSH1 0x1 AND ISZERO PUSH2 0x100 MUL SUB AND PUSH1 0x2 SWAP1 DIV SWAP1 PUSH1 0x0 MSTORE PUSH1 0x20 PUSH1 0x0 KECCAK256 SWAP1 PUSH1 0x1F ADD PUSH1 0x20 SWAP1 DIV DUP2 ADD SWAP3 DUP3 PUSH1 0x1F LT PUSH2 0x25F0 JUMPI DUP1 SLOAD DUP6 SSTORE PUSH2 0x262D JUMP JUMPDEST DUP3 DUP1 ADD PUSH1 0x1 ADD DUP6 SSTORE DUP3 ISZERO PUSH2 0x262D JUMPI PUSH1 0x0 MSTORE PUSH1 0x20 PUSH1 0x0 KECCAK256 SWAP2 PUSH1 0x1F ADD PUSH1 0x20 SWAP1 DIV DUP3 ADD JUMPDEST DUP3 DUP2 GT ISZERO PUSH2 0x262C JUMPI DUP3 SLOAD DUP3 SSTORE SWAP2 PUSH1 0x1 ADD SWAP2 SWAP1 PUSH1 0x1 ADD SWAP1 PUSH2 0x2611 JUMP JUMPDEST JUMPDEST POP SWAP1 POP PUSH2 0x263A SWAP2 SWAP1 PUSH2 0x26BE JUMP JUMPDEST POP SWAP1 JUMP JUMPDEST DUP3 DUP1 SLOAD PUSH1 0x1 DUP2 PUSH1 0x1 AND ISZERO PUSH2 0x100 MUL SUB AND PUSH1 0x2 SWAP1 DIV SWAP1 PUSH1 0x0 MSTORE PUSH1 0x20 PUSH1 0x0 KECCAK256 SWAP1 PUSH1 0x1F ADD PUSH1 0x20 SWAP1 DIV DUP2 ADD SWAP3 DUP3 PUSH1 0x1F LT PUSH2 0x267F JUMPI DUP1 MLOAD PUSH1 0xFF NOT AND DUP4 DUP1 ADD OR DUP6 SSTORE PUSH2 0x26AD JUMP JUMPDEST DUP3 DUP1 ADD PUSH1 0x1 ADD DUP6 SSTORE DUP3 ISZERO PUSH2 0x26AD JUMPI SWAP2 DUP3 ADD JUMPDEST DUP3 DUP2 GT ISZERO PUSH2 0x26AC JUMPI DUP3 MLOAD DUP3 SSTORE SWAP2 PUSH1 0x20 ADD SWAP2 SWAP1 PUSH1 0x1 ADD SWAP1 PUSH2 0x2691 JUMP JUMPDEST JUMPDEST POP SWAP1 POP PUSH2 0x26BA SWAP2 SWAP1 PUSH2 0x26BE JUMP JUMPDEST POP SWAP1 JUMP JUMPDEST PUSH2 0x26E0 SWAP2 SWAP1 JUMPDEST DUP1 DUP3 GT ISZERO PUSH2 0x26DC JUMPI PUSH1 0x0 DUP2 PUSH1 0x0 SWAP1 SSTORE POP PUSH1 0x1 ADD PUSH2 0x26C4 JUMP JUMPDEST POP SWAP1 JUMP JUMPDEST SWAP1 JUMP JUMPDEST PUSH2 0x270C SWAP2 SWAP1 JUMPDEST DUP1 DUP3 GT ISZERO PUSH2 0x2708 JUMPI PUSH1 0x0 DUP2 DUP2 PUSH2 0x26FF SWAP2 SWAP1 PUSH2 0x270F JUMP JUMPDEST POP PUSH1 0x1 ADD PUSH2 0x26E9 JUMP JUMPDEST POP SWAP1 JUMP JUMPDEST SWAP1 JUMP JUMPDEST POP DUP1 SLOAD PUSH1 0x1 DUP2 PUSH1 0x1 AND ISZERO PUSH2 0x100 MUL SUB AND PUSH1 0x2 SWAP1 DIV PUSH1 0x0 DUP3 SSTORE DUP1 PUSH1 0x1F LT PUSH2 0x2735 JUMPI POP PUSH2 0x2754 JUMP JUMPDEST PUSH1 0x1F ADD PUSH1 0x20 SWAP1 DIV SWAP1 PUSH1 0x0 MSTORE PUSH1 0x20 PUSH1 0x0 KECCAK256 SWAP1 DUP2 ADD SWAP1 PUSH2 0x2753 SWAP2 SWAP1 PUSH2 0x26BE JUMP JUMPDEST JUMPDEST POP JUMP JUMPDEST PUSH1 0x0 DUP2 CALLDATALOAD SWAP1 POP PUSH2 0x2766 DUP2 PUSH2 0x310D JUMP JUMPDEST SWAP3 SWAP2 POP POP JUMP JUMPDEST PUSH1 0x0 DUP3 PUSH1 0x1F DUP4 ADD SLT PUSH2 0x277D JUMPI PUSH1 0x0 DUP1 REVERT JUMPDEST DUP2 CALLDATALOAD PUSH2 0x2790 PUSH2 0x278B DUP3 PUSH2 0x2F4B JUMP JUMPDEST PUSH2 0x2F1E JUMP JUMPDEST SWAP2 POP DUP2 DUP2 DUP4 MSTORE PUSH1 0x20 DUP5 ADD SWAP4 POP PUSH1 0x20 DUP2 ADD SWAP1 POP DUP4 PUSH1 0x0 JUMPDEST DUP4 DUP2 LT ISZERO PUSH2 0x27D6 JUMPI DUP2 CALLDATALOAD DUP7 ADD PUSH2 0x27BC DUP9 DUP3 PUSH2 0x27F5 JUMP JUMPDEST DUP5 MSTORE PUSH1 0x20 DUP5 ADD SWAP4 POP PUSH1 0x20 DUP4 ADD SWAP3 POP POP PUSH1 0x1 DUP2 ADD SWAP1 POP PUSH2 0x27A6 JUMP JUMPDEST POP POP POP POP SWAP3 SWAP2 POP POP JUMP JUMPDEST PUSH1 0x0 DUP2 CALLDATALOAD SWAP1 POP PUSH2 0x27EF DUP2 PUSH2 0x3124 JUMP JUMPDEST SWAP3 SWAP2 POP POP JUMP JUMPDEST PUSH1 0x0 DUP3 PUSH1 0x1F DUP4 ADD SLT PUSH2 0x2806 JUMPI PUSH1 0x0 DUP1 REVERT JUMPDEST DUP2 CALLDATALOAD PUSH2 0x2819 PUSH2 0x2814 DUP3 PUSH2 0x2F73 JUMP JUMPDEST PUSH2 0x2F1E JUMP JUMPDEST SWAP2 POP DUP1 DUP3 MSTORE PUSH1 0x20 DUP4 ADD PUSH1 0x20 DUP4 ADD DUP6 DUP4 DUP4 ADD GT ISZERO PUSH2 0x2835 JUMPI PUSH1 0x0 DUP1 REVERT JUMPDEST PUSH2 0x2840 DUP4 DUP3 DUP5 PUSH2 0x30BA JUMP JUMPDEST POP POP POP SWAP3 SWAP2 POP POP JUMP JUMPDEST PUSH1 0x0 DUP3 PUSH1 0x1F DUP4 ADD SLT PUSH2 0x285A JUMPI PUSH1 0x0 DUP1 REVERT JUMPDEST DUP2 CALLDATALOAD PUSH2 0x286D PUSH2 0x2868 DUP3 PUSH2 0x2F9F JUMP JUMPDEST PUSH2 0x2F1E JUMP JUMPDEST SWAP2 POP DUP1 DUP3 MSTORE PUSH1 0x20 DUP4 ADD PUSH1 0x20 DUP4 ADD DUP6 DUP4 DUP4 ADD GT ISZERO PUSH2 0x2889 JUMPI PUSH1 0x0 DUP1 REVERT JUMPDEST PUSH2 0x2894 DUP4 DUP3 DUP5 PUSH2 0x30BA JUMP JUMPDEST POP POP POP SWAP3 SWAP2 POP POP JUMP JUMPDEST PUSH1 0x0 DUP2 CALLDATALOAD SWAP1 POP PUSH2 0x28AC DUP2 PUSH2 0x313B JUMP JUMPDEST SWAP3 SWAP2 POP POP JUMP JUMPDEST PUSH1 0x0 PUSH1 0x20 DUP3 DUP5 SUB SLT ISZERO PUSH2 0x28C4 JUMPI PUSH1 0x0 DUP1 REVERT JUMPDEST PUSH1 0x0 PUSH2 0x28D2 DUP5 DUP3 DUP6 ADD PUSH2 0x2757 JUMP JUMPDEST SWAP2 POP POP SWAP3 SWAP2 POP POP JUMP JUMPDEST PUSH1 0x0 DUP1 PUSH1 0x40 DUP4 DUP6 SUB SLT ISZERO PUSH2 0x28EE JUMPI PUSH1 0x0 DUP1 REVERT JUMPDEST PUSH1 0x0 PUSH2 0x28FC DUP6 DUP3 DUP7 ADD PUSH2 0x2757 JUMP JUMPDEST SWAP3 POP POP PUSH1 0x20 PUSH2 0x290D DUP6 DUP3 DUP7 ADD PUSH2 0x289D JUMP JUMPDEST SWAP2 POP POP SWAP3 POP SWAP3 SWAP1 POP JUMP JUMPDEST PUSH1 0x0 DUP1 PUSH1 0x0 PUSH1 0x60 DUP5 DUP7 SUB SLT ISZERO PUSH2 0x292C JUMPI PUSH1 0x0 DUP1 REVERT JUMPDEST PUSH1 0x0 PUSH2 0x293A DUP7 DUP3 DUP8 ADD PUSH2 0x27E0 JUMP JUMPDEST SWAP4 POP POP PUSH1 0x20 PUSH2 0x294B DUP7 DUP3 DUP8 ADD PUSH2 0x2757 JUMP JUMPDEST SWAP3 POP POP PUSH1 0x40 DUP5 ADD CALLDATALOAD PUSH8 0xFFFFFFFFFFFFFFFF DUP2 GT ISZERO PUSH2 0x2968 JUMPI PUSH1 0x0 DUP1 REVERT JUMPDEST PUSH2 0x2974 DUP7 DUP3 DUP8 ADD PUSH2 0x2849 JUMP JUMPDEST SWAP2 POP POP SWAP3 POP SWAP3 POP SWAP3 JUMP JUMPDEST PUSH1 0x0 DUP1 PUSH1 0x0 DUP1 PUSH1 0x80 DUP6 DUP8 SUB SLT ISZERO PUSH2 0x2994 JUMPI PUSH1 0x0 DUP1 REVERT JUMPDEST PUSH1 0x0 PUSH2 0x29A2 DUP8 DUP3 DUP9 ADD PUSH2 0x27E0 JUMP JUMPDEST SWAP5 POP POP PUSH1 0x20 PUSH2 0x29B3 DUP8 DUP3 DUP9 ADD PUSH2 0x2757 JUMP JUMPDEST SWAP4 POP POP PUSH1 0x40 DUP6 ADD CALLDATALOAD PUSH8 0xFFFFFFFFFFFFFFFF DUP2 GT ISZERO PUSH2 0x29D0 JUMPI PUSH1 0x0 DUP1 REVERT JUMPDEST PUSH2 0x29DC DUP8 DUP3 DUP9 ADD PUSH2 0x2849 JUMP JUMPDEST SWAP3 POP POP PUSH1 0x60 DUP6 ADD CALLDATALOAD PUSH8 0xFFFFFFFFFFFFFFFF DUP2 GT ISZERO PUSH2 0x29F9 JUMPI PUSH1 0x0 DUP1 REVERT JUMPDEST PUSH2 0x2A05 DUP8 DUP3 DUP9 ADD PUSH2 0x276C JUMP JUMPDEST SWAP2 POP POP SWAP3 SWAP6 SWAP2 SWAP5 POP SWAP3 POP JUMP JUMPDEST PUSH1 0x0 DUP1 PUSH1 0x0 PUSH1 0x60 DUP5 DUP7 SUB SLT ISZERO PUSH2 0x2A26 JUMPI PUSH1 0x0 DUP1 REVERT JUMPDEST PUSH1 0x0 DUP5 ADD CALLDATALOAD PUSH8 0xFFFFFFFFFFFFFFFF DUP2 GT ISZERO PUSH2 0x2A40 JUMPI PUSH1 0x0 DUP1 REVERT JUMPDEST PUSH2 0x2A4C DUP7 DUP3 DUP8 ADD PUSH2 0x2849 JUMP JUMPDEST SWAP4 POP POP PUSH1 0x20 PUSH2 0x2A5D DUP7 DUP3 DUP8 ADD PUSH2 0x2757 JUMP JUMPDEST SWAP3 POP POP PUSH1 0x40 DUP5 ADD CALLDATALOAD PUSH8 0xFFFFFFFFFFFFFFFF DUP2 GT ISZERO PUSH2 0x2A7A JUMPI PUSH1 0x0 DUP1 REVERT JUMPDEST PUSH2 0x2A86 DUP7 DUP3 DUP8 ADD PUSH2 0x2849 JUMP JUMPDEST SWAP2 POP POP SWAP3 POP SWAP3 POP SWAP3 JUMP JUMPDEST PUSH1 0x0 PUSH2 0x2A9C DUP4 DUP4 PUSH2 0x2B7F JUMP JUMPDEST SWAP1 POP SWAP3 SWAP2 POP POP JUMP JUMPDEST PUSH2 0x2AAD DUP2 PUSH2 0x3084 JUMP JUMPDEST DUP3 MSTORE POP POP JUMP JUMPDEST PUSH2 0x2ABC DUP2 PUSH2 0x303C JUMP JUMPDEST DUP3 MSTORE POP POP JUMP JUMPDEST PUSH1 0x0 PUSH2 0x2ACD DUP3 PUSH2 0x2FDB JUMP JUMPDEST PUSH2 0x2AD7 DUP2 DUP6 PUSH2 0x3009 JUMP JUMPDEST SWAP4 POP DUP4 PUSH1 0x20 DUP3 MUL DUP6 ADD PUSH2 0x2AE9 DUP6 PUSH2 0x2FCB JUMP JUMPDEST DUP1 PUSH1 0x0 JUMPDEST DUP6 DUP2 LT ISZERO PUSH2 0x2B25 JUMPI DUP5 DUP5 SUB DUP10 MSTORE DUP2 MLOAD PUSH2 0x2B06 DUP6 DUP3 PUSH2 0x2A90 JUMP JUMPDEST SWAP5 POP PUSH2 0x2B11 DUP4 PUSH2 0x2FFC JUMP JUMPDEST SWAP3 POP PUSH1 0x20 DUP11 ADD SWAP10 POP POP PUSH1 0x1 DUP2 ADD SWAP1 POP PUSH2 0x2AED JUMP JUMPDEST POP DUP3 SWAP8 POP DUP8 SWAP6 POP POP POP POP POP POP SWAP3 SWAP2 POP POP JUMP JUMPDEST PUSH2 0x2B40 DUP2 PUSH2 0x304E JUMP JUMPDEST DUP3 MSTORE POP POP JUMP JUMPDEST PUSH1 0x0 PUSH2 0x2B51 DUP3 PUSH2 0x2FF1 JUMP JUMPDEST PUSH2 0x2B5B DUP2 DUP6 PUSH2 0x302B JUMP JUMPDEST SWAP4 POP PUSH2 0x2B6B DUP2 DUP6 PUSH1 0x20 DUP7 ADD PUSH2 0x30C9 JUMP JUMPDEST PUSH2 0x2B74 DUP2 PUSH2 0x30FC JUMP JUMPDEST DUP5 ADD SWAP2 POP POP SWAP3 SWAP2 POP POP JUMP JUMPDEST PUSH1 0x0 PUSH2 0x2B8A DUP3 PUSH2 0x2FE6 JUMP JUMPDEST PUSH2 0x2B94 DUP2 DUP6 PUSH2 0x301A JUMP JUMPDEST SWAP4 POP PUSH2 0x2BA4 DUP2 DUP6 PUSH1 0x20 DUP7 ADD PUSH2 0x30C9 JUMP JUMPDEST PUSH2 0x2BAD DUP2 PUSH2 0x30FC JUMP JUMPDEST DUP5 ADD SWAP2 POP POP SWAP3 SWAP2 POP POP JUMP JUMPDEST PUSH1 0x0 PUSH2 0x2BC5 PUSH1 0x18 DUP4 PUSH2 0x302B JUMP JUMPDEST SWAP2 POP PUSH32 0x524547495354455245442050415449454E5453204F4E4C590000000000000000 PUSH1 0x0 DUP4 ADD MSTORE PUSH1 0x20 DUP3 ADD SWAP1 POP SWAP2 SWAP1 POP JUMP JUMPDEST PUSH1 0x0 PUSH2 0x2C05 PUSH1 0x27 DUP4 PUSH2 0x302B JUMP JUMPDEST SWAP2 POP PUSH32 0x50415449454E5453204F52204143434553535F4752414E5445445F444F43544F PUSH1 0x0 DUP4 ADD MSTORE PUSH32 0x5253204F4E4C5900000000000000000000000000000000000000000000000000 PUSH1 0x20 DUP4 ADD MSTORE PUSH1 0x40 DUP3 ADD SWAP1 POP SWAP2 SWAP1 POP JUMP JUMPDEST PUSH1 0x0 PUSH2 0x2C6B PUSH1 0x15 DUP4 PUSH2 0x302B JUMP JUMPDEST SWAP2 POP PUSH32 0x4F4E4C592041444D494E20495320414C4C4F5745440000000000000000000000 PUSH1 0x0 DUP4 ADD MSTORE PUSH1 0x20 DUP3 ADD SWAP1 POP SWAP2 SWAP1 POP JUMP JUMPDEST PUSH1 0x0 PUSH2 0x2CAB PUSH1 0x17 DUP4 PUSH2 0x302B JUMP JUMPDEST SWAP2 POP PUSH32 0x5245474953544552454420444F43544F5253204F4E4C59000000000000000000 PUSH1 0x0 DUP4 ADD MSTORE PUSH1 0x20 DUP3 ADD SWAP1 POP SWAP2 SWAP1 POP JUMP JUMPDEST PUSH1 0x0 PUSH2 0x2CEB PUSH1 0x15 DUP4 PUSH2 0x302B JUMP JUMPDEST SWAP2 POP PUSH32 0x445220414343455353204E4F54204752414E5445440000000000000000000000 PUSH1 0x0 DUP4 ADD MSTORE PUSH1 0x20 DUP3 ADD SWAP1 POP SWAP2 SWAP1 POP JUMP JUMPDEST PUSH1 0x0 PUSH1 0x40 DUP3 ADD SWAP1 POP PUSH2 0x2D33 PUSH1 0x0 DUP4 ADD DUP6 PUSH2 0x2AA4 JUMP JUMPDEST PUSH2 0x2D40 PUSH1 0x20 DUP4 ADD DUP5 PUSH2 0x2AB3 JUMP JUMPDEST SWAP4 SWAP3 POP POP POP JUMP JUMPDEST PUSH1 0x0 PUSH1 0x40 DUP3 ADD SWAP1 POP PUSH2 0x2D5C PUSH1 0x0 DUP4 ADD DUP6 PUSH2 0x2AB3 JUMP JUMPDEST PUSH2 0x2D69 PUSH1 0x20 DUP4 ADD DUP5 PUSH2 0x2AA4 JUMP JUMPDEST SWAP4 SWAP3 POP POP POP JUMP JUMPDEST PUSH1 0x0 PUSH1 0x60 DUP3 ADD SWAP1 POP PUSH2 0x2D85 PUSH1 0x0 DUP4 ADD DUP7 PUSH2 0x2B37 JUMP JUMPDEST PUSH2 0x2D92 PUSH1 0x20 DUP4 ADD DUP6 PUSH2 0x2AB3 JUMP JUMPDEST DUP2 DUP2 SUB PUSH1 0x40 DUP4 ADD MSTORE PUSH2 0x2DA4 DUP2 DUP5 PUSH2 0x2B46 JUMP JUMPDEST SWAP1 POP SWAP5 SWAP4 POP POP POP POP JUMP JUMPDEST PUSH1 0x0 PUSH1 0x80 DUP3 ADD SWAP1 POP PUSH2 0x2DC3 PUSH1 0x0 DUP4 ADD DUP8 PUSH2 0x2B37 JUMP JUMPDEST PUSH2 0x2DD0 PUSH1 0x20 DUP4 ADD DUP7 PUSH2 0x2AB3 JUMP JUMPDEST DUP2 DUP2 SUB PUSH1 0x40 DUP4 ADD MSTORE PUSH2 0x2DE2 DUP2 DUP6 PUSH2 0x2B46 JUMP JUMPDEST SWAP1 POP DUP2 DUP2 SUB PUSH1 0x60 DUP4 ADD MSTORE PUSH2 0x2DF6 DUP2 DUP5 PUSH2 0x2AC2 JUMP JUMPDEST SWAP1 POP SWAP6 SWAP5 POP POP POP POP POP JUMP JUMPDEST PUSH1 0x0 PUSH1 0xC0 DUP3 ADD SWAP1 POP DUP2 DUP2 SUB PUSH1 0x0 DUP4 ADD MSTORE PUSH2 0x2E1B DUP2 DUP10 PUSH2 0x2B46 JUMP JUMPDEST SWAP1 POP PUSH2 0x2E2A PUSH1 0x20 DUP4 ADD DUP9 PUSH2 0x2AB3 JUMP JUMPDEST DUP2 DUP2 SUB PUSH1 0x40 DUP4 ADD MSTORE PUSH2 0x2E3C DUP2 DUP8 PUSH2 0x2B46 JUMP JUMPDEST SWAP1 POP PUSH2 0x2E4B PUSH1 0x60 DUP4 ADD DUP7 PUSH2 0x2AB3 JUMP JUMPDEST DUP2 DUP2 SUB PUSH1 0x80 DUP4 ADD MSTORE PUSH2 0x2E5D DUP2 DUP6 PUSH2 0x2B46 JUMP JUMPDEST SWAP1 POP DUP2 DUP2 SUB PUSH1 0xA0 DUP4 ADD MSTORE PUSH2 0x2E71 DUP2 DUP5 PUSH2 0x2AC2 JUMP JUMPDEST SWAP1 POP SWAP8 SWAP7 POP POP POP POP POP POP POP JUMP JUMPDEST PUSH1 0x0 PUSH1 0x20 DUP3 ADD SWAP1 POP DUP2 DUP2 SUB PUSH1 0x0 DUP4 ADD MSTORE PUSH2 0x2E97 DUP2 PUSH2 0x2BB8 JUMP JUMPDEST SWAP1 POP SWAP2 SWAP1 POP JUMP JUMPDEST PUSH1 0x0 PUSH1 0x20 DUP3 ADD SWAP1 POP DUP2 DUP2 SUB PUSH1 0x0 DUP4 ADD MSTORE PUSH2 0x2EB7 DUP2 PUSH2 0x2BF8 JUMP JUMPDEST SWAP1 POP SWAP2 SWAP1 POP JUMP JUMPDEST PUSH1 0x0 PUSH1 0x20 DUP3 ADD SWAP1 POP DUP2 DUP2 SUB PUSH1 0x0 DUP4 ADD MSTORE PUSH2 0x2ED7 DUP2 PUSH2 0x2C5E JUMP JUMPDEST SWAP1 POP SWAP2 SWAP1 POP JUMP JUMPDEST PUSH1 0x0 PUSH1 0x20 DUP3 ADD SWAP1 POP DUP2 DUP2 SUB PUSH1 0x0 DUP4 ADD MSTORE PUSH2 0x2EF7 DUP2 PUSH2 0x2C9E JUMP JUMPDEST SWAP1 POP SWAP2 SWAP1 POP JUMP JUMPDEST PUSH1 0x0 PUSH1 0x20 DUP3 ADD SWAP1 POP DUP2 DUP2 SUB PUSH1 0x0 DUP4 ADD MSTORE PUSH2 0x2F17 DUP2 PUSH2 0x2CDE JUMP JUMPDEST SWAP1 POP SWAP2 SWAP1 POP JUMP JUMPDEST PUSH1 0x0 PUSH1 0x40 MLOAD SWAP1 POP DUP2 DUP2 ADD DUP2 DUP2 LT PUSH8 0xFFFFFFFFFFFFFFFF DUP3 GT OR ISZERO PUSH2 0x2F41 JUMPI PUSH1 0x0 DUP1 REVERT JUMPDEST DUP1 PUSH1 0x40 MSTORE POP SWAP2 SWAP1 POP JUMP JUMPDEST PUSH1 0x0 PUSH8 0xFFFFFFFFFFFFFFFF DUP3 GT ISZERO PUSH2 0x2F62 JUMPI PUSH1 0x0 DUP1 REVERT JUMPDEST PUSH1 0x20 DUP3 MUL SWAP1 POP PUSH1 0x20 DUP2 ADD SWAP1 POP SWAP2 SWAP1 POP JUMP JUMPDEST PUSH1 0x0 PUSH8 0xFFFFFFFFFFFFFFFF DUP3 GT ISZERO PUSH2 0x2F8A JUMPI PUSH1 0x0 DUP1 REVERT JUMPDEST PUSH1 0x1F NOT PUSH1 0x1F DUP4 ADD AND SWAP1 POP PUSH1 0x20 DUP2 ADD SWAP1 POP SWAP2 SWAP1 POP JUMP JUMPDEST PUSH1 0x0 PUSH8 0xFFFFFFFFFFFFFFFF DUP3 GT ISZERO PUSH2 0x2FB6 JUMPI PUSH1 0x0 DUP1 REVERT JUMPDEST PUSH1 0x1F NOT PUSH1 0x1F DUP4 ADD AND SWAP1 POP PUSH1 0x20 DUP2 ADD SWAP1 POP SWAP2 SWAP1 POP JUMP JUMPDEST PUSH1 0x0 DUP2 SWAP1 POP PUSH1 0x20 DUP3 ADD SWAP1 POP SWAP2 SWAP1 POP JUMP JUMPDEST PUSH1 0x0 DUP2 MLOAD SWAP1 POP SWAP2 SWAP1 POP JUMP JUMPDEST PUSH1 0x0 DUP2 MLOAD SWAP1 POP SWAP2 SWAP1 POP JUMP JUMPDEST PUSH1 0x0 DUP2 MLOAD SWAP1 POP SWAP2 SWAP1 POP JUMP JUMPDEST PUSH1 0x0 PUSH1 0x20 DUP3 ADD SWAP1 POP SWAP2 SWAP1 POP JUMP JUMPDEST PUSH1 0x0 DUP3 DUP3 MSTORE PUSH1 0x20 DUP3 ADD SWAP1 POP SWAP3 SWAP2 POP POP JUMP JUMPDEST PUSH1 0x0 DUP3 DUP3 MSTORE PUSH1 0x20 DUP3 ADD SWAP1 POP SWAP3 SWAP2 POP POP JUMP JUMPDEST PUSH1 0x0 DUP3 DUP3 MSTORE PUSH1 0x20 DUP3 ADD SWAP1 POP SWAP3 SWAP2 POP POP JUMP JUMPDEST PUSH1 0x0 PUSH2 0x3047 DUP3 PUSH2 0x305A JUMP JUMPDEST SWAP1 POP SWAP2 SWAP1 POP JUMP JUMPDEST PUSH1 0x0 DUP2 ISZERO ISZERO SWAP1 POP SWAP2 SWAP1 POP JUMP JUMPDEST PUSH1 0x0 PUSH20 0xFFFFFFFFFFFFFFFFFFFFFFFFFFFFFFFFFFFFFFFF DUP3 AND SWAP1 POP SWAP2 SWAP1 POP JUMP JUMPDEST PUSH1 0x0 DUP2 SWAP1 POP SWAP2 SWAP1 POP JUMP JUMPDEST PUSH1 0x0 PUSH2 0x308F DUP3 PUSH2 0x3096 JUMP JUMPDEST SWAP1 POP SWAP2 SWAP1 POP JUMP JUMPDEST PUSH1 0x0 PUSH2 0x30A1 DUP3 PUSH2 0x30A8 JUMP JUMPDEST SWAP1 POP SWAP2 SWAP1 POP JUMP JUMPDEST PUSH1 0x0 PUSH2 0x30B3 DUP3 PUSH2 0x305A JUMP JUMPDEST SWAP1 POP SWAP2 SWAP1 POP JUMP JUMPDEST DUP3 DUP2 DUP4 CALLDATACOPY PUSH1 0x0 DUP4 DUP4 ADD MSTORE POP POP POP JUMP JUMPDEST PUSH1 0x0 JUMPDEST DUP4 DUP2 LT ISZERO PUSH2 0x30E7 JUMPI DUP1 DUP3 ADD MLOAD DUP2 DUP5 ADD MSTORE PUSH1 0x20 DUP2 ADD SWAP1 POP PUSH2 0x30CC JUMP JUMPDEST DUP4 DUP2 GT ISZERO PUSH2 0x30F6 JUMPI PUSH1 0x0 DUP5 DUP5 ADD MSTORE JUMPDEST POP POP POP POP JUMP JUMPDEST PUSH1 0x0 PUSH1 0x1F NOT PUSH1 0x1F DUP4 ADD AND SWAP1 POP SWAP2 SWAP1 POP JUMP JUMPDEST PUSH2 0x3116 DUP2 PUSH2 0x303C JUMP JUMPDEST DUP2 EQ PUSH2 0x3121 JUMPI PUSH1 0x0 DUP1 REVERT JUMPDEST POP JUMP JUMPDEST PUSH2 0x312D DUP2 PUSH2 0x304E JUMP JUMPDEST DUP2 EQ PUSH2 0x3138 JUMPI PUSH1 0x0 DUP1 REVERT JUMPDEST POP JUMP JUMPDEST PUSH2 0x3144 DUP2 PUSH2 0x307A JUMP JUMPDEST DUP2 EQ PUSH2 0x314F JUMPI PUSH1 0x0 DUP1 REVERT JUMPDEST POP JUMP INVALID LOG3 PUSH6 0x627A7A723158 KECCAK256 PUSH26 0x91CEA8FFE528C2608BB27844159E89B417301EBAB2AE016320F1 EXTCODEHASH LOG1 0x2D 0xBD SWAP8 PUSH13 0x6578706572696D656E74616CF5 PUSH5 0x736F6C6343 STOP SDIV GT STOP BLOCKHASH "
				},
				"gasEstimates": {
					"creation": {
						"codeDepositCost": "2538600",
						"executionCost": "23606",
						"totalCost": "2562206"
					},
					"external": {
						"getDoctorDetails(address)": "infinite",
						"getHealthRecords(address)": "infinite",
						"getHealthRecordsForDoctor(address)": "infinite",
						"getPatientDetails(address)": "infinite",
						"grantAccessToDoctor(address,uint256)": "infinite",
						"setDoctorDetails(bool,address,string)": "infinite",
						"setHealthRecordsDetails(string,address,string)": "infinite",
						"setPatientDetails(bool,address,string,string[])": "infinite"
					}
				},
				"methodIdentifiers": {
					"getDoctorDetails(address)": "bab90dbd",
					"getHealthRecords(address)": "7827c01a",
					"getHealthRecordsForDoctor(address)": "f83009ba",
					"getPatientDetails(address)": "efe2ccc1",
					"grantAccessToDoctor(address,uint256)": "506f1773",
					"setDoctorDetails(bool,address,string)": "80cfed0e",
					"setHealthRecordsDetails(string,address,string)": "c88f22a9",
					"setPatientDetails(bool,address,string,string[])": "71f61bfa"
				}
			},
			"storageLayout": {
				"storage": [
					{
						"astId": 6,
						"contract": "contracts/Medical-Record.sol:MedicalChain",
						"label": "DoctorInfo",
						"offset": 0,
						"slot": "0",
						"type": "t_mapping(t_address,t_struct(Doctor)100_storage)"
					},
					{
						"astId": 10,
						"contract": "contracts/Medical-Record.sol:MedicalChain",
						"label": "PatientInfo",
						"offset": 0,
						"slot": "1",
						"type": "t_mapping(t_address,t_struct(Patient)110_storage)"
					},
					{
						"astId": 16,
						"contract": "contracts/Medical-Record.sol:MedicalChain",
						"label": "HealthInfo",
						"offset": 0,
						"slot": "2",
						"type": "t_mapping(t_address,t_mapping(t_address,t_struct(HealthRecords)123_storage))"
					},
					{
						"astId": 22,
						"contract": "contracts/Medical-Record.sol:MedicalChain",
						"label": "patientToDoctor",
						"offset": 0,
						"slot": "3",
						"type": "t_mapping(t_address,t_mapping(t_address,t_uint256))"
					},
					{
						"astId": 84,
						"contract": "contracts/Medical-Record.sol:MedicalChain",
						"label": "owner",
						"offset": 0,
						"slot": "4",
						"type": "t_address"
					}
				],
				"types": {
					"t_address": {
						"encoding": "inplace",
						"label": "address",
						"numberOfBytes": "20"
					},
					"t_array(t_string_storage)dyn_storage": {
						"base": "t_string_storage",
						"encoding": "dynamic_array",
						"label": "string[]",
						"numberOfBytes": "32"
					},
					"t_bool": {
						"encoding": "inplace",
						"label": "bool",
						"numberOfBytes": "1"
					},
					"t_mapping(t_address,t_mapping(t_address,t_struct(HealthRecords)123_storage))": {
						"encoding": "mapping",
						"key": "t_address",
						"label": "mapping(address => mapping(address => struct MedicalChain.HealthRecords))",
						"numberOfBytes": "32",
						"value": "t_mapping(t_address,t_struct(HealthRecords)123_storage)"
					},
					"t_mapping(t_address,t_mapping(t_address,t_uint256))": {
						"encoding": "mapping",
						"key": "t_address",
						"label": "mapping(address => mapping(address => uint256))",
						"numberOfBytes": "32",
						"value": "t_mapping(t_address,t_uint256)"
					},
					"t_mapping(t_address,t_struct(Doctor)100_storage)": {
						"encoding": "mapping",
						"key": "t_address",
						"label": "mapping(address => struct MedicalChain.Doctor)",
						"numberOfBytes": "32",
						"value": "t_struct(Doctor)100_storage"
					},
					"t_mapping(t_address,t_struct(HealthRecords)123_storage)": {
						"encoding": "mapping",
						"key": "t_address",
						"label": "mapping(address => struct MedicalChain.HealthRecords)",
						"numberOfBytes": "32",
						"value": "t_struct(HealthRecords)123_storage"
					},
					"t_mapping(t_address,t_struct(Patient)110_storage)": {
						"encoding": "mapping",
						"key": "t_address",
						"label": "mapping(address => struct MedicalChain.Patient)",
						"numberOfBytes": "32",
						"value": "t_struct(Patient)110_storage"
					},
					"t_mapping(t_address,t_uint256)": {
						"encoding": "mapping",
						"key": "t_address",
						"label": "mapping(address => uint256)",
						"numberOfBytes": "32",
						"value": "t_uint256"
					},
					"t_string_storage": {
						"encoding": "bytes",
						"label": "string",
						"numberOfBytes": "32"
					},
					"t_struct(Doctor)100_storage": {
						"encoding": "inplace",
						"label": "struct MedicalChain.Doctor",
						"members": [
							{
								"astId": 95,
								"contract": "contracts/Medical-Record.sol:MedicalChain",
								"label": "state",
								"offset": 0,
								"slot": "0",
								"type": "t_bool"
							},
							{
								"astId": 97,
								"contract": "contracts/Medical-Record.sol:MedicalChain",
								"label": "dr_Id",
								"offset": 1,
								"slot": "0",
								"type": "t_address"
							},
							{
								"astId": 99,
								"contract": "contracts/Medical-Record.sol:MedicalChain",
								"label": "d_Name",
								"offset": 0,
								"slot": "1",
								"type": "t_string_storage"
							}
						],
						"numberOfBytes": "64"
					},
					"t_struct(HealthRecords)123_storage": {
						"encoding": "inplace",
						"label": "struct MedicalChain.HealthRecords",
						"members": [
							{
								"astId": 115,
								"contract": "contracts/Medical-Record.sol:MedicalChain",
								"label": "d",
								"offset": 0,
								"slot": "0",
								"type": "t_struct(Doctor)100_storage"
							},
							{
								"astId": 117,
								"contract": "contracts/Medical-Record.sol:MedicalChain",
								"label": "p",
								"offset": 0,
								"slot": "2",
								"type": "t_struct(Patient)110_storage"
							},
							{
								"astId": 119,
								"contract": "contracts/Medical-Record.sol:MedicalChain",
								"label": "pre",
								"offset": 0,
								"slot": "5",
								"type": "t_struct(PrescriptionDetails)113_storage"
							},
							{
								"astId": 122,
								"contract": "contracts/Medical-Record.sol:MedicalChain",
								"label": "records",
								"offset": 0,
								"slot": "6",
								"type": "t_array(t_string_storage)dyn_storage"
							}
						],
						"numberOfBytes": "224"
					},
					"t_struct(Patient)110_storage": {
						"encoding": "inplace",
						"label": "struct MedicalChain.Patient",
						"members": [
							{
								"astId": 102,
								"contract": "contracts/Medical-Record.sol:MedicalChain",
								"label": "state",
								"offset": 0,
								"slot": "0",
								"type": "t_bool"
							},
							{
								"astId": 104,
								"contract": "contracts/Medical-Record.sol:MedicalChain",
								"label": "pa_Id",
								"offset": 1,
								"slot": "0",
								"type": "t_address"
							},
							{
								"astId": 106,
								"contract": "contracts/Medical-Record.sol:MedicalChain",
								"label": "pa_Name",
								"offset": 0,
								"slot": "1",
								"type": "t_string_storage"
							},
							{
								"astId": 109,
								"contract": "contracts/Medical-Record.sol:MedicalChain",
								"label": "pa_Records",
								"offset": 0,
								"slot": "2",
								"type": "t_array(t_string_storage)dyn_storage"
							}
						],
						"numberOfBytes": "96"
					},
					"t_struct(PrescriptionDetails)113_storage": {
						"encoding": "inplace",
						"label": "struct MedicalChain.PrescriptionDetails",
						"members": [
							{
								"astId": 112,
								"contract": "contracts/Medical-Record.sol:MedicalChain",
								"label": "prescription",
								"offset": 0,
								"slot": "0",
								"type": "t_string_storage"
							}
						],
						"numberOfBytes": "32"
					},
					"t_uint256": {
						"encoding": "inplace",
						"label": "uint256",
						"numberOfBytes": "32"
					}
				}
			},
			"userdoc": {
				"methods": {}
			}
		}
	}
}